{"abi":[{"inputs":[{"internalType":"uint256","name":"minimum","type":"uint256"},{"internalType":"string","name":"desc","type":"string"}],"name":"createCampaign","outputs":[],"stateMutability":"nonpayable","type":"function"},{"inputs":[{"internalType":"uint256","name":"","type":"uint256"}],"name":"deployedCampaigns","outputs":[{"internalType":"address","name":"","type":"address"}],"stateMutability":"view","type":"function"},{"inputs":[],"name":"getDeployedCampaigns","outputs":[{"internalType":"address[]","name":"","type":"address[]"}],"stateMutability":"view","type":"function"}],"devdoc":{"kind":"dev","methods":{},"version":1},"evm":{"assembly":"    /* \"campaign\":70:466  contract CampaignFactory {... */\n  mstore(0x40, 0x80)\n  callvalue\n  dup1\n  iszero\n  tag_1\n  jumpi\n  0x00\n  dup1\n  revert\ntag_1:\n  pop\n  dataSize(sub_0)\n  dup1\n  dataOffset(sub_0)\n  0x00\n  codecopy\n  0x00\n  return\nstop\n\nsub_0: assembly {\n        /* \"campaign\":70:466  contract CampaignFactory {... */\n      mstore(0x40, 0x80)\n      callvalue\n      dup1\n      iszero\n      tag_1\n      jumpi\n      0x00\n      dup1\n      revert\n    tag_1:\n      pop\n      jumpi(tag_2, lt(calldatasize, 0x04))\n      shr(0xe0, calldataload(0x00))\n      dup1\n      0x339d50a5\n      eq\n      tag_3\n      jumpi\n      dup1\n      0x4220d656\n      eq\n      tag_4\n      jumpi\n      dup1\n      0x4acb9d4f\n      eq\n      tag_5\n      jumpi\n    tag_2:\n      0x00\n      dup1\n      revert\n        /* \"campaign\":102:136  address[] public deployedCampaigns */\n    tag_3:\n      tag_6\n      0x04\n      dup1\n      calldatasize\n      sub\n      dup2\n      add\n      swap1\n      tag_7\n      swap2\n      swap1\n      tag_8\n      jump\t// in\n    tag_7:\n      tag_9\n      jump\t// in\n    tag_6:\n      mload(0x40)\n      tag_10\n      swap2\n      swap1\n      tag_11\n      jump\t// in\n    tag_10:\n      mload(0x40)\n      dup1\n      swap2\n      sub\n      swap1\n      return\n        /* \"campaign\":143:343  function createCampaign(uint minimum, string memory desc) public {... */\n    tag_4:\n      tag_12\n      0x04\n      dup1\n      calldatasize\n      sub\n      dup2\n      add\n      swap1\n      tag_13\n      swap2\n      swap1\n      tag_14\n      jump\t// in\n    tag_13:\n      tag_15\n      jump\t// in\n    tag_12:\n      stop\n        /* \"campaign\":349:463  function getDeployedCampaigns() public view returns (address[] memory) {... */\n    tag_5:\n      tag_16\n      tag_17\n      jump\t// in\n    tag_16:\n      mload(0x40)\n      tag_18\n      swap2\n      swap1\n      tag_19\n      jump\t// in\n    tag_18:\n      mload(0x40)\n      dup1\n      swap2\n      sub\n      swap1\n      return\n        /* \"campaign\":102:136  address[] public deployedCampaigns */\n    tag_9:\n      0x00\n      dup2\n      dup2\n      sload\n      dup2\n      lt\n      tag_20\n      jumpi\n      0x00\n      dup1\n      revert\n    tag_20:\n      swap1\n      0x00\n      mstore\n      keccak256(0x00, 0x20)\n      add\n      0x00\n      swap2\n      pop\n      sload\n      swap1\n      0x0100\n      exp\n      swap1\n      div\n      0xffffffffffffffffffffffffffffffffffffffff\n      and\n      dup2\n      jump\t// out\n        /* \"campaign\":143:343  function createCampaign(uint minimum, string memory desc) public {... */\n    tag_15:\n        /* \"campaign\":219:238  address newCampaign */\n      0x00\n        /* \"campaign\":262:269  minimum */\n      dup3\n        /* \"campaign\":271:275  desc */\n      dup3\n        /* \"campaign\":277:287  msg.sender */\n      caller\n        /* \"campaign\":249:288  new Campaign(minimum, desc, msg.sender) */\n      mload(0x40)\n      tag_23\n      swap1\n      tag_24\n      jump\t// in\n    tag_23:\n      tag_25\n      swap4\n      swap3\n      swap2\n      swap1\n      tag_26\n      jump\t// in\n    tag_25:\n      mload(0x40)\n      dup1\n      swap2\n      sub\n      swap1\n      0x00\n      create\n      dup1\n      iszero\n      dup1\n      iszero\n      tag_27\n      jumpi\n      returndatasize\n      0x00\n      dup1\n      returndatacopy\n      revert(0x00, returndatasize)\n    tag_27:\n      pop\n        /* \"campaign\":219:289  address newCampaign = address(new Campaign(minimum, desc, msg.sender)) */\n      swap1\n      pop\n        /* \"campaign\":300:317  deployedCampaigns */\n      0x00\n        /* \"campaign\":323:334  newCampaign */\n      dup2\n        /* \"campaign\":300:335  deployedCampaigns.push(newCampaign) */\n      swap1\n      dup1\n      0x01\n      dup2\n      sload\n      add\n      dup1\n      dup3\n      sstore\n      dup1\n      swap2\n      pop\n      pop\n      0x01\n      swap1\n      sub\n      swap1\n      0x00\n      mstore\n      keccak256(0x00, 0x20)\n      add\n      0x00\n      swap1\n      swap2\n      swap1\n      swap2\n      swap1\n      swap2\n      0x0100\n      exp\n      dup2\n      sload\n      dup2\n      0xffffffffffffffffffffffffffffffffffffffff\n      mul\n      not\n      and\n      swap1\n      dup4\n      0xffffffffffffffffffffffffffffffffffffffff\n      and\n      mul\n      or\n      swap1\n      sstore\n      pop\n        /* \"campaign\":208:343  {... */\n      pop\n        /* \"campaign\":143:343  function createCampaign(uint minimum, string memory desc) public {... */\n      pop\n      pop\n      jump\t// out\n        /* \"campaign\":349:463  function getDeployedCampaigns() public view returns (address[] memory) {... */\n    tag_17:\n        /* \"campaign\":402:418  address[] memory */\n      0x60\n        /* \"campaign\":438:455  deployedCampaigns */\n      0x00\n        /* \"campaign\":431:455  return deployedCampaigns */\n      dup1\n      sload\n      dup1\n      0x20\n      mul\n      0x20\n      add\n      mload(0x40)\n      swap1\n      dup2\n      add\n      0x40\n      mstore\n      dup1\n      swap3\n      swap2\n      swap1\n      dup2\n      dup2\n      mstore\n      0x20\n      add\n      dup3\n      dup1\n      sload\n      dup1\n      iszero\n      tag_30\n      jumpi\n      0x20\n      mul\n      dup3\n      add\n      swap2\n      swap1\n      0x00\n      mstore\n      keccak256(0x00, 0x20)\n      swap1\n    tag_31:\n      dup2\n      0x00\n      swap1\n      sload\n      swap1\n      0x0100\n      exp\n      swap1\n      div\n      0xffffffffffffffffffffffffffffffffffffffff\n      and\n      0xffffffffffffffffffffffffffffffffffffffff\n      and\n      dup2\n      mstore\n      0x20\n      add\n      swap1\n      0x01\n      add\n      swap1\n      dup1\n      dup4\n      gt\n      tag_31\n      jumpi\n    tag_30:\n      pop\n      pop\n      pop\n      pop\n      pop\n      swap1\n      pop\n        /* \"campaign\":349:463  function getDeployedCampaigns() public view returns (address[] memory) {... */\n      swap1\n      jump\t// out\n    tag_24:\n      dataSize(sub_0)\n      dup1\n      dataOffset(sub_0)\n      dup4\n      codecopy\n      add\n      swap1\n      jump\t// out\n        /* \"#utility.yul\":7:82   */\n    tag_32:\n        /* \"#utility.yul\":40:46   */\n      0x00\n        /* \"#utility.yul\":73:75   */\n      0x40\n        /* \"#utility.yul\":67:76   */\n      mload\n        /* \"#utility.yul\":57:76   */\n      swap1\n      pop\n        /* \"#utility.yul\":7:82   */\n      swap1\n      jump\t// out\n        /* \"#utility.yul\":88:205   */\n    tag_33:\n        /* \"#utility.yul\":197:198   */\n      0x00\n        /* \"#utility.yul\":194:195   */\n      dup1\n        /* \"#utility.yul\":187:199   */\n      revert\n        /* \"#utility.yul\":211:328   */\n    tag_34:\n        /* \"#utility.yul\":320:321   */\n      0x00\n        /* \"#utility.yul\":317:318   */\n      dup1\n        /* \"#utility.yul\":310:322   */\n      revert\n        /* \"#utility.yul\":334:411   */\n    tag_35:\n        /* \"#utility.yul\":371:378   */\n      0x00\n        /* \"#utility.yul\":400:405   */\n      dup2\n        /* \"#utility.yul\":389:405   */\n      swap1\n      pop\n        /* \"#utility.yul\":334:411   */\n      swap2\n      swap1\n      pop\n      jump\t// out\n        /* \"#utility.yul\":417:539   */\n    tag_36:\n        /* \"#utility.yul\":490:514   */\n      tag_69\n        /* \"#utility.yul\":508:513   */\n      dup2\n        /* \"#utility.yul\":490:514   */\n      tag_35\n      jump\t// in\n    tag_69:\n        /* \"#utility.yul\":483:488   */\n      dup2\n        /* \"#utility.yul\":480:515   */\n      eq\n        /* \"#utility.yul\":470:533   */\n      tag_70\n      jumpi\n        /* \"#utility.yul\":529:530   */\n      0x00\n        /* \"#utility.yul\":526:527   */\n      dup1\n        /* \"#utility.yul\":519:531   */\n      revert\n        /* \"#utility.yul\":470:533   */\n    tag_70:\n        /* \"#utility.yul\":417:539   */\n      pop\n      jump\t// out\n        /* \"#utility.yul\":545:684   */\n    tag_37:\n        /* \"#utility.yul\":591:596   */\n      0x00\n        /* \"#utility.yul\":629:635   */\n      dup2\n        /* \"#utility.yul\":616:636   */\n      calldataload\n        /* \"#utility.yul\":607:636   */\n      swap1\n      pop\n        /* \"#utility.yul\":645:678   */\n      tag_72\n        /* \"#utility.yul\":672:677   */\n      dup2\n        /* \"#utility.yul\":645:678   */\n      tag_36\n      jump\t// in\n    tag_72:\n        /* \"#utility.yul\":545:684   */\n      swap3\n      swap2\n      pop\n      pop\n      jump\t// out\n        /* \"#utility.yul\":690:1019   */\n    tag_8:\n        /* \"#utility.yul\":749:755   */\n      0x00\n        /* \"#utility.yul\":798:800   */\n      0x20\n        /* \"#utility.yul\":786:795   */\n      dup3\n        /* \"#utility.yul\":777:784   */\n      dup5\n        /* \"#utility.yul\":773:796   */\n      sub\n        /* \"#utility.yul\":769:801   */\n      slt\n        /* \"#utility.yul\":766:885   */\n      iszero\n      tag_74\n      jumpi\n        /* \"#utility.yul\":804:883   */\n      tag_75\n      tag_33\n      jump\t// in\n    tag_75:\n        /* \"#utility.yul\":766:885   */\n    tag_74:\n        /* \"#utility.yul\":924:925   */\n      0x00\n        /* \"#utility.yul\":949:1002   */\n      tag_76\n        /* \"#utility.yul\":994:1001   */\n      dup5\n        /* \"#utility.yul\":985:991   */\n      dup3\n        /* \"#utility.yul\":974:983   */\n      dup6\n        /* \"#utility.yul\":970:992   */\n      add\n        /* \"#utility.yul\":949:1002   */\n      tag_37\n      jump\t// in\n    tag_76:\n        /* \"#utility.yul\":939:1002   */\n      swap2\n      pop\n        /* \"#utility.yul\":895:1012   */\n      pop\n        /* \"#utility.yul\":690:1019   */\n      swap3\n      swap2\n      pop\n      pop\n      jump\t// out\n        /* \"#utility.yul\":1025:1151   */\n    tag_38:\n        /* \"#utility.yul\":1062:1069   */\n      0x00\n        /* \"#utility.yul\":1102:1144   */\n      0xffffffffffffffffffffffffffffffffffffffff\n        /* \"#utility.yul\":1095:1100   */\n      dup3\n        /* \"#utility.yul\":1091:1145   */\n      and\n        /* \"#utility.yul\":1080:1145   */\n      swap1\n      pop\n        /* \"#utility.yul\":1025:1151   */\n      swap2\n      swap1\n      pop\n      jump\t// out\n        /* \"#utility.yul\":1157:1253   */\n    tag_39:\n        /* \"#utility.yul\":1194:1201   */\n      0x00\n        /* \"#utility.yul\":1223:1247   */\n      tag_79\n        /* \"#utility.yul\":1241:1246   */\n      dup3\n        /* \"#utility.yul\":1223:1247   */\n      tag_38\n      jump\t// in\n    tag_79:\n        /* \"#utility.yul\":1212:1247   */\n      swap1\n      pop\n        /* \"#utility.yul\":1157:1253   */\n      swap2\n      swap1\n      pop\n      jump\t// out\n        /* \"#utility.yul\":1259:1377   */\n    tag_40:\n        /* \"#utility.yul\":1346:1370   */\n      tag_81\n        /* \"#utility.yul\":1364:1369   */\n      dup2\n        /* \"#utility.yul\":1346:1370   */\n      tag_39\n      jump\t// in\n    tag_81:\n        /* \"#utility.yul\":1341:1344   */\n      dup3\n        /* \"#utility.yul\":1334:1371   */\n      mstore\n        /* \"#utility.yul\":1259:1377   */\n      pop\n      pop\n      jump\t// out\n        /* \"#utility.yul\":1383:1605   */\n    tag_11:\n        /* \"#utility.yul\":1476:1480   */\n      0x00\n        /* \"#utility.yul\":1514:1516   */\n      0x20\n        /* \"#utility.yul\":1503:1512   */\n      dup3\n        /* \"#utility.yul\":1499:1517   */\n      add\n        /* \"#utility.yul\":1491:1517   */\n      swap1\n      pop\n        /* \"#utility.yul\":1527:1598   */\n      tag_83\n        /* \"#utility.yul\":1595:1596   */\n      0x00\n        /* \"#utility.yul\":1584:1593   */\n      dup4\n        /* \"#utility.yul\":1580:1597   */\n      add\n        /* \"#utility.yul\":1571:1577   */\n      dup5\n        /* \"#utility.yul\":1527:1598   */\n      tag_40\n      jump\t// in\n    tag_83:\n        /* \"#utility.yul\":1383:1605   */\n      swap3\n      swap2\n      pop\n      pop\n      jump\t// out\n        /* \"#utility.yul\":1611:1728   */\n    tag_41:\n        /* \"#utility.yul\":1720:1721   */\n      0x00\n        /* \"#utility.yul\":1717:1718   */\n      dup1\n        /* \"#utility.yul\":1710:1722   */\n      revert\n        /* \"#utility.yul\":1734:1851   */\n    tag_42:\n        /* \"#utility.yul\":1843:1844   */\n      0x00\n        /* \"#utility.yul\":1840:1841   */\n      dup1\n        /* \"#utility.yul\":1833:1845   */\n      revert\n        /* \"#utility.yul\":1857:1959   */\n    tag_43:\n        /* \"#utility.yul\":1898:1904   */\n      0x00\n        /* \"#utility.yul\":1949:1951   */\n      0x1f\n        /* \"#utility.yul\":1945:1952   */\n      not\n        /* \"#utility.yul\":1940:1942   */\n      0x1f\n        /* \"#utility.yul\":1933:1938   */\n      dup4\n        /* \"#utility.yul\":1929:1943   */\n      add\n        /* \"#utility.yul\":1925:1953   */\n      and\n        /* \"#utility.yul\":1915:1953   */\n      swap1\n      pop\n        /* \"#utility.yul\":1857:1959   */\n      swap2\n      swap1\n      pop\n      jump\t// out\n        /* \"#utility.yul\":1965:2145   */\n    tag_44:\n        /* \"#utility.yul\":2013:2090   */\n      0x4e487b7100000000000000000000000000000000000000000000000000000000\n        /* \"#utility.yul\":2010:2011   */\n      0x00\n        /* \"#utility.yul\":2003:2091   */\n      mstore\n        /* \"#utility.yul\":2110:2114   */\n      0x41\n        /* \"#utility.yul\":2107:2108   */\n      0x04\n        /* \"#utility.yul\":2100:2115   */\n      mstore\n        /* \"#utility.yul\":2134:2138   */\n      0x24\n        /* \"#utility.yul\":2131:2132   */\n      0x00\n        /* \"#utility.yul\":2124:2139   */\n      revert\n        /* \"#utility.yul\":2151:2432   */\n    tag_45:\n        /* \"#utility.yul\":2234:2261   */\n      tag_89\n        /* \"#utility.yul\":2256:2260   */\n      dup3\n        /* \"#utility.yul\":2234:2261   */\n      tag_43\n      jump\t// in\n    tag_89:\n        /* \"#utility.yul\":2226:2232   */\n      dup2\n        /* \"#utility.yul\":2222:2262   */\n      add\n        /* \"#utility.yul\":2364:2370   */\n      dup2\n        /* \"#utility.yul\":2352:2362   */\n      dup2\n        /* \"#utility.yul\":2349:2371   */\n      lt\n        /* \"#utility.yul\":2328:2346   */\n      0xffffffffffffffff\n        /* \"#utility.yul\":2316:2326   */\n      dup3\n        /* \"#utility.yul\":2313:2347   */\n      gt\n        /* \"#utility.yul\":2310:2372   */\n      or\n        /* \"#utility.yul\":2307:2395   */\n      iszero\n      tag_90\n      jumpi\n        /* \"#utility.yul\":2375:2393   */\n      tag_91\n      tag_44\n      jump\t// in\n    tag_91:\n        /* \"#utility.yul\":2307:2395   */\n    tag_90:\n        /* \"#utility.yul\":2415:2425   */\n      dup1\n        /* \"#utility.yul\":2411:2413   */\n      0x40\n        /* \"#utility.yul\":2404:2426   */\n      mstore\n        /* \"#utility.yul\":2194:2432   */\n      pop\n        /* \"#utility.yul\":2151:2432   */\n      pop\n      pop\n      jump\t// out\n        /* \"#utility.yul\":2438:2567   */\n    tag_46:\n        /* \"#utility.yul\":2472:2478   */\n      0x00\n        /* \"#utility.yul\":2499:2519   */\n      tag_93\n      tag_32\n      jump\t// in\n    tag_93:\n        /* \"#utility.yul\":2489:2519   */\n      swap1\n      pop\n        /* \"#utility.yul\":2528:2561   */\n      tag_94\n        /* \"#utility.yul\":2556:2560   */\n      dup3\n        /* \"#utility.yul\":2548:2554   */\n      dup3\n        /* \"#utility.yul\":2528:2561   */\n      tag_45\n      jump\t// in\n    tag_94:\n        /* \"#utility.yul\":2438:2567   */\n      swap2\n      swap1\n      pop\n      jump\t// out\n        /* \"#utility.yul\":2573:2881   */\n    tag_47:\n        /* \"#utility.yul\":2635:2639   */\n      0x00\n        /* \"#utility.yul\":2725:2743   */\n      0xffffffffffffffff\n        /* \"#utility.yul\":2717:2723   */\n      dup3\n        /* \"#utility.yul\":2714:2744   */\n      gt\n        /* \"#utility.yul\":2711:2767   */\n      iszero\n      tag_96\n      jumpi\n        /* \"#utility.yul\":2747:2765   */\n      tag_97\n      tag_44\n      jump\t// in\n    tag_97:\n        /* \"#utility.yul\":2711:2767   */\n    tag_96:\n        /* \"#utility.yul\":2785:2814   */\n      tag_98\n        /* \"#utility.yul\":2807:2813   */\n      dup3\n        /* \"#utility.yul\":2785:2814   */\n      tag_43\n      jump\t// in\n    tag_98:\n        /* \"#utility.yul\":2777:2814   */\n      swap1\n      pop\n        /* \"#utility.yul\":2869:2873   */\n      0x20\n        /* \"#utility.yul\":2863:2867   */\n      dup2\n        /* \"#utility.yul\":2859:2874   */\n      add\n        /* \"#utility.yul\":2851:2874   */\n      swap1\n      pop\n        /* \"#utility.yul\":2573:2881   */\n      swap2\n      swap1\n      pop\n      jump\t// out\n        /* \"#utility.yul\":2887:3041   */\n    tag_48:\n        /* \"#utility.yul\":2971:2977   */\n      dup3\n        /* \"#utility.yul\":2966:2969   */\n      dup2\n        /* \"#utility.yul\":2961:2964   */\n      dup4\n        /* \"#utility.yul\":2948:2978   */\n      calldatacopy\n        /* \"#utility.yul\":3033:3034   */\n      0x00\n        /* \"#utility.yul\":3024:3030   */\n      dup4\n        /* \"#utility.yul\":3019:3022   */\n      dup4\n        /* \"#utility.yul\":3015:3031   */\n      add\n        /* \"#utility.yul\":3008:3035   */\n      mstore\n        /* \"#utility.yul\":2887:3041   */\n      pop\n      pop\n      pop\n      jump\t// out\n        /* \"#utility.yul\":3047:3459   */\n    tag_49:\n        /* \"#utility.yul\":3125:3130   */\n      0x00\n        /* \"#utility.yul\":3150:3216   */\n      tag_101\n        /* \"#utility.yul\":3166:3215   */\n      tag_102\n        /* \"#utility.yul\":3208:3214   */\n      dup5\n        /* \"#utility.yul\":3166:3215   */\n      tag_47\n      jump\t// in\n    tag_102:\n        /* \"#utility.yul\":3150:3216   */\n      tag_46\n      jump\t// in\n    tag_101:\n        /* \"#utility.yul\":3141:3216   */\n      swap1\n      pop\n        /* \"#utility.yul\":3239:3245   */\n      dup3\n        /* \"#utility.yul\":3232:3237   */\n      dup2\n        /* \"#utility.yul\":3225:3246   */\n      mstore\n        /* \"#utility.yul\":3277:3281   */\n      0x20\n        /* \"#utility.yul\":3270:3275   */\n      dup2\n        /* \"#utility.yul\":3266:3282   */\n      add\n        /* \"#utility.yul\":3315:3318   */\n      dup5\n        /* \"#utility.yul\":3306:3312   */\n      dup5\n        /* \"#utility.yul\":3301:3304   */\n      dup5\n        /* \"#utility.yul\":3297:3313   */\n      add\n        /* \"#utility.yul\":3294:3319   */\n      gt\n        /* \"#utility.yul\":3291:3403   */\n      iszero\n      tag_103\n      jumpi\n        /* \"#utility.yul\":3322:3401   */\n      tag_104\n      tag_42\n      jump\t// in\n    tag_104:\n        /* \"#utility.yul\":3291:3403   */\n    tag_103:\n        /* \"#utility.yul\":3412:3453   */\n      tag_105\n        /* \"#utility.yul\":3446:3452   */\n      dup5\n        /* \"#utility.yul\":3441:3444   */\n      dup3\n        /* \"#utility.yul\":3436:3439   */\n      dup6\n        /* \"#utility.yul\":3412:3453   */\n      tag_48\n      jump\t// in\n    tag_105:\n        /* \"#utility.yul\":3131:3459   */\n      pop\n        /* \"#utility.yul\":3047:3459   */\n      swap4\n      swap3\n      pop\n      pop\n      pop\n      jump\t// out\n        /* \"#utility.yul\":3479:3819   */\n    tag_50:\n        /* \"#utility.yul\":3535:3540   */\n      0x00\n        /* \"#utility.yul\":3584:3587   */\n      dup3\n        /* \"#utility.yul\":3577:3581   */\n      0x1f\n        /* \"#utility.yul\":3569:3575   */\n      dup4\n        /* \"#utility.yul\":3565:3582   */\n      add\n        /* \"#utility.yul\":3561:3588   */\n      slt\n        /* \"#utility.yul\":3551:3673   */\n      tag_107\n      jumpi\n        /* \"#utility.yul\":3592:3671   */\n      tag_108\n      tag_41\n      jump\t// in\n    tag_108:\n        /* \"#utility.yul\":3551:3673   */\n    tag_107:\n        /* \"#utility.yul\":3709:3715   */\n      dup2\n        /* \"#utility.yul\":3696:3716   */\n      calldataload\n        /* \"#utility.yul\":3734:3813   */\n      tag_109\n        /* \"#utility.yul\":3809:3812   */\n      dup5\n        /* \"#utility.yul\":3801:3807   */\n      dup3\n        /* \"#utility.yul\":3794:3798   */\n      0x20\n        /* \"#utility.yul\":3786:3792   */\n      dup7\n        /* \"#utility.yul\":3782:3799   */\n      add\n        /* \"#utility.yul\":3734:3813   */\n      tag_49\n      jump\t// in\n    tag_109:\n        /* \"#utility.yul\":3725:3813   */\n      swap2\n      pop\n        /* \"#utility.yul\":3541:3819   */\n      pop\n        /* \"#utility.yul\":3479:3819   */\n      swap3\n      swap2\n      pop\n      pop\n      jump\t// out\n        /* \"#utility.yul\":3825:4479   */\n    tag_14:\n        /* \"#utility.yul\":3903:3909   */\n      0x00\n        /* \"#utility.yul\":3911:3917   */\n      dup1\n        /* \"#utility.yul\":3960:3962   */\n      0x40\n        /* \"#utility.yul\":3948:3957   */\n      dup4\n        /* \"#utility.yul\":3939:3946   */\n      dup6\n        /* \"#utility.yul\":3935:3958   */\n      sub\n        /* \"#utility.yul\":3931:3963   */\n      slt\n        /* \"#utility.yul\":3928:4047   */\n      iszero\n      tag_111\n      jumpi\n        /* \"#utility.yul\":3966:4045   */\n      tag_112\n      tag_33\n      jump\t// in\n    tag_112:\n        /* \"#utility.yul\":3928:4047   */\n    tag_111:\n        /* \"#utility.yul\":4086:4087   */\n      0x00\n        /* \"#utility.yul\":4111:4164   */\n      tag_113\n        /* \"#utility.yul\":4156:4163   */\n      dup6\n        /* \"#utility.yul\":4147:4153   */\n      dup3\n        /* \"#utility.yul\":4136:4145   */\n      dup7\n        /* \"#utility.yul\":4132:4154   */\n      add\n        /* \"#utility.yul\":4111:4164   */\n      tag_37\n      jump\t// in\n    tag_113:\n        /* \"#utility.yul\":4101:4164   */\n      swap3\n      pop\n        /* \"#utility.yul\":4057:4174   */\n      pop\n        /* \"#utility.yul\":4241:4243   */\n      0x20\n        /* \"#utility.yul\":4230:4239   */\n      dup4\n        /* \"#utility.yul\":4226:4244   */\n      add\n        /* \"#utility.yul\":4213:4245   */\n      calldataload\n        /* \"#utility.yul\":4272:4290   */\n      0xffffffffffffffff\n        /* \"#utility.yul\":4264:4270   */\n      dup2\n        /* \"#utility.yul\":4261:4291   */\n      gt\n        /* \"#utility.yul\":4258:4375   */\n      iszero\n      tag_114\n      jumpi\n        /* \"#utility.yul\":4294:4373   */\n      tag_115\n      tag_34\n      jump\t// in\n    tag_115:\n        /* \"#utility.yul\":4258:4375   */\n    tag_114:\n        /* \"#utility.yul\":4399:4462   */\n      tag_116\n        /* \"#utility.yul\":4454:4461   */\n      dup6\n        /* \"#utility.yul\":4445:4451   */\n      dup3\n        /* \"#utility.yul\":4434:4443   */\n      dup7\n        /* \"#utility.yul\":4430:4452   */\n      add\n        /* \"#utility.yul\":4399:4462   */\n      tag_50\n      jump\t// in\n    tag_116:\n        /* \"#utility.yul\":4389:4462   */\n      swap2\n      pop\n        /* \"#utility.yul\":4184:4472   */\n      pop\n        /* \"#utility.yul\":3825:4479   */\n      swap3\n      pop\n      swap3\n      swap1\n      pop\n      jump\t// out\n        /* \"#utility.yul\":4485:4599   */\n    tag_51:\n        /* \"#utility.yul\":4552:4558   */\n      0x00\n        /* \"#utility.yul\":4586:4591   */\n      dup2\n        /* \"#utility.yul\":4580:4592   */\n      mload\n        /* \"#utility.yul\":4570:4592   */\n      swap1\n      pop\n        /* \"#utility.yul\":4485:4599   */\n      swap2\n      swap1\n      pop\n      jump\t// out\n        /* \"#utility.yul\":4605:4789   */\n    tag_52:\n        /* \"#utility.yul\":4704:4715   */\n      0x00\n        /* \"#utility.yul\":4738:4744   */\n      dup3\n        /* \"#utility.yul\":4733:4736   */\n      dup3\n        /* \"#utility.yul\":4726:4745   */\n      mstore\n        /* \"#utility.yul\":4778:4782   */\n      0x20\n        /* \"#utility.yul\":4773:4776   */\n      dup3\n        /* \"#utility.yul\":4769:4783   */\n      add\n        /* \"#utility.yul\":4754:4783   */\n      swap1\n      pop\n        /* \"#utility.yul\":4605:4789   */\n      swap3\n      swap2\n      pop\n      pop\n      jump\t// out\n        /* \"#utility.yul\":4795:4927   */\n    tag_53:\n        /* \"#utility.yul\":4862:4866   */\n      0x00\n        /* \"#utility.yul\":4885:4888   */\n      dup2\n        /* \"#utility.yul\":4877:4888   */\n      swap1\n      pop\n        /* \"#utility.yul\":4915:4919   */\n      0x20\n        /* \"#utility.yul\":4910:4913   */\n      dup3\n        /* \"#utility.yul\":4906:4920   */\n      add\n        /* \"#utility.yul\":4898:4920   */\n      swap1\n      pop\n        /* \"#utility.yul\":4795:4927   */\n      swap2\n      swap1\n      pop\n      jump\t// out\n        /* \"#utility.yul\":4933:5041   */\n    tag_54:\n        /* \"#utility.yul\":5010:5034   */\n      tag_121\n        /* \"#utility.yul\":5028:5033   */\n      dup2\n        /* \"#utility.yul\":5010:5034   */\n      tag_39\n      jump\t// in\n    tag_121:\n        /* \"#utility.yul\":5005:5008   */\n      dup3\n        /* \"#utility.yul\":4998:5035   */\n      mstore\n        /* \"#utility.yul\":4933:5041   */\n      pop\n      pop\n      jump\t// out\n        /* \"#utility.yul\":5047:5226   */\n    tag_55:\n        /* \"#utility.yul\":5116:5126   */\n      0x00\n        /* \"#utility.yul\":5137:5183   */\n      tag_123\n        /* \"#utility.yul\":5179:5182   */\n      dup4\n        /* \"#utility.yul\":5171:5177   */\n      dup4\n        /* \"#utility.yul\":5137:5183   */\n      tag_54\n      jump\t// in\n    tag_123:\n        /* \"#utility.yul\":5215:5219   */\n      0x20\n        /* \"#utility.yul\":5210:5213   */\n      dup4\n        /* \"#utility.yul\":5206:5220   */\n      add\n        /* \"#utility.yul\":5192:5220   */\n      swap1\n      pop\n        /* \"#utility.yul\":5047:5226   */\n      swap3\n      swap2\n      pop\n      pop\n      jump\t// out\n        /* \"#utility.yul\":5232:5345   */\n    tag_56:\n        /* \"#utility.yul\":5302:5306   */\n      0x00\n        /* \"#utility.yul\":5334:5338   */\n      0x20\n        /* \"#utility.yul\":5329:5332   */\n      dup3\n        /* \"#utility.yul\":5325:5339   */\n      add\n        /* \"#utility.yul\":5317:5339   */\n      swap1\n      pop\n        /* \"#utility.yul\":5232:5345   */\n      swap2\n      swap1\n      pop\n      jump\t// out\n        /* \"#utility.yul\":5381:6113   */\n    tag_57:\n        /* \"#utility.yul\":5500:5503   */\n      0x00\n        /* \"#utility.yul\":5529:5583   */\n      tag_126\n        /* \"#utility.yul\":5577:5582   */\n      dup3\n        /* \"#utility.yul\":5529:5583   */\n      tag_51\n      jump\t// in\n    tag_126:\n        /* \"#utility.yul\":5599:5685   */\n      tag_127\n        /* \"#utility.yul\":5678:5684   */\n      dup2\n        /* \"#utility.yul\":5673:5676   */\n      dup6\n        /* \"#utility.yul\":5599:5685   */\n      tag_52\n      jump\t// in\n    tag_127:\n        /* \"#utility.yul\":5592:5685   */\n      swap4\n      pop\n        /* \"#utility.yul\":5709:5765   */\n      tag_128\n        /* \"#utility.yul\":5759:5764   */\n      dup4\n        /* \"#utility.yul\":5709:5765   */\n      tag_53\n      jump\t// in\n    tag_128:\n        /* \"#utility.yul\":5788:5795   */\n      dup1\n        /* \"#utility.yul\":5819:5820   */\n      0x00\n        /* \"#utility.yul\":5804:6088   */\n    tag_129:\n        /* \"#utility.yul\":5829:5835   */\n      dup4\n        /* \"#utility.yul\":5826:5827   */\n      dup2\n        /* \"#utility.yul\":5823:5836   */\n      lt\n        /* \"#utility.yul\":5804:6088   */\n      iszero\n      tag_131\n      jumpi\n        /* \"#utility.yul\":5905:5911   */\n      dup2\n        /* \"#utility.yul\":5899:5912   */\n      mload\n        /* \"#utility.yul\":5932:5995   */\n      tag_132\n        /* \"#utility.yul\":5991:5994   */\n      dup9\n        /* \"#utility.yul\":5976:5989   */\n      dup3\n        /* \"#utility.yul\":5932:5995   */\n      tag_55\n      jump\t// in\n    tag_132:\n        /* \"#utility.yul\":5925:5995   */\n      swap8\n      pop\n        /* \"#utility.yul\":6018:6078   */\n      tag_133\n        /* \"#utility.yul\":6071:6077   */\n      dup4\n        /* \"#utility.yul\":6018:6078   */\n      tag_56\n      jump\t// in\n    tag_133:\n        /* \"#utility.yul\":6008:6078   */\n      swap3\n      pop\n        /* \"#utility.yul\":5864:6088   */\n      pop\n        /* \"#utility.yul\":5851:5852   */\n      0x01\n        /* \"#utility.yul\":5848:5849   */\n      dup2\n        /* \"#utility.yul\":5844:5853   */\n      add\n        /* \"#utility.yul\":5839:5853   */\n      swap1\n      pop\n        /* \"#utility.yul\":5804:6088   */\n      jump(tag_129)\n    tag_131:\n        /* \"#utility.yul\":5808:5822   */\n      pop\n        /* \"#utility.yul\":6104:6107   */\n      dup6\n        /* \"#utility.yul\":6097:6107   */\n      swap4\n      pop\n        /* \"#utility.yul\":5505:6113   */\n      pop\n      pop\n      pop\n        /* \"#utility.yul\":5381:6113   */\n      swap3\n      swap2\n      pop\n      pop\n      jump\t// out\n        /* \"#utility.yul\":6119:6492   */\n    tag_19:\n        /* \"#utility.yul\":6262:6266   */\n      0x00\n        /* \"#utility.yul\":6300:6302   */\n      0x20\n        /* \"#utility.yul\":6289:6298   */\n      dup3\n        /* \"#utility.yul\":6285:6303   */\n      add\n        /* \"#utility.yul\":6277:6303   */\n      swap1\n      pop\n        /* \"#utility.yul\":6349:6358   */\n      dup2\n        /* \"#utility.yul\":6343:6347   */\n      dup2\n        /* \"#utility.yul\":6339:6359   */\n      sub\n        /* \"#utility.yul\":6335:6336   */\n      0x00\n        /* \"#utility.yul\":6324:6333   */\n      dup4\n        /* \"#utility.yul\":6320:6337   */\n      add\n        /* \"#utility.yul\":6313:6360   */\n      mstore\n        /* \"#utility.yul\":6377:6485   */\n      tag_135\n        /* \"#utility.yul\":6480:6484   */\n      dup2\n        /* \"#utility.yul\":6471:6477   */\n      dup5\n        /* \"#utility.yul\":6377:6485   */\n      tag_57\n      jump\t// in\n    tag_135:\n        /* \"#utility.yul\":6369:6485   */\n      swap1\n      pop\n        /* \"#utility.yul\":6119:6492   */\n      swap3\n      swap2\n      pop\n      pop\n      jump\t// out\n        /* \"#utility.yul\":6498:6616   */\n    tag_58:\n        /* \"#utility.yul\":6585:6609   */\n      tag_137\n        /* \"#utility.yul\":6603:6608   */\n      dup2\n        /* \"#utility.yul\":6585:6609   */\n      tag_35\n      jump\t// in\n    tag_137:\n        /* \"#utility.yul\":6580:6583   */\n      dup3\n        /* \"#utility.yul\":6573:6610   */\n      mstore\n        /* \"#utility.yul\":6498:6616   */\n      pop\n      pop\n      jump\t// out\n        /* \"#utility.yul\":6622:6721   */\n    tag_59:\n        /* \"#utility.yul\":6674:6680   */\n      0x00\n        /* \"#utility.yul\":6708:6713   */\n      dup2\n        /* \"#utility.yul\":6702:6714   */\n      mload\n        /* \"#utility.yul\":6692:6714   */\n      swap1\n      pop\n        /* \"#utility.yul\":6622:6721   */\n      swap2\n      swap1\n      pop\n      jump\t// out\n        /* \"#utility.yul\":6727:6896   */\n    tag_60:\n        /* \"#utility.yul\":6811:6822   */\n      0x00\n        /* \"#utility.yul\":6845:6851   */\n      dup3\n        /* \"#utility.yul\":6840:6843   */\n      dup3\n        /* \"#utility.yul\":6833:6852   */\n      mstore\n        /* \"#utility.yul\":6885:6889   */\n      0x20\n        /* \"#utility.yul\":6880:6883   */\n      dup3\n        /* \"#utility.yul\":6876:6890   */\n      add\n        /* \"#utility.yul\":6861:6890   */\n      swap1\n      pop\n        /* \"#utility.yul\":6727:6896   */\n      swap3\n      swap2\n      pop\n      pop\n      jump\t// out\n        /* \"#utility.yul\":6902:7209   */\n    tag_61:\n        /* \"#utility.yul\":6970:6971   */\n      0x00\n        /* \"#utility.yul\":6980:7093   */\n    tag_141:\n        /* \"#utility.yul\":6994:7000   */\n      dup4\n        /* \"#utility.yul\":6991:6992   */\n      dup2\n        /* \"#utility.yul\":6988:7001   */\n      lt\n        /* \"#utility.yul\":6980:7093   */\n      iszero\n      tag_143\n      jumpi\n        /* \"#utility.yul\":7079:7080   */\n      dup1\n        /* \"#utility.yul\":7074:7077   */\n      dup3\n        /* \"#utility.yul\":7070:7081   */\n      add\n        /* \"#utility.yul\":7064:7082   */\n      mload\n        /* \"#utility.yul\":7060:7061   */\n      dup2\n        /* \"#utility.yul\":7055:7058   */\n      dup5\n        /* \"#utility.yul\":7051:7062   */\n      add\n        /* \"#utility.yul\":7044:7083   */\n      mstore\n        /* \"#utility.yul\":7016:7018   */\n      0x20\n        /* \"#utility.yul\":7013:7014   */\n      dup2\n        /* \"#utility.yul\":7009:7019   */\n      add\n        /* \"#utility.yul\":7004:7019   */\n      swap1\n      pop\n        /* \"#utility.yul\":6980:7093   */\n      jump(tag_141)\n    tag_143:\n        /* \"#utility.yul\":7111:7117   */\n      dup4\n        /* \"#utility.yul\":7108:7109   */\n      dup2\n        /* \"#utility.yul\":7105:7118   */\n      gt\n        /* \"#utility.yul\":7102:7203   */\n      iszero\n      tag_144\n      jumpi\n        /* \"#utility.yul\":7191:7192   */\n      0x00\n        /* \"#utility.yul\":7182:7188   */\n      dup5\n        /* \"#utility.yul\":7177:7180   */\n      dup5\n        /* \"#utility.yul\":7173:7189   */\n      add\n        /* \"#utility.yul\":7166:7193   */\n      mstore\n        /* \"#utility.yul\":7102:7203   */\n    tag_144:\n        /* \"#utility.yul\":6951:7209   */\n      pop\n        /* \"#utility.yul\":6902:7209   */\n      pop\n      pop\n      pop\n      jump\t// out\n        /* \"#utility.yul\":7215:7579   */\n    tag_62:\n        /* \"#utility.yul\":7303:7306   */\n      0x00\n        /* \"#utility.yul\":7331:7370   */\n      tag_146\n        /* \"#utility.yul\":7364:7369   */\n      dup3\n        /* \"#utility.yul\":7331:7370   */\n      tag_59\n      jump\t// in\n    tag_146:\n        /* \"#utility.yul\":7386:7457   */\n      tag_147\n        /* \"#utility.yul\":7450:7456   */\n      dup2\n        /* \"#utility.yul\":7445:7448   */\n      dup6\n        /* \"#utility.yul\":7386:7457   */\n      tag_60\n      jump\t// in\n    tag_147:\n        /* \"#utility.yul\":7379:7457   */\n      swap4\n      pop\n        /* \"#utility.yul\":7466:7518   */\n      tag_148\n        /* \"#utility.yul\":7511:7517   */\n      dup2\n        /* \"#utility.yul\":7506:7509   */\n      dup6\n        /* \"#utility.yul\":7499:7503   */\n      0x20\n        /* \"#utility.yul\":7492:7497   */\n      dup7\n        /* \"#utility.yul\":7488:7504   */\n      add\n        /* \"#utility.yul\":7466:7518   */\n      tag_61\n      jump\t// in\n    tag_148:\n        /* \"#utility.yul\":7543:7572   */\n      tag_149\n        /* \"#utility.yul\":7565:7571   */\n      dup2\n        /* \"#utility.yul\":7543:7572   */\n      tag_43\n      jump\t// in\n    tag_149:\n        /* \"#utility.yul\":7538:7541   */\n      dup5\n        /* \"#utility.yul\":7534:7573   */\n      add\n        /* \"#utility.yul\":7527:7573   */\n      swap2\n      pop\n        /* \"#utility.yul\":7307:7579   */\n      pop\n        /* \"#utility.yul\":7215:7579   */\n      swap3\n      swap2\n      pop\n      pop\n      jump\t// out\n        /* \"#utility.yul\":7585:8118   */\n    tag_26:\n        /* \"#utility.yul\":7754:7758   */\n      0x00\n        /* \"#utility.yul\":7792:7794   */\n      0x60\n        /* \"#utility.yul\":7781:7790   */\n      dup3\n        /* \"#utility.yul\":7777:7795   */\n      add\n        /* \"#utility.yul\":7769:7795   */\n      swap1\n      pop\n        /* \"#utility.yul\":7805:7876   */\n      tag_151\n        /* \"#utility.yul\":7873:7874   */\n      0x00\n        /* \"#utility.yul\":7862:7871   */\n      dup4\n        /* \"#utility.yul\":7858:7875   */\n      add\n        /* \"#utility.yul\":7849:7855   */\n      dup7\n        /* \"#utility.yul\":7805:7876   */\n      tag_58\n      jump\t// in\n    tag_151:\n        /* \"#utility.yul\":7923:7932   */\n      dup2\n        /* \"#utility.yul\":7917:7921   */\n      dup2\n        /* \"#utility.yul\":7913:7933   */\n      sub\n        /* \"#utility.yul\":7908:7910   */\n      0x20\n        /* \"#utility.yul\":7897:7906   */\n      dup4\n        /* \"#utility.yul\":7893:7911   */\n      add\n        /* \"#utility.yul\":7886:7934   */\n      mstore\n        /* \"#utility.yul\":7951:8029   */\n      tag_152\n        /* \"#utility.yul\":8024:8028   */\n      dup2\n        /* \"#utility.yul\":8015:8021   */\n      dup6\n        /* \"#utility.yul\":7951:8029   */\n      tag_62\n      jump\t// in\n    tag_152:\n        /* \"#utility.yul\":7943:8029   */\n      swap1\n      pop\n        /* \"#utility.yul\":8039:8111   */\n      tag_153\n        /* \"#utility.yul\":8107:8109   */\n      0x40\n        /* \"#utility.yul\":8096:8105   */\n      dup4\n        /* \"#utility.yul\":8092:8110   */\n      add\n        /* \"#utility.yul\":8083:8089   */\n      dup5\n        /* \"#utility.yul\":8039:8111   */\n      tag_40\n      jump\t// in\n    tag_153:\n        /* \"#utility.yul\":7585:8118   */\n      swap5\n      swap4\n      pop\n      pop\n      pop\n      pop\n      jump\t// out\n    stop\n\n    sub_0: assembly {\n            /* \"campaign\":470:2906  contract Campaign {... */\n          mstore(0x40, 0x80)\n            /* \"campaign\":965:1133  constructor(uint minimum, string memory desc, address creator) {... */\n          callvalue\n          dup1\n          iszero\n          tag_1\n          jumpi\n          0x00\n          dup1\n          revert\n        tag_1:\n          pop\n          mload(0x40)\n          sub(codesize, bytecodeSize)\n          dup1\n          bytecodeSize\n          dup4\n          codecopy\n          dup2\n          dup2\n          add\n          0x40\n          mstore\n          dup2\n          add\n          swap1\n          tag_2\n          swap2\n          swap1\n          tag_3\n          jump\t// in\n        tag_2:\n            /* \"campaign\":1049:1056  creator */\n          dup1\n            /* \"campaign\":1039:1046  manager */\n          0x00\n          dup1\n            /* \"campaign\":1039:1056  manager = creator */\n          0x0100\n          exp\n          dup2\n          sload\n          dup2\n          0xffffffffffffffffffffffffffffffffffffffff\n          mul\n          not\n          and\n          swap1\n          dup4\n          0xffffffffffffffffffffffffffffffffffffffff\n          and\n          mul\n          or\n          swap1\n          sstore\n          pop\n            /* \"campaign\":1089:1096  minimum */\n          dup3\n            /* \"campaign\":1067:1086  minimumContribution */\n          0x02\n            /* \"campaign\":1067:1096  minimumContribution = minimum */\n          dup2\n          swap1\n          sstore\n          pop\n            /* \"campaign\":1121:1125  desc */\n          dup2\n            /* \"campaign\":1107:1118  description */\n          0x03\n            /* \"campaign\":1107:1125  description = desc */\n          swap1\n          dup1\n          mload\n          swap1\n          0x20\n          add\n          swap1\n          tag_6\n          swap3\n          swap2\n          swap1\n          tag_7\n          jump\t// in\n        tag_6:\n          pop\n            /* \"campaign\":965:1133  constructor(uint minimum, string memory desc, address creator) {... */\n          pop\n          pop\n          pop\n            /* \"campaign\":470:2906  contract Campaign {... */\n          jump(tag_8)\n        tag_7:\n          dup3\n          dup1\n          sload\n          tag_9\n          swap1\n          tag_10\n          jump\t// in\n        tag_9:\n          swap1\n          0x00\n          mstore\n          keccak256(0x00, 0x20)\n          swap1\n          0x1f\n          add\n          0x20\n          swap1\n          div\n          dup2\n          add\n          swap3\n          dup3\n          tag_12\n          jumpi\n          0x00\n          dup6\n          sstore\n          jump(tag_11)\n        tag_12:\n          dup3\n          0x1f\n          lt\n          tag_13\n          jumpi\n          dup1\n          mload\n          not(0xff)\n          and\n          dup4\n          dup1\n          add\n          or\n          dup6\n          sstore\n          jump(tag_11)\n        tag_13:\n          dup3\n          dup1\n          add\n          0x01\n          add\n          dup6\n          sstore\n          dup3\n          iszero\n          tag_11\n          jumpi\n          swap2\n          dup3\n          add\n        tag_14:\n          dup3\n          dup2\n          gt\n          iszero\n          tag_15\n          jumpi\n          dup3\n          mload\n          dup3\n          sstore\n          swap2\n          0x20\n          add\n          swap2\n          swap1\n          0x01\n          add\n          swap1\n          jump(tag_14)\n        tag_15:\n        tag_11:\n          pop\n          swap1\n          pop\n          tag_16\n          swap2\n          swap1\n          tag_17\n          jump\t// in\n        tag_16:\n          pop\n          swap1\n          jump\t// out\n        tag_17:\n        tag_18:\n          dup1\n          dup3\n          gt\n          iszero\n          tag_19\n          jumpi\n          0x00\n          dup2\n          0x00\n          swap1\n          sstore\n          pop\n          0x01\n          add\n          jump(tag_18)\n        tag_19:\n          pop\n          swap1\n          jump\t// out\n            /* \"#utility.yul\":7:82   */\n        tag_20:\n            /* \"#utility.yul\":40:46   */\n          0x00\n            /* \"#utility.yul\":73:75   */\n          0x40\n            /* \"#utility.yul\":67:76   */\n          mload\n            /* \"#utility.yul\":57:76   */\n          swap1\n          pop\n            /* \"#utility.yul\":7:82   */\n          swap1\n          jump\t// out\n            /* \"#utility.yul\":88:205   */\n        tag_21:\n            /* \"#utility.yul\":197:198   */\n          0x00\n            /* \"#utility.yul\":194:195   */\n          dup1\n            /* \"#utility.yul\":187:199   */\n          revert\n            /* \"#utility.yul\":211:328   */\n        tag_22:\n            /* \"#utility.yul\":320:321   */\n          0x00\n            /* \"#utility.yul\":317:318   */\n          dup1\n            /* \"#utility.yul\":310:322   */\n          revert\n            /* \"#utility.yul\":334:411   */\n        tag_23:\n            /* \"#utility.yul\":371:378   */\n          0x00\n            /* \"#utility.yul\":400:405   */\n          dup2\n            /* \"#utility.yul\":389:405   */\n          swap1\n          pop\n            /* \"#utility.yul\":334:411   */\n          swap2\n          swap1\n          pop\n          jump\t// out\n            /* \"#utility.yul\":417:539   */\n        tag_24:\n            /* \"#utility.yul\":490:514   */\n          tag_47\n            /* \"#utility.yul\":508:513   */\n          dup2\n            /* \"#utility.yul\":490:514   */\n          tag_23\n          jump\t// in\n        tag_47:\n            /* \"#utility.yul\":483:488   */\n          dup2\n            /* \"#utility.yul\":480:515   */\n          eq\n            /* \"#utility.yul\":470:533   */\n          tag_48\n          jumpi\n            /* \"#utility.yul\":529:530   */\n          0x00\n            /* \"#utility.yul\":526:527   */\n          dup1\n            /* \"#utility.yul\":519:531   */\n          revert\n            /* \"#utility.yul\":470:533   */\n        tag_48:\n            /* \"#utility.yul\":417:539   */\n          pop\n          jump\t// out\n            /* \"#utility.yul\":545:688   */\n        tag_25:\n            /* \"#utility.yul\":602:607   */\n          0x00\n            /* \"#utility.yul\":633:639   */\n          dup2\n            /* \"#utility.yul\":627:640   */\n          mload\n            /* \"#utility.yul\":618:640   */\n          swap1\n          pop\n            /* \"#utility.yul\":649:682   */\n          tag_50\n            /* \"#utility.yul\":676:681   */\n          dup2\n            /* \"#utility.yul\":649:682   */\n          tag_24\n          jump\t// in\n        tag_50:\n            /* \"#utility.yul\":545:688   */\n          swap3\n          swap2\n          pop\n          pop\n          jump\t// out\n            /* \"#utility.yul\":694:811   */\n        tag_26:\n            /* \"#utility.yul\":803:804   */\n          0x00\n            /* \"#utility.yul\":800:801   */\n          dup1\n            /* \"#utility.yul\":793:805   */\n          revert\n            /* \"#utility.yul\":817:934   */\n        tag_27:\n            /* \"#utility.yul\":926:927   */\n          0x00\n            /* \"#utility.yul\":923:924   */\n          dup1\n            /* \"#utility.yul\":916:928   */\n          revert\n            /* \"#utility.yul\":940:1042   */\n        tag_28:\n            /* \"#utility.yul\":981:987   */\n          0x00\n            /* \"#utility.yul\":1032:1034   */\n          0x1f\n            /* \"#utility.yul\":1028:1035   */\n          not\n            /* \"#utility.yul\":1023:1025   */\n          0x1f\n            /* \"#utility.yul\":1016:1021   */\n          dup4\n            /* \"#utility.yul\":1012:1026   */\n          add\n            /* \"#utility.yul\":1008:1036   */\n          and\n            /* \"#utility.yul\":998:1036   */\n          swap1\n          pop\n            /* \"#utility.yul\":940:1042   */\n          swap2\n          swap1\n          pop\n          jump\t// out\n            /* \"#utility.yul\":1048:1228   */\n        tag_29:\n            /* \"#utility.yul\":1096:1173   */\n          0x4e487b7100000000000000000000000000000000000000000000000000000000\n            /* \"#utility.yul\":1093:1094   */\n          0x00\n            /* \"#utility.yul\":1086:1174   */\n          mstore\n            /* \"#utility.yul\":1193:1197   */\n          0x41\n            /* \"#utility.yul\":1190:1191   */\n          0x04\n            /* \"#utility.yul\":1183:1198   */\n          mstore\n            /* \"#utility.yul\":1217:1221   */\n          0x24\n            /* \"#utility.yul\":1214:1215   */\n          0x00\n            /* \"#utility.yul\":1207:1222   */\n          revert\n            /* \"#utility.yul\":1234:1515   */\n        tag_30:\n            /* \"#utility.yul\":1317:1344   */\n          tag_56\n            /* \"#utility.yul\":1339:1343   */\n          dup3\n            /* \"#utility.yul\":1317:1344   */\n          tag_28\n          jump\t// in\n        tag_56:\n            /* \"#utility.yul\":1309:1315   */\n          dup2\n            /* \"#utility.yul\":1305:1345   */\n          add\n            /* \"#utility.yul\":1447:1453   */\n          dup2\n            /* \"#utility.yul\":1435:1445   */\n          dup2\n            /* \"#utility.yul\":1432:1454   */\n          lt\n            /* \"#utility.yul\":1411:1429   */\n          0xffffffffffffffff\n            /* \"#utility.yul\":1399:1409   */\n          dup3\n            /* \"#utility.yul\":1396:1430   */\n          gt\n            /* \"#utility.yul\":1393:1455   */\n          or\n            /* \"#utility.yul\":1390:1478   */\n          iszero\n          tag_57\n          jumpi\n            /* \"#utility.yul\":1458:1476   */\n          tag_58\n          tag_29\n          jump\t// in\n        tag_58:\n            /* \"#utility.yul\":1390:1478   */\n        tag_57:\n            /* \"#utility.yul\":1498:1508   */\n          dup1\n            /* \"#utility.yul\":1494:1496   */\n          0x40\n            /* \"#utility.yul\":1487:1509   */\n          mstore\n            /* \"#utility.yul\":1277:1515   */\n          pop\n            /* \"#utility.yul\":1234:1515   */\n          pop\n          pop\n          jump\t// out\n            /* \"#utility.yul\":1521:1650   */\n        tag_31:\n            /* \"#utility.yul\":1555:1561   */\n          0x00\n            /* \"#utility.yul\":1582:1602   */\n          tag_60\n          tag_20\n          jump\t// in\n        tag_60:\n            /* \"#utility.yul\":1572:1602   */\n          swap1\n          pop\n            /* \"#utility.yul\":1611:1644   */\n          tag_61\n            /* \"#utility.yul\":1639:1643   */\n          dup3\n            /* \"#utility.yul\":1631:1637   */\n          dup3\n            /* \"#utility.yul\":1611:1644   */\n          tag_30\n          jump\t// in\n        tag_61:\n            /* \"#utility.yul\":1521:1650   */\n          swap2\n          swap1\n          pop\n          jump\t// out\n            /* \"#utility.yul\":1656:1964   */\n        tag_32:\n            /* \"#utility.yul\":1718:1722   */\n          0x00\n            /* \"#utility.yul\":1808:1826   */\n          0xffffffffffffffff\n            /* \"#utility.yul\":1800:1806   */\n          dup3\n            /* \"#utility.yul\":1797:1827   */\n          gt\n            /* \"#utility.yul\":1794:1850   */\n          iszero\n          tag_63\n          jumpi\n            /* \"#utility.yul\":1830:1848   */\n          tag_64\n          tag_29\n          jump\t// in\n        tag_64:\n            /* \"#utility.yul\":1794:1850   */\n        tag_63:\n            /* \"#utility.yul\":1868:1897   */\n          tag_65\n            /* \"#utility.yul\":1890:1896   */\n          dup3\n            /* \"#utility.yul\":1868:1897   */\n          tag_28\n          jump\t// in\n        tag_65:\n            /* \"#utility.yul\":1860:1897   */\n          swap1\n          pop\n            /* \"#utility.yul\":1952:1956   */\n          0x20\n            /* \"#utility.yul\":1946:1950   */\n          dup2\n            /* \"#utility.yul\":1942:1957   */\n          add\n            /* \"#utility.yul\":1934:1957   */\n          swap1\n          pop\n            /* \"#utility.yul\":1656:1964   */\n          swap2\n          swap1\n          pop\n          jump\t// out\n            /* \"#utility.yul\":1970:2277   */\n        tag_33:\n            /* \"#utility.yul\":2038:2039   */\n          0x00\n            /* \"#utility.yul\":2048:2161   */\n        tag_67:\n            /* \"#utility.yul\":2062:2068   */\n          dup4\n            /* \"#utility.yul\":2059:2060   */\n          dup2\n            /* \"#utility.yul\":2056:2069   */\n          lt\n            /* \"#utility.yul\":2048:2161   */\n          iszero\n          tag_69\n          jumpi\n            /* \"#utility.yul\":2147:2148   */\n          dup1\n            /* \"#utility.yul\":2142:2145   */\n          dup3\n            /* \"#utility.yul\":2138:2149   */\n          add\n            /* \"#utility.yul\":2132:2150   */\n          mload\n            /* \"#utility.yul\":2128:2129   */\n          dup2\n            /* \"#utility.yul\":2123:2126   */\n          dup5\n            /* \"#utility.yul\":2119:2130   */\n          add\n            /* \"#utility.yul\":2112:2151   */\n          mstore\n            /* \"#utility.yul\":2084:2086   */\n          0x20\n            /* \"#utility.yul\":2081:2082   */\n          dup2\n            /* \"#utility.yul\":2077:2087   */\n          add\n            /* \"#utility.yul\":2072:2087   */\n          swap1\n          pop\n            /* \"#utility.yul\":2048:2161   */\n          jump(tag_67)\n        tag_69:\n            /* \"#utility.yul\":2179:2185   */\n          dup4\n            /* \"#utility.yul\":2176:2177   */\n          dup2\n            /* \"#utility.yul\":2173:2186   */\n          gt\n            /* \"#utility.yul\":2170:2271   */\n          iszero\n          tag_70\n          jumpi\n            /* \"#utility.yul\":2259:2260   */\n          0x00\n            /* \"#utility.yul\":2250:2256   */\n          dup5\n            /* \"#utility.yul\":2245:2248   */\n          dup5\n            /* \"#utility.yul\":2241:2257   */\n          add\n            /* \"#utility.yul\":2234:2261   */\n          mstore\n            /* \"#utility.yul\":2170:2271   */\n        tag_70:\n            /* \"#utility.yul\":2019:2277   */\n          pop\n            /* \"#utility.yul\":1970:2277   */\n          pop\n          pop\n          pop\n          jump\t// out\n            /* \"#utility.yul\":2283:2704   */\n        tag_34:\n            /* \"#utility.yul\":2372:2377   */\n          0x00\n            /* \"#utility.yul\":2397:2463   */\n          tag_72\n            /* \"#utility.yul\":2413:2462   */\n          tag_73\n            /* \"#utility.yul\":2455:2461   */\n          dup5\n            /* \"#utility.yul\":2413:2462   */\n          tag_32\n          jump\t// in\n        tag_73:\n            /* \"#utility.yul\":2397:2463   */\n          tag_31\n          jump\t// in\n        tag_72:\n            /* \"#utility.yul\":2388:2463   */\n          swap1\n          pop\n            /* \"#utility.yul\":2486:2492   */\n          dup3\n            /* \"#utility.yul\":2479:2484   */\n          dup2\n            /* \"#utility.yul\":2472:2493   */\n          mstore\n            /* \"#utility.yul\":2524:2528   */\n          0x20\n            /* \"#utility.yul\":2517:2522   */\n          dup2\n            /* \"#utility.yul\":2513:2529   */\n          add\n            /* \"#utility.yul\":2562:2565   */\n          dup5\n            /* \"#utility.yul\":2553:2559   */\n          dup5\n            /* \"#utility.yul\":2548:2551   */\n          dup5\n            /* \"#utility.yul\":2544:2560   */\n          add\n            /* \"#utility.yul\":2541:2566   */\n          gt\n            /* \"#utility.yul\":2538:2650   */\n          iszero\n          tag_74\n          jumpi\n            /* \"#utility.yul\":2569:2648   */\n          tag_75\n          tag_27\n          jump\t// in\n        tag_75:\n            /* \"#utility.yul\":2538:2650   */\n        tag_74:\n            /* \"#utility.yul\":2659:2698   */\n          tag_76\n            /* \"#utility.yul\":2691:2697   */\n          dup5\n            /* \"#utility.yul\":2686:2689   */\n          dup3\n            /* \"#utility.yul\":2681:2684   */\n          dup6\n            /* \"#utility.yul\":2659:2698   */\n          tag_33\n          jump\t// in\n        tag_76:\n            /* \"#utility.yul\":2378:2704   */\n          pop\n            /* \"#utility.yul\":2283:2704   */\n          swap4\n          swap3\n          pop\n          pop\n          pop\n          jump\t// out\n            /* \"#utility.yul\":2724:3079   */\n        tag_35:\n            /* \"#utility.yul\":2791:2796   */\n          0x00\n            /* \"#utility.yul\":2840:2843   */\n          dup3\n            /* \"#utility.yul\":2833:2837   */\n          0x1f\n            /* \"#utility.yul\":2825:2831   */\n          dup4\n            /* \"#utility.yul\":2821:2838   */\n          add\n            /* \"#utility.yul\":2817:2844   */\n          slt\n            /* \"#utility.yul\":2807:2929   */\n          tag_78\n          jumpi\n            /* \"#utility.yul\":2848:2927   */\n          tag_79\n          tag_26\n          jump\t// in\n        tag_79:\n            /* \"#utility.yul\":2807:2929   */\n        tag_78:\n            /* \"#utility.yul\":2958:2964   */\n          dup2\n            /* \"#utility.yul\":2952:2965   */\n          mload\n            /* \"#utility.yul\":2983:3073   */\n          tag_80\n            /* \"#utility.yul\":3069:3072   */\n          dup5\n            /* \"#utility.yul\":3061:3067   */\n          dup3\n            /* \"#utility.yul\":3054:3058   */\n          0x20\n            /* \"#utility.yul\":3046:3052   */\n          dup7\n            /* \"#utility.yul\":3042:3059   */\n          add\n            /* \"#utility.yul\":2983:3073   */\n          tag_34\n          jump\t// in\n        tag_80:\n            /* \"#utility.yul\":2974:3073   */\n          swap2\n          pop\n            /* \"#utility.yul\":2797:3079   */\n          pop\n            /* \"#utility.yul\":2724:3079   */\n          swap3\n          swap2\n          pop\n          pop\n          jump\t// out\n            /* \"#utility.yul\":3085:3211   */\n        tag_36:\n            /* \"#utility.yul\":3122:3129   */\n          0x00\n            /* \"#utility.yul\":3162:3204   */\n          0xffffffffffffffffffffffffffffffffffffffff\n            /* \"#utility.yul\":3155:3160   */\n          dup3\n            /* \"#utility.yul\":3151:3205   */\n          and\n            /* \"#utility.yul\":3140:3205   */\n          swap1\n          pop\n            /* \"#utility.yul\":3085:3211   */\n          swap2\n          swap1\n          pop\n          jump\t// out\n            /* \"#utility.yul\":3217:3313   */\n        tag_37:\n            /* \"#utility.yul\":3254:3261   */\n          0x00\n            /* \"#utility.yul\":3283:3307   */\n          tag_83\n            /* \"#utility.yul\":3301:3306   */\n          dup3\n            /* \"#utility.yul\":3283:3307   */\n          tag_36\n          jump\t// in\n        tag_83:\n            /* \"#utility.yul\":3272:3307   */\n          swap1\n          pop\n            /* \"#utility.yul\":3217:3313   */\n          swap2\n          swap1\n          pop\n          jump\t// out\n            /* \"#utility.yul\":3319:3441   */\n        tag_38:\n            /* \"#utility.yul\":3392:3416   */\n          tag_85\n            /* \"#utility.yul\":3410:3415   */\n          dup2\n            /* \"#utility.yul\":3392:3416   */\n          tag_37\n          jump\t// in\n        tag_85:\n            /* \"#utility.yul\":3385:3390   */\n          dup2\n            /* \"#utility.yul\":3382:3417   */\n          eq\n            /* \"#utility.yul\":3372:3435   */\n          tag_86\n          jumpi\n            /* \"#utility.yul\":3431:3432   */\n          0x00\n            /* \"#utility.yul\":3428:3429   */\n          dup1\n            /* \"#utility.yul\":3421:3433   */\n          revert\n            /* \"#utility.yul\":3372:3435   */\n        tag_86:\n            /* \"#utility.yul\":3319:3441   */\n          pop\n          jump\t// out\n            /* \"#utility.yul\":3447:3590   */\n        tag_39:\n            /* \"#utility.yul\":3504:3509   */\n          0x00\n            /* \"#utility.yul\":3535:3541   */\n          dup2\n            /* \"#utility.yul\":3529:3542   */\n          mload\n            /* \"#utility.yul\":3520:3542   */\n          swap1\n          pop\n            /* \"#utility.yul\":3551:3584   */\n          tag_88\n            /* \"#utility.yul\":3578:3583   */\n          dup2\n            /* \"#utility.yul\":3551:3584   */\n          tag_38\n          jump\t// in\n        tag_88:\n            /* \"#utility.yul\":3447:3590   */\n          swap3\n          swap2\n          pop\n          pop\n          jump\t// out\n            /* \"#utility.yul\":3596:4432   */\n        tag_3:\n            /* \"#utility.yul\":3694:3700   */\n          0x00\n            /* \"#utility.yul\":3702:3708   */\n          dup1\n            /* \"#utility.yul\":3710:3716   */\n          0x00\n            /* \"#utility.yul\":3759:3761   */\n          0x60\n            /* \"#utility.yul\":3747:3756   */\n          dup5\n            /* \"#utility.yul\":3738:3745   */\n          dup7\n            /* \"#utility.yul\":3734:3757   */\n          sub\n            /* \"#utility.yul\":3730:3762   */\n          slt\n            /* \"#utility.yul\":3727:3846   */\n          iszero\n          tag_90\n          jumpi\n            /* \"#utility.yul\":3765:3844   */\n          tag_91\n          tag_21\n          jump\t// in\n        tag_91:\n            /* \"#utility.yul\":3727:3846   */\n        tag_90:\n            /* \"#utility.yul\":3885:3886   */\n          0x00\n            /* \"#utility.yul\":3910:3974   */\n          tag_92\n            /* \"#utility.yul\":3966:3973   */\n          dup7\n            /* \"#utility.yul\":3957:3963   */\n          dup3\n            /* \"#utility.yul\":3946:3955   */\n          dup8\n            /* \"#utility.yul\":3942:3964   */\n          add\n            /* \"#utility.yul\":3910:3974   */\n          tag_25\n          jump\t// in\n        tag_92:\n            /* \"#utility.yul\":3900:3974   */\n          swap4\n          pop\n            /* \"#utility.yul\":3856:3984   */\n          pop\n            /* \"#utility.yul\":4044:4046   */\n          0x20\n            /* \"#utility.yul\":4033:4042   */\n          dup5\n            /* \"#utility.yul\":4029:4047   */\n          add\n            /* \"#utility.yul\":4023:4048   */\n          mload\n            /* \"#utility.yul\":4075:4093   */\n          0xffffffffffffffff\n            /* \"#utility.yul\":4067:4073   */\n          dup2\n            /* \"#utility.yul\":4064:4094   */\n          gt\n            /* \"#utility.yul\":4061:4178   */\n          iszero\n          tag_93\n          jumpi\n            /* \"#utility.yul\":4097:4176   */\n          tag_94\n          tag_22\n          jump\t// in\n        tag_94:\n            /* \"#utility.yul\":4061:4178   */\n        tag_93:\n            /* \"#utility.yul\":4202:4276   */\n          tag_95\n            /* \"#utility.yul\":4268:4275   */\n          dup7\n            /* \"#utility.yul\":4259:4265   */\n          dup3\n            /* \"#utility.yul\":4248:4257   */\n          dup8\n            /* \"#utility.yul\":4244:4266   */\n          add\n            /* \"#utility.yul\":4202:4276   */\n          tag_35\n          jump\t// in\n        tag_95:\n            /* \"#utility.yul\":4192:4276   */\n          swap3\n          pop\n            /* \"#utility.yul\":3994:4286   */\n          pop\n            /* \"#utility.yul\":4325:4327   */\n          0x40\n            /* \"#utility.yul\":4351:4415   */\n          tag_96\n            /* \"#utility.yul\":4407:4414   */\n          dup7\n            /* \"#utility.yul\":4398:4404   */\n          dup3\n            /* \"#utility.yul\":4387:4396   */\n          dup8\n            /* \"#utility.yul\":4383:4405   */\n          add\n            /* \"#utility.yul\":4351:4415   */\n          tag_39\n          jump\t// in\n        tag_96:\n            /* \"#utility.yul\":4341:4415   */\n          swap2\n          pop\n            /* \"#utility.yul\":4296:4425   */\n          pop\n            /* \"#utility.yul\":3596:4432   */\n          swap3\n          pop\n          swap3\n          pop\n          swap3\n          jump\t// out\n            /* \"#utility.yul\":4438:4618   */\n        tag_40:\n            /* \"#utility.yul\":4486:4563   */\n          0x4e487b7100000000000000000000000000000000000000000000000000000000\n            /* \"#utility.yul\":4483:4484   */\n          0x00\n            /* \"#utility.yul\":4476:4564   */\n          mstore\n            /* \"#utility.yul\":4583:4587   */\n          0x22\n            /* \"#utility.yul\":4580:4581   */\n          0x04\n            /* \"#utility.yul\":4573:4588   */\n          mstore\n            /* \"#utility.yul\":4607:4611   */\n          0x24\n            /* \"#utility.yul\":4604:4605   */\n          0x00\n            /* \"#utility.yul\":4597:4612   */\n          revert\n            /* \"#utility.yul\":4624:4944   */\n        tag_10:\n            /* \"#utility.yul\":4668:4674   */\n          0x00\n            /* \"#utility.yul\":4705:4706   */\n          0x02\n            /* \"#utility.yul\":4699:4703   */\n          dup3\n            /* \"#utility.yul\":4695:4707   */\n          div\n            /* \"#utility.yul\":4685:4707   */\n          swap1\n          pop\n            /* \"#utility.yul\":4752:4753   */\n          0x01\n            /* \"#utility.yul\":4746:4750   */\n          dup3\n            /* \"#utility.yul\":4742:4754   */\n          and\n            /* \"#utility.yul\":4773:4791   */\n          dup1\n            /* \"#utility.yul\":4763:4844   */\n          tag_99\n          jumpi\n            /* \"#utility.yul\":4829:4833   */\n          0x7f\n            /* \"#utility.yul\":4821:4827   */\n          dup3\n            /* \"#utility.yul\":4817:4834   */\n          and\n            /* \"#utility.yul\":4807:4834   */\n          swap2\n          pop\n            /* \"#utility.yul\":4763:4844   */\n        tag_99:\n            /* \"#utility.yul\":4891:4893   */\n          0x20\n            /* \"#utility.yul\":4883:4889   */\n          dup3\n            /* \"#utility.yul\":4880:4894   */\n          lt\n            /* \"#utility.yul\":4860:4878   */\n          dup2\n            /* \"#utility.yul\":4857:4895   */\n          sub\n            /* \"#utility.yul\":4854:4938   */\n          tag_100\n          jumpi\n            /* \"#utility.yul\":4910:4928   */\n          tag_101\n          tag_40\n          jump\t// in\n        tag_101:\n            /* \"#utility.yul\":4854:4938   */\n        tag_100:\n            /* \"#utility.yul\":4675:4944   */\n          pop\n            /* \"#utility.yul\":4624:4944   */\n          swap2\n          swap1\n          pop\n          jump\t// out\n            /* \"campaign\":470:2906  contract Campaign {... */\n        tag_8:\n          dataSize(sub_0)\n          dup1\n          dataOffset(sub_0)\n          0x00\n          codecopy\n          0x00\n          return\n        stop\n\n        sub_0: assembly {\n                /* \"campaign\":470:2906  contract Campaign {... */\n              mstore(0x40, 0x80)\n              jumpi(tag_1, lt(calldatasize, 0x04))\n              shr(0xe0, calldataload(0x00))\n              dup1\n              0x81d12c58\n              gt\n              tag_15\n              jumpi\n              dup1\n              0x937e09b1\n              gt\n              tag_16\n              jumpi\n              dup1\n              0x937e09b1\n              eq\n              tag_11\n              jumpi\n              dup1\n              0x995c5e9d\n              eq\n              tag_12\n              jumpi\n              dup1\n              0xd7bb99ba\n              eq\n              tag_13\n              jumpi\n              dup1\n              0xd7d1bbdb\n              eq\n              tag_14\n              jumpi\n              jump(tag_1)\n            tag_16:\n              dup1\n              0x81d12c58\n              eq\n              tag_8\n              jumpi\n              dup1\n              0x82fde093\n              eq\n              tag_9\n              jumpi\n              dup1\n              0x8a9cfd55\n              eq\n              tag_10\n              jumpi\n              jump(tag_1)\n            tag_15:\n              dup1\n              0x03441006\n              eq\n              tag_2\n              jumpi\n              dup1\n              0x0a144391\n              eq\n              tag_3\n              jumpi\n              dup1\n              0x3fad1834\n              eq\n              tag_4\n              jumpi\n              dup1\n              0x4051ddac\n              eq\n              tag_5\n              jumpi\n              dup1\n              0x481c6a75\n              eq\n              tag_6\n              jumpi\n              dup1\n              0x7284e416\n              eq\n              tag_7\n              jumpi\n            tag_1:\n              0x00\n              dup1\n              revert\n                /* \"campaign\":2042:2301  function finalizeRequest(uint index) public restricted {... */\n            tag_2:\n              callvalue\n              dup1\n              iszero\n              tag_17\n              jumpi\n              0x00\n              dup1\n              revert\n            tag_17:\n              pop\n              tag_18\n              0x04\n              dup1\n              calldatasize\n              sub\n              dup2\n              add\n              swap1\n              tag_19\n              swap2\n              swap1\n              tag_20\n              jump\t// in\n            tag_19:\n              tag_21\n              jump\t// in\n            tag_18:\n              stop\n                /* \"campaign\":865:906  mapping(address => bool) public approvers */\n            tag_3:\n              callvalue\n              dup1\n              iszero\n              tag_22\n              jumpi\n              0x00\n              dup1\n              revert\n            tag_22:\n              pop\n              tag_23\n              0x04\n              dup1\n              calldatasize\n              sub\n              dup2\n              add\n              swap1\n              tag_24\n              swap2\n              swap1\n              tag_25\n              jump\t// in\n            tag_24:\n              tag_26\n              jump\t// in\n            tag_23:\n              mload(0x40)\n              tag_27\n              swap2\n              swap1\n              tag_28\n              jump\t// in\n            tag_27:\n              mload(0x40)\n              dup1\n              swap2\n              sub\n              swap1\n              return\n                /* \"campaign\":2622:2717  function getRequestCount() public view returns (uint) {... */\n            tag_4:\n              callvalue\n              dup1\n              iszero\n              tag_29\n              jumpi\n              0x00\n              dup1\n              revert\n            tag_29:\n              pop\n              tag_30\n              tag_31\n              jump\t// in\n            tag_30:\n              mload(0x40)\n              tag_32\n              swap2\n              swap1\n              tag_33\n              jump\t// in\n            tag_32:\n              mload(0x40)\n              dup1\n              swap2\n              sub\n              swap1\n              return\n                /* \"campaign\":2309:2614  function getSummary() public view returns (string memory, uint, uint, uint, uint, address) {... */\n            tag_5:\n              callvalue\n              dup1\n              iszero\n              tag_34\n              jumpi\n              0x00\n              dup1\n              revert\n            tag_34:\n              pop\n              tag_35\n              tag_36\n              jump\t// in\n            tag_35:\n              mload(0x40)\n              tag_37\n              swap7\n              swap6\n              swap5\n              swap4\n              swap3\n              swap2\n              swap1\n              tag_38\n              jump\t// in\n            tag_37:\n              mload(0x40)\n              dup1\n              swap2\n              sub\n              swap1\n              return\n                /* \"campaign\":701:723  address public manager */\n            tag_6:\n              callvalue\n              dup1\n              iszero\n              tag_39\n              jumpi\n              0x00\n              dup1\n              revert\n            tag_39:\n              pop\n              tag_40\n              tag_41\n              jump\t// in\n            tag_40:\n              mload(0x40)\n              tag_42\n              swap2\n              swap1\n              tag_43\n              jump\t// in\n            tag_42:\n              mload(0x40)\n              dup1\n              swap2\n              sub\n              swap1\n              return\n                /* \"campaign\":800:825  string public description */\n            tag_7:\n              callvalue\n              dup1\n              iszero\n              tag_44\n              jumpi\n              0x00\n              dup1\n              revert\n            tag_44:\n              pop\n              tag_45\n              tag_46\n              jump\t// in\n            tag_45:\n              mload(0x40)\n              tag_47\n              swap2\n              swap1\n              tag_48\n              jump\t// in\n            tag_47:\n              mload(0x40)\n              dup1\n              swap2\n              sub\n              swap1\n              return\n                /* \"campaign\":730:755  Request[] public requests */\n            tag_8:\n              callvalue\n              dup1\n              iszero\n              tag_49\n              jumpi\n              0x00\n              dup1\n              revert\n            tag_49:\n              pop\n              tag_50\n              0x04\n              dup1\n              calldatasize\n              sub\n              dup2\n              add\n              swap1\n              tag_51\n              swap2\n              swap1\n              tag_20\n              jump\t// in\n            tag_51:\n              tag_52\n              jump\t// in\n            tag_50:\n              mload(0x40)\n              tag_53\n              swap6\n              swap5\n              swap4\n              swap3\n              swap2\n              swap1\n              tag_54\n              jump\t// in\n            tag_53:\n              mload(0x40)\n              dup1\n              swap2\n              sub\n              swap1\n              return\n                /* \"campaign\":832:858  uint public approversCount */\n            tag_9:\n              callvalue\n              dup1\n              iszero\n              tag_55\n              jumpi\n              0x00\n              dup1\n              revert\n            tag_55:\n              pop\n              tag_56\n              tag_57\n              jump\t// in\n            tag_56:\n              mload(0x40)\n              tag_58\n              swap2\n              swap1\n              tag_33\n              jump\t// in\n            tag_58:\n              mload(0x40)\n              dup1\n              swap2\n              sub\n              swap1\n              return\n                /* \"campaign\":1413:1750  function createRequest(string memory desc, uint value, address payable rcpnt) public payable restricted{... */\n            tag_10:\n              tag_59\n              0x04\n              dup1\n              calldatasize\n              sub\n              dup2\n              add\n              swap1\n              tag_60\n              swap2\n              swap1\n              tag_61\n              jump\t// in\n            tag_60:\n              tag_62\n              jump\t// in\n            tag_59:\n              stop\n                /* \"campaign\":762:793  uint public minimumContribution */\n            tag_11:\n              callvalue\n              dup1\n              iszero\n              tag_63\n              jumpi\n              0x00\n              dup1\n              revert\n            tag_63:\n              pop\n              tag_64\n              tag_65\n              jump\t// in\n            tag_64:\n              mload(0x40)\n              tag_66\n              swap2\n              swap1\n              tag_33\n              jump\t// in\n            tag_66:\n              mload(0x40)\n              dup1\n              swap2\n              sub\n              swap1\n              return\n                /* \"campaign\":913:956  mapping(address => bool) public contributed */\n            tag_12:\n              callvalue\n              dup1\n              iszero\n              tag_67\n              jumpi\n              0x00\n              dup1\n              revert\n            tag_67:\n              pop\n              tag_68\n              0x04\n              dup1\n              calldatasize\n              sub\n              dup2\n              add\n              swap1\n              tag_69\n              swap2\n              swap1\n              tag_25\n              jump\t// in\n            tag_69:\n              tag_70\n              jump\t// in\n            tag_68:\n              mload(0x40)\n              tag_71\n              swap2\n              swap1\n              tag_28\n              jump\t// in\n            tag_71:\n              mload(0x40)\n              dup1\n              swap2\n              sub\n              swap1\n              return\n                /* \"campaign\":1141:1405  function contribute() public payable {... */\n            tag_13:\n              tag_72\n              tag_73\n              jump\t// in\n            tag_72:\n              stop\n                /* \"campaign\":1758:2030  function approveRequest(uint index) public onlyApprover {... */\n            tag_14:\n              callvalue\n              dup1\n              iszero\n              tag_74\n              jumpi\n              0x00\n              dup1\n              revert\n            tag_74:\n              pop\n              tag_75\n              0x04\n              dup1\n              calldatasize\n              sub\n              dup2\n              add\n              swap1\n              tag_76\n              swap2\n              swap1\n              tag_20\n              jump\t// in\n            tag_76:\n              tag_77\n              jump\t// in\n            tag_75:\n              stop\n                /* \"campaign\":2042:2301  function finalizeRequest(uint index) public restricted {... */\n            tag_21:\n                /* \"campaign\":2780:2787  manager */\n              0x00\n              dup1\n              sload\n              swap1\n              0x0100\n              exp\n              swap1\n              div\n              0xffffffffffffffffffffffffffffffffffffffff\n              and\n                /* \"campaign\":2766:2787  msg.sender == manager */\n              0xffffffffffffffffffffffffffffffffffffffff\n              and\n                /* \"campaign\":2766:2776  msg.sender */\n              caller\n                /* \"campaign\":2766:2787  msg.sender == manager */\n              0xffffffffffffffffffffffffffffffffffffffff\n              and\n              eq\n                /* \"campaign\":2758:2788  require(msg.sender == manager) */\n              tag_79\n              jumpi\n              0x00\n              dup1\n              revert\n            tag_79:\n                /* \"campaign\":2108:2131  Request storage request */\n              0x00\n                /* \"campaign\":2134:2142  requests */\n              0x01\n                /* \"campaign\":2143:2148  index */\n              dup3\n                /* \"campaign\":2134:2149  requests[index] */\n              dup2\n              sload\n              dup2\n              lt\n              tag_81\n              jumpi\n              tag_82\n              tag_83\n              jump\t// in\n            tag_82:\n            tag_81:\n              swap1\n              0x00\n              mstore\n              keccak256(0x00, 0x20)\n              swap1\n              0x05\n              mul\n              add\n                /* \"campaign\":2108:2149  Request storage request = requests[index] */\n              swap1\n              pop\n                /* \"campaign\":2205:2206  2 */\n              0x02\n                /* \"campaign\":2190:2204  approversCount */\n              sload(0x04)\n                /* \"campaign\":2190:2206  approversCount/2 */\n              tag_85\n              swap2\n              swap1\n              tag_86\n              jump\t// in\n            tag_85:\n                /* \"campaign\":2168:2175  request */\n              dup2\n                /* \"campaign\":2168:2187  request.votingCount */\n              0x03\n              add\n              sload\n                /* \"campaign\":2168:2206  request.votingCount > approversCount/2 */\n              gt\n                /* \"campaign\":2160:2207  require(request.votingCount > approversCount/2) */\n              tag_87\n              jumpi\n              0x00\n              dup1\n              revert\n            tag_87:\n                /* \"campaign\":2218:2225  request */\n              dup1\n                /* \"campaign\":2218:2235  request.recipient */\n              0x02\n              add\n              0x00\n              swap1\n              sload\n              swap1\n              0x0100\n              exp\n              swap1\n              div\n              0xffffffffffffffffffffffffffffffffffffffff\n              and\n                /* \"campaign\":2218:2244  request.recipient.transfer */\n              0xffffffffffffffffffffffffffffffffffffffff\n              and\n                /* \"campaign\":2218:2259  request.recipient.transfer(request.value) */\n              0x08fc\n                /* \"campaign\":2245:2252  request */\n              dup3\n                /* \"campaign\":2245:2258  request.value */\n              0x01\n              add\n              sload\n                /* \"campaign\":2218:2259  request.recipient.transfer(request.value) */\n              swap1\n              dup2\n              iszero\n              mul\n              swap1\n              mload(0x40)\n              0x00\n              mload(0x40)\n              dup1\n              dup4\n              sub\n              dup2\n              dup6\n              dup9\n              dup9\n              call\n              swap4\n              pop\n              pop\n              pop\n              pop\n              iszero\n              dup1\n              iszero\n              tag_89\n              jumpi\n              returndatasize\n              0x00\n              dup1\n              returndatacopy\n              revert(0x00, returndatasize)\n            tag_89:\n              pop\n                /* \"campaign\":2289:2293  true */\n              0x01\n                /* \"campaign\":2270:2277  request */\n              dup2\n                /* \"campaign\":2270:2286  request.complete */\n              0x02\n              add\n              0x14\n                /* \"campaign\":2270:2293  request.complete = true */\n              0x0100\n              exp\n              dup2\n              sload\n              dup2\n              0xff\n              mul\n              not\n              and\n              swap1\n              dup4\n              iszero\n              iszero\n              mul\n              or\n              swap1\n              sstore\n              pop\n                /* \"campaign\":2097:2301  {... */\n              pop\n                /* \"campaign\":2042:2301  function finalizeRequest(uint index) public restricted {... */\n              pop\n              jump\t// out\n                /* \"campaign\":865:906  mapping(address => bool) public approvers */\n            tag_26:\n              mstore(0x20, 0x05)\n              dup1\n              0x00\n              mstore\n              keccak256(0x00, 0x40)\n              0x00\n              swap2\n              pop\n              sload\n              swap1\n              0x0100\n              exp\n              swap1\n              div\n              0xff\n              and\n              dup2\n              jump\t// out\n                /* \"campaign\":2622:2717  function getRequestCount() public view returns (uint) {... */\n            tag_31:\n                /* \"campaign\":2670:2674  uint */\n              0x00\n                /* \"campaign\":2694:2702  requests */\n              0x01\n                /* \"campaign\":2694:2709  requests.length */\n              dup1\n              sload\n              swap1\n              pop\n                /* \"campaign\":2687:2709  return requests.length */\n              swap1\n              pop\n                /* \"campaign\":2622:2717  function getRequestCount() public view returns (uint) {... */\n              swap1\n              jump\t// out\n                /* \"campaign\":2309:2614  function getSummary() public view returns (string memory, uint, uint, uint, uint, address) {... */\n            tag_36:\n                /* \"campaign\":2352:2365  string memory */\n              0x60\n                /* \"campaign\":2367:2371  uint */\n              0x00\n                /* \"campaign\":2373:2377  uint */\n              dup1\n                /* \"campaign\":2379:2383  uint */\n              0x00\n                /* \"campaign\":2385:2389  uint */\n              dup1\n                /* \"campaign\":2391:2398  address */\n              0x00\n                /* \"campaign\":2433:2444  description */\n              0x03\n                /* \"campaign\":2459:2478  minimumContribution */\n              sload(0x02)\n                /* \"campaign\":2493:2514  address(this).balance */\n              selfbalance\n                /* \"campaign\":2529:2537  requests */\n              0x01\n                /* \"campaign\":2529:2544  requests.length */\n              dup1\n              sload\n              swap1\n              pop\n                /* \"campaign\":2559:2573  approversCount */\n              sload(0x04)\n                /* \"campaign\":2588:2595  manager */\n              0x00\n              dup1\n              sload\n              swap1\n              0x0100\n              exp\n              swap1\n              div\n              0xffffffffffffffffffffffffffffffffffffffff\n              and\n                /* \"campaign\":2411:2606  return (... */\n              dup6\n              dup1\n              sload\n              tag_92\n              swap1\n              tag_93\n              jump\t// in\n            tag_92:\n              dup1\n              0x1f\n              add\n              0x20\n              dup1\n              swap2\n              div\n              mul\n              0x20\n              add\n              mload(0x40)\n              swap1\n              dup2\n              add\n              0x40\n              mstore\n              dup1\n              swap3\n              swap2\n              swap1\n              dup2\n              dup2\n              mstore\n              0x20\n              add\n              dup3\n              dup1\n              sload\n              tag_94\n              swap1\n              tag_93\n              jump\t// in\n            tag_94:\n              dup1\n              iszero\n              tag_95\n              jumpi\n              dup1\n              0x1f\n              lt\n              tag_96\n              jumpi\n              0x0100\n              dup1\n              dup4\n              sload\n              div\n              mul\n              dup4\n              mstore\n              swap2\n              0x20\n              add\n              swap2\n              jump(tag_95)\n            tag_96:\n              dup3\n              add\n              swap2\n              swap1\n              0x00\n              mstore\n              keccak256(0x00, 0x20)\n              swap1\n            tag_97:\n              dup2\n              sload\n              dup2\n              mstore\n              swap1\n              0x01\n              add\n              swap1\n              0x20\n              add\n              dup1\n              dup4\n              gt\n              tag_97\n              jumpi\n              dup3\n              swap1\n              sub\n              0x1f\n              and\n              dup3\n              add\n              swap2\n            tag_95:\n              pop\n              pop\n              pop\n              pop\n              pop\n              swap6\n              pop\n              swap6\n              pop\n              swap6\n              pop\n              swap6\n              pop\n              swap6\n              pop\n              swap6\n              pop\n              swap6\n              pop\n                /* \"campaign\":2309:2614  function getSummary() public view returns (string memory, uint, uint, uint, uint, address) {... */\n              swap1\n              swap2\n              swap3\n              swap4\n              swap5\n              swap6\n              jump\t// out\n                /* \"campaign\":701:723  address public manager */\n            tag_41:\n              0x00\n              dup1\n              sload\n              swap1\n              0x0100\n              exp\n              swap1\n              div\n              0xffffffffffffffffffffffffffffffffffffffff\n              and\n              dup2\n              jump\t// out\n                /* \"campaign\":800:825  string public description */\n            tag_46:\n              0x03\n              dup1\n              sload\n              tag_98\n              swap1\n              tag_93\n              jump\t// in\n            tag_98:\n              dup1\n              0x1f\n              add\n              0x20\n              dup1\n              swap2\n              div\n              mul\n              0x20\n              add\n              mload(0x40)\n              swap1\n              dup2\n              add\n              0x40\n              mstore\n              dup1\n              swap3\n              swap2\n              swap1\n              dup2\n              dup2\n              mstore\n              0x20\n              add\n              dup3\n              dup1\n              sload\n              tag_99\n              swap1\n              tag_93\n              jump\t// in\n            tag_99:\n              dup1\n              iszero\n              tag_100\n              jumpi\n              dup1\n              0x1f\n              lt\n              tag_101\n              jumpi\n              0x0100\n              dup1\n              dup4\n              sload\n              div\n              mul\n              dup4\n              mstore\n              swap2\n              0x20\n              add\n              swap2\n              jump(tag_100)\n            tag_101:\n              dup3\n              add\n              swap2\n              swap1\n              0x00\n              mstore\n              keccak256(0x00, 0x20)\n              swap1\n            tag_102:\n              dup2\n              sload\n              dup2\n              mstore\n              swap1\n              0x01\n              add\n              swap1\n              0x20\n              add\n              dup1\n              dup4\n              gt\n              tag_102\n              jumpi\n              dup3\n              swap1\n              sub\n              0x1f\n              and\n              dup3\n              add\n              swap2\n            tag_100:\n              pop\n              pop\n              pop\n              pop\n              pop\n              dup2\n              jump\t// out\n                /* \"campaign\":730:755  Request[] public requests */\n            tag_52:\n              0x01\n              dup2\n              dup2\n              sload\n              dup2\n              lt\n              tag_103\n              jumpi\n              0x00\n              dup1\n              revert\n            tag_103:\n              swap1\n              0x00\n              mstore\n              keccak256(0x00, 0x20)\n              swap1\n              0x05\n              mul\n              add\n              0x00\n              swap2\n              pop\n              swap1\n              pop\n              dup1\n              0x00\n              add\n              dup1\n              sload\n              tag_105\n              swap1\n              tag_93\n              jump\t// in\n            tag_105:\n              dup1\n              0x1f\n              add\n              0x20\n              dup1\n              swap2\n              div\n              mul\n              0x20\n              add\n              mload(0x40)\n              swap1\n              dup2\n              add\n              0x40\n              mstore\n              dup1\n              swap3\n              swap2\n              swap1\n              dup2\n              dup2\n              mstore\n              0x20\n              add\n              dup3\n              dup1\n              sload\n              tag_106\n              swap1\n              tag_93\n              jump\t// in\n            tag_106:\n              dup1\n              iszero\n              tag_107\n              jumpi\n              dup1\n              0x1f\n              lt\n              tag_108\n              jumpi\n              0x0100\n              dup1\n              dup4\n              sload\n              div\n              mul\n              dup4\n              mstore\n              swap2\n              0x20\n              add\n              swap2\n              jump(tag_107)\n            tag_108:\n              dup3\n              add\n              swap2\n              swap1\n              0x00\n              mstore\n              keccak256(0x00, 0x20)\n              swap1\n            tag_109:\n              dup2\n              sload\n              dup2\n              mstore\n              swap1\n              0x01\n              add\n              swap1\n              0x20\n              add\n              dup1\n              dup4\n              gt\n              tag_109\n              jumpi\n              dup3\n              swap1\n              sub\n              0x1f\n              and\n              dup3\n              add\n              swap2\n            tag_107:\n              pop\n              pop\n              pop\n              pop\n              pop\n              swap1\n              dup1\n              0x01\n              add\n              sload\n              swap1\n              dup1\n              0x02\n              add\n              0x00\n              swap1\n              sload\n              swap1\n              0x0100\n              exp\n              swap1\n              div\n              0xffffffffffffffffffffffffffffffffffffffff\n              and\n              swap1\n              dup1\n              0x02\n              add\n              0x14\n              swap1\n              sload\n              swap1\n              0x0100\n              exp\n              swap1\n              div\n              0xff\n              and\n              swap1\n              dup1\n              0x03\n              add\n              sload\n              swap1\n              pop\n              dup6\n              jump\t// out\n                /* \"campaign\":832:858  uint public approversCount */\n            tag_57:\n              sload(0x04)\n              dup2\n              jump\t// out\n                /* \"campaign\":1413:1750  function createRequest(string memory desc, uint value, address payable rcpnt) public payable restricted{... */\n            tag_62:\n                /* \"campaign\":2780:2787  manager */\n              0x00\n              dup1\n              sload\n              swap1\n              0x0100\n              exp\n              swap1\n              div\n              0xffffffffffffffffffffffffffffffffffffffff\n              and\n                /* \"campaign\":2766:2787  msg.sender == manager */\n              0xffffffffffffffffffffffffffffffffffffffff\n              and\n                /* \"campaign\":2766:2776  msg.sender */\n              caller\n                /* \"campaign\":2766:2787  msg.sender == manager */\n              0xffffffffffffffffffffffffffffffffffffffff\n              and\n              eq\n                /* \"campaign\":2758:2788  require(msg.sender == manager) */\n              tag_111\n              jumpi\n              0x00\n              dup1\n              revert\n            tag_111:\n                /* \"campaign\":1527:1550  Request storage request */\n              0x00\n                /* \"campaign\":1553:1561  requests */\n              0x01\n                /* \"campaign\":1553:1568  requests.push() */\n              dup1\n              dup2\n              0x01\n              dup2\n              sload\n              add\n              dup1\n              dup3\n              sstore\n              dup1\n              swap2\n              pop\n              pop\n              sub\n              swap1\n              0x00\n              mstore\n              keccak256(0x00, 0x20)\n              swap1\n              0x05\n              mul\n              add\n                /* \"campaign\":1527:1568  Request storage request = requests.push() */\n              swap1\n              pop\n                /* \"campaign\":1601:1605  desc */\n              dup4\n                /* \"campaign\":1579:1586  request */\n              dup2\n                /* \"campaign\":1579:1598  request.description */\n              0x00\n              add\n                /* \"campaign\":1579:1605  request.description = desc */\n              swap1\n              dup1\n              mload\n              swap1\n              0x20\n              add\n              swap1\n              tag_114\n              swap3\n              swap2\n              swap1\n              tag_115\n              jump\t// in\n            tag_114:\n              pop\n                /* \"campaign\":1632:1637  value */\n              dup3\n                /* \"campaign\":1616:1623  request */\n              dup2\n                /* \"campaign\":1616:1629  request.value */\n              0x01\n              add\n                /* \"campaign\":1616:1637  request.value = value */\n              dup2\n              swap1\n              sstore\n              pop\n                /* \"campaign\":1668:1673  rcpnt */\n              dup2\n                /* \"campaign\":1648:1655  request */\n              dup2\n                /* \"campaign\":1648:1665  request.recipient */\n              0x02\n              add\n              0x00\n                /* \"campaign\":1648:1673  request.recipient = rcpnt */\n              0x0100\n              exp\n              dup2\n              sload\n              dup2\n              0xffffffffffffffffffffffffffffffffffffffff\n              mul\n              not\n              and\n              swap1\n              dup4\n              0xffffffffffffffffffffffffffffffffffffffff\n              and\n              mul\n              or\n              swap1\n              sstore\n              pop\n                /* \"campaign\":1703:1708  false */\n              0x00\n                /* \"campaign\":1684:1691  request */\n              dup2\n                /* \"campaign\":1684:1700  request.complete */\n              0x02\n              add\n              0x14\n                /* \"campaign\":1684:1708  request.complete = false */\n              0x0100\n              exp\n              dup2\n              sload\n              dup2\n              0xff\n              mul\n              not\n              and\n              swap1\n              dup4\n              iszero\n              iszero\n              mul\n              or\n              swap1\n              sstore\n              pop\n                /* \"campaign\":1741:1742  0 */\n              0x00\n                /* \"campaign\":1719:1726  request */\n              dup2\n                /* \"campaign\":1719:1738  request.votingCount */\n              0x03\n              add\n                /* \"campaign\":1719:1742  request.votingCount = 0 */\n              dup2\n              swap1\n              sstore\n              pop\n                /* \"campaign\":1516:1750  {... */\n              pop\n                /* \"campaign\":1413:1750  function createRequest(string memory desc, uint value, address payable rcpnt) public payable restricted{... */\n              pop\n              pop\n              pop\n              jump\t// out\n                /* \"campaign\":762:793  uint public minimumContribution */\n            tag_65:\n              sload(0x02)\n              dup2\n              jump\t// out\n                /* \"campaign\":913:956  mapping(address => bool) public contributed */\n            tag_70:\n              mstore(0x20, 0x06)\n              dup1\n              0x00\n              mstore\n              keccak256(0x00, 0x40)\n              0x00\n              swap2\n              pop\n              sload\n              swap1\n              0x0100\n              exp\n              swap1\n              div\n              0xff\n              and\n              dup2\n              jump\t// out\n                /* \"campaign\":1141:1405  function contribute() public payable {... */\n            tag_73:\n                /* \"campaign\":1210:1229  minimumContribution */\n              sload(0x02)\n                /* \"campaign\":1197:1206  msg.value */\n              callvalue\n                /* \"campaign\":1197:1229  msg.value >= minimumContribution */\n              lt\n              iszero\n                /* \"campaign\":1189:1230  require(msg.value >= minimumContribution) */\n              tag_117\n              jumpi\n              0x00\n              dup1\n              revert\n            tag_117:\n                /* \"campaign\":1265:1269  true */\n              0x01\n                /* \"campaign\":1241:1250  approvers */\n              0x05\n                /* \"campaign\":1241:1262  approvers[msg.sender] */\n              0x00\n                /* \"campaign\":1251:1261  msg.sender */\n              caller\n                /* \"campaign\":1241:1262  approvers[msg.sender] */\n              0xffffffffffffffffffffffffffffffffffffffff\n              and\n              0xffffffffffffffffffffffffffffffffffffffff\n              and\n              dup2\n              mstore\n              0x20\n              add\n              swap1\n              dup2\n              mstore\n              0x20\n              add\n              0x00\n              keccak256\n              0x00\n                /* \"campaign\":1241:1269  approvers[msg.sender] = true */\n              0x0100\n              exp\n              dup2\n              sload\n              dup2\n              0xff\n              mul\n              not\n              and\n              swap1\n              dup4\n              iszero\n              iszero\n              mul\n              or\n              swap1\n              sstore\n              pop\n                /* \"campaign\":1285:1296  contributed */\n              0x06\n                /* \"campaign\":1285:1308  contributed[msg.sender] */\n              0x00\n                /* \"campaign\":1297:1307  msg.sender */\n              caller\n                /* \"campaign\":1285:1308  contributed[msg.sender] */\n              0xffffffffffffffffffffffffffffffffffffffff\n              and\n              0xffffffffffffffffffffffffffffffffffffffff\n              and\n              dup2\n              mstore\n              0x20\n              add\n              swap1\n              dup2\n              mstore\n              0x20\n              add\n              0x00\n              keccak256\n              0x00\n              swap1\n              sload\n              swap1\n              0x0100\n              exp\n              swap1\n              div\n              0xff\n              and\n                /* \"campaign\":1280:1398  if (!contributed[msg.sender]) {... */\n              tag_118\n              jumpi\n                /* \"campaign\":1351:1355  true */\n              0x01\n                /* \"campaign\":1325:1336  contributed */\n              0x06\n                /* \"campaign\":1325:1348  contributed[msg.sender] */\n              0x00\n                /* \"campaign\":1337:1347  msg.sender */\n              caller\n                /* \"campaign\":1325:1348  contributed[msg.sender] */\n              0xffffffffffffffffffffffffffffffffffffffff\n              and\n              0xffffffffffffffffffffffffffffffffffffffff\n              and\n              dup2\n              mstore\n              0x20\n              add\n              swap1\n              dup2\n              mstore\n              0x20\n              add\n              0x00\n              keccak256\n              0x00\n                /* \"campaign\":1325:1355  contributed[msg.sender] = true */\n              0x0100\n              exp\n              dup2\n              sload\n              dup2\n              0xff\n              mul\n              not\n              and\n              swap1\n              dup4\n              iszero\n              iszero\n              mul\n              or\n              swap1\n              sstore\n              pop\n                /* \"campaign\":1370:1384  approversCount */\n              0x04\n              0x00\n                /* \"campaign\":1370:1386  approversCount++ */\n              dup2\n              sload\n              dup1\n              swap3\n              swap2\n              swap1\n              tag_119\n              swap1\n              tag_120\n              jump\t// in\n            tag_119:\n              swap2\n              swap1\n              pop\n              sstore\n              pop\n                /* \"campaign\":1280:1398  if (!contributed[msg.sender]) {... */\n            tag_118:\n                /* \"campaign\":1141:1405  function contribute() public payable {... */\n              jump\t// out\n                /* \"campaign\":1758:2030  function approveRequest(uint index) public onlyApprover {... */\n            tag_77:\n                /* \"campaign\":2859:2868  approvers */\n              0x05\n                /* \"campaign\":2859:2880  approvers[msg.sender] */\n              0x00\n                /* \"campaign\":2869:2879  msg.sender */\n              caller\n                /* \"campaign\":2859:2880  approvers[msg.sender] */\n              0xffffffffffffffffffffffffffffffffffffffff\n              and\n              0xffffffffffffffffffffffffffffffffffffffff\n              and\n              dup2\n              mstore\n              0x20\n              add\n              swap1\n              dup2\n              mstore\n              0x20\n              add\n              0x00\n              keccak256\n              0x00\n              swap1\n              sload\n              swap1\n              0x0100\n              exp\n              swap1\n              div\n              0xff\n              and\n                /* \"campaign\":2851:2881  require(approvers[msg.sender]) */\n              tag_122\n              jumpi\n              0x00\n              dup1\n              revert\n            tag_122:\n                /* \"campaign\":1825:1848  Request storage request */\n              0x00\n                /* \"campaign\":1851:1859  requests */\n              0x01\n                /* \"campaign\":1860:1865  index */\n              dup3\n                /* \"campaign\":1851:1866  requests[index] */\n              dup2\n              sload\n              dup2\n              lt\n              tag_124\n              jumpi\n              tag_125\n              tag_83\n              jump\t// in\n            tag_125:\n            tag_124:\n              swap1\n              0x00\n              mstore\n              keccak256(0x00, 0x20)\n              swap1\n              0x05\n              mul\n              add\n                /* \"campaign\":1825:1866  Request storage request = requests[index] */\n              swap1\n              pop\n                /* \"campaign\":1886:1893  request */\n              dup1\n                /* \"campaign\":1886:1898  request.vote */\n              0x04\n              add\n                /* \"campaign\":1886:1910  request.vote[msg.sender] */\n              0x00\n                /* \"campaign\":1899:1909  msg.sender */\n              caller\n                /* \"campaign\":1886:1910  request.vote[msg.sender] */\n              0xffffffffffffffffffffffffffffffffffffffff\n              and\n              0xffffffffffffffffffffffffffffffffffffffff\n              and\n              dup2\n              mstore\n              0x20\n              add\n              swap1\n              dup2\n              mstore\n              0x20\n              add\n              0x00\n              keccak256\n              0x00\n              swap1\n              sload\n              swap1\n              0x0100\n              exp\n              swap1\n              div\n              0xff\n              and\n                /* \"campaign\":1885:1910  !request.vote[msg.sender] */\n              iszero\n                /* \"campaign\":1877:1911  require(!request.vote[msg.sender]) */\n              tag_127\n              jumpi\n              0x00\n              dup1\n              revert\n            tag_127:\n                /* \"campaign\":1931:1938  request */\n              dup1\n                /* \"campaign\":1931:1947  request.complete */\n              0x02\n              add\n              0x14\n              swap1\n              sload\n              swap1\n              0x0100\n              exp\n              swap1\n              div\n              0xff\n              and\n                /* \"campaign\":1930:1947  !request.complete */\n              iszero\n                /* \"campaign\":1922:1948  require(!request.complete) */\n              tag_128\n              jumpi\n              0x00\n              dup1\n              revert\n            tag_128:\n                /* \"campaign\":1986:1990  true */\n              0x01\n                /* \"campaign\":1959:1966  request */\n              dup2\n                /* \"campaign\":1959:1971  request.vote */\n              0x04\n              add\n                /* \"campaign\":1959:1983  request.vote[msg.sender] */\n              0x00\n                /* \"campaign\":1972:1982  msg.sender */\n              caller\n                /* \"campaign\":1959:1983  request.vote[msg.sender] */\n              0xffffffffffffffffffffffffffffffffffffffff\n              and\n              0xffffffffffffffffffffffffffffffffffffffff\n              and\n              dup2\n              mstore\n              0x20\n              add\n              swap1\n              dup2\n              mstore\n              0x20\n              add\n              0x00\n              keccak256\n              0x00\n                /* \"campaign\":1959:1990  request.vote[msg.sender] = true */\n              0x0100\n              exp\n              dup2\n              sload\n              dup2\n              0xff\n              mul\n              not\n              and\n              swap1\n              dup4\n              iszero\n              iszero\n              mul\n              or\n              swap1\n              sstore\n              pop\n                /* \"campaign\":2001:2008  request */\n              dup1\n                /* \"campaign\":2001:2020  request.votingCount */\n              0x03\n              add\n              0x00\n                /* \"campaign\":2001:2022  request.votingCount++ */\n              dup2\n              sload\n              dup1\n              swap3\n              swap2\n              swap1\n              tag_129\n              swap1\n              tag_120\n              jump\t// in\n            tag_129:\n              swap2\n              swap1\n              pop\n              sstore\n              pop\n                /* \"campaign\":1814:2030  {... */\n              pop\n                /* \"campaign\":1758:2030  function approveRequest(uint index) public onlyApprover {... */\n              pop\n              jump\t// out\n            tag_115:\n              dup3\n              dup1\n              sload\n              tag_130\n              swap1\n              tag_93\n              jump\t// in\n            tag_130:\n              swap1\n              0x00\n              mstore\n              keccak256(0x00, 0x20)\n              swap1\n              0x1f\n              add\n              0x20\n              swap1\n              div\n              dup2\n              add\n              swap3\n              dup3\n              tag_132\n              jumpi\n              0x00\n              dup6\n              sstore\n              jump(tag_131)\n            tag_132:\n              dup3\n              0x1f\n              lt\n              tag_133\n              jumpi\n              dup1\n              mload\n              not(0xff)\n              and\n              dup4\n              dup1\n              add\n              or\n              dup6\n              sstore\n              jump(tag_131)\n            tag_133:\n              dup3\n              dup1\n              add\n              0x01\n              add\n              dup6\n              sstore\n              dup3\n              iszero\n              tag_131\n              jumpi\n              swap2\n              dup3\n              add\n            tag_134:\n              dup3\n              dup2\n              gt\n              iszero\n              tag_135\n              jumpi\n              dup3\n              mload\n              dup3\n              sstore\n              swap2\n              0x20\n              add\n              swap2\n              swap1\n              0x01\n              add\n              swap1\n              jump(tag_134)\n            tag_135:\n            tag_131:\n              pop\n              swap1\n              pop\n              tag_136\n              swap2\n              swap1\n              tag_137\n              jump\t// in\n            tag_136:\n              pop\n              swap1\n              jump\t// out\n            tag_137:\n            tag_138:\n              dup1\n              dup3\n              gt\n              iszero\n              tag_139\n              jumpi\n              0x00\n              dup2\n              0x00\n              swap1\n              sstore\n              pop\n              0x01\n              add\n              jump(tag_138)\n            tag_139:\n              pop\n              swap1\n              jump\t// out\n                /* \"#utility.yul\":7:82   */\n            tag_140:\n                /* \"#utility.yul\":40:46   */\n              0x00\n                /* \"#utility.yul\":73:75   */\n              0x40\n                /* \"#utility.yul\":67:76   */\n              mload\n                /* \"#utility.yul\":57:76   */\n              swap1\n              pop\n                /* \"#utility.yul\":7:82   */\n              swap1\n              jump\t// out\n                /* \"#utility.yul\":88:205   */\n            tag_141:\n                /* \"#utility.yul\":197:198   */\n              0x00\n                /* \"#utility.yul\":194:195   */\n              dup1\n                /* \"#utility.yul\":187:199   */\n              revert\n                /* \"#utility.yul\":211:328   */\n            tag_142:\n                /* \"#utility.yul\":320:321   */\n              0x00\n                /* \"#utility.yul\":317:318   */\n              dup1\n                /* \"#utility.yul\":310:322   */\n              revert\n                /* \"#utility.yul\":334:411   */\n            tag_143:\n                /* \"#utility.yul\":371:378   */\n              0x00\n                /* \"#utility.yul\":400:405   */\n              dup2\n                /* \"#utility.yul\":389:405   */\n              swap1\n              pop\n                /* \"#utility.yul\":334:411   */\n              swap2\n              swap1\n              pop\n              jump\t// out\n                /* \"#utility.yul\":417:539   */\n            tag_144:\n                /* \"#utility.yul\":490:514   */\n              tag_181\n                /* \"#utility.yul\":508:513   */\n              dup2\n                /* \"#utility.yul\":490:514   */\n              tag_143\n              jump\t// in\n            tag_181:\n                /* \"#utility.yul\":483:488   */\n              dup2\n                /* \"#utility.yul\":480:515   */\n              eq\n                /* \"#utility.yul\":470:533   */\n              tag_182\n              jumpi\n                /* \"#utility.yul\":529:530   */\n              0x00\n                /* \"#utility.yul\":526:527   */\n              dup1\n                /* \"#utility.yul\":519:531   */\n              revert\n                /* \"#utility.yul\":470:533   */\n            tag_182:\n                /* \"#utility.yul\":417:539   */\n              pop\n              jump\t// out\n                /* \"#utility.yul\":545:684   */\n            tag_145:\n                /* \"#utility.yul\":591:596   */\n              0x00\n                /* \"#utility.yul\":629:635   */\n              dup2\n                /* \"#utility.yul\":616:636   */\n              calldataload\n                /* \"#utility.yul\":607:636   */\n              swap1\n              pop\n                /* \"#utility.yul\":645:678   */\n              tag_184\n                /* \"#utility.yul\":672:677   */\n              dup2\n                /* \"#utility.yul\":645:678   */\n              tag_144\n              jump\t// in\n            tag_184:\n                /* \"#utility.yul\":545:684   */\n              swap3\n              swap2\n              pop\n              pop\n              jump\t// out\n                /* \"#utility.yul\":690:1019   */\n            tag_20:\n                /* \"#utility.yul\":749:755   */\n              0x00\n                /* \"#utility.yul\":798:800   */\n              0x20\n                /* \"#utility.yul\":786:795   */\n              dup3\n                /* \"#utility.yul\":777:784   */\n              dup5\n                /* \"#utility.yul\":773:796   */\n              sub\n                /* \"#utility.yul\":769:801   */\n              slt\n                /* \"#utility.yul\":766:885   */\n              iszero\n              tag_186\n              jumpi\n                /* \"#utility.yul\":804:883   */\n              tag_187\n              tag_141\n              jump\t// in\n            tag_187:\n                /* \"#utility.yul\":766:885   */\n            tag_186:\n                /* \"#utility.yul\":924:925   */\n              0x00\n                /* \"#utility.yul\":949:1002   */\n              tag_188\n                /* \"#utility.yul\":994:1001   */\n              dup5\n                /* \"#utility.yul\":985:991   */\n              dup3\n                /* \"#utility.yul\":974:983   */\n              dup6\n                /* \"#utility.yul\":970:992   */\n              add\n                /* \"#utility.yul\":949:1002   */\n              tag_145\n              jump\t// in\n            tag_188:\n                /* \"#utility.yul\":939:1002   */\n              swap2\n              pop\n                /* \"#utility.yul\":895:1012   */\n              pop\n                /* \"#utility.yul\":690:1019   */\n              swap3\n              swap2\n              pop\n              pop\n              jump\t// out\n                /* \"#utility.yul\":1025:1151   */\n            tag_146:\n                /* \"#utility.yul\":1062:1069   */\n              0x00\n                /* \"#utility.yul\":1102:1144   */\n              0xffffffffffffffffffffffffffffffffffffffff\n                /* \"#utility.yul\":1095:1100   */\n              dup3\n                /* \"#utility.yul\":1091:1145   */\n              and\n                /* \"#utility.yul\":1080:1145   */\n              swap1\n              pop\n                /* \"#utility.yul\":1025:1151   */\n              swap2\n              swap1\n              pop\n              jump\t// out\n                /* \"#utility.yul\":1157:1253   */\n            tag_147:\n                /* \"#utility.yul\":1194:1201   */\n              0x00\n                /* \"#utility.yul\":1223:1247   */\n              tag_191\n                /* \"#utility.yul\":1241:1246   */\n              dup3\n                /* \"#utility.yul\":1223:1247   */\n              tag_146\n              jump\t// in\n            tag_191:\n                /* \"#utility.yul\":1212:1247   */\n              swap1\n              pop\n                /* \"#utility.yul\":1157:1253   */\n              swap2\n              swap1\n              pop\n              jump\t// out\n                /* \"#utility.yul\":1259:1381   */\n            tag_148:\n                /* \"#utility.yul\":1332:1356   */\n              tag_193\n                /* \"#utility.yul\":1350:1355   */\n              dup2\n                /* \"#utility.yul\":1332:1356   */\n              tag_147\n              jump\t// in\n            tag_193:\n                /* \"#utility.yul\":1325:1330   */\n              dup2\n                /* \"#utility.yul\":1322:1357   */\n              eq\n                /* \"#utility.yul\":1312:1375   */\n              tag_194\n              jumpi\n                /* \"#utility.yul\":1371:1372   */\n              0x00\n                /* \"#utility.yul\":1368:1369   */\n              dup1\n                /* \"#utility.yul\":1361:1373   */\n              revert\n                /* \"#utility.yul\":1312:1375   */\n            tag_194:\n                /* \"#utility.yul\":1259:1381   */\n              pop\n              jump\t// out\n                /* \"#utility.yul\":1387:1526   */\n            tag_149:\n                /* \"#utility.yul\":1433:1438   */\n              0x00\n                /* \"#utility.yul\":1471:1477   */\n              dup2\n                /* \"#utility.yul\":1458:1478   */\n              calldataload\n                /* \"#utility.yul\":1449:1478   */\n              swap1\n              pop\n                /* \"#utility.yul\":1487:1520   */\n              tag_196\n                /* \"#utility.yul\":1514:1519   */\n              dup2\n                /* \"#utility.yul\":1487:1520   */\n              tag_148\n              jump\t// in\n            tag_196:\n                /* \"#utility.yul\":1387:1526   */\n              swap3\n              swap2\n              pop\n              pop\n              jump\t// out\n                /* \"#utility.yul\":1532:1861   */\n            tag_25:\n                /* \"#utility.yul\":1591:1597   */\n              0x00\n                /* \"#utility.yul\":1640:1642   */\n              0x20\n                /* \"#utility.yul\":1628:1637   */\n              dup3\n                /* \"#utility.yul\":1619:1626   */\n              dup5\n                /* \"#utility.yul\":1615:1638   */\n              sub\n                /* \"#utility.yul\":1611:1643   */\n              slt\n                /* \"#utility.yul\":1608:1727   */\n              iszero\n              tag_198\n              jumpi\n                /* \"#utility.yul\":1646:1725   */\n              tag_199\n              tag_141\n              jump\t// in\n            tag_199:\n                /* \"#utility.yul\":1608:1727   */\n            tag_198:\n                /* \"#utility.yul\":1766:1767   */\n              0x00\n                /* \"#utility.yul\":1791:1844   */\n              tag_200\n                /* \"#utility.yul\":1836:1843   */\n              dup5\n                /* \"#utility.yul\":1827:1833   */\n              dup3\n                /* \"#utility.yul\":1816:1825   */\n              dup6\n                /* \"#utility.yul\":1812:1834   */\n              add\n                /* \"#utility.yul\":1791:1844   */\n              tag_149\n              jump\t// in\n            tag_200:\n                /* \"#utility.yul\":1781:1844   */\n              swap2\n              pop\n                /* \"#utility.yul\":1737:1854   */\n              pop\n                /* \"#utility.yul\":1532:1861   */\n              swap3\n              swap2\n              pop\n              pop\n              jump\t// out\n                /* \"#utility.yul\":1867:1957   */\n            tag_150:\n                /* \"#utility.yul\":1901:1908   */\n              0x00\n                /* \"#utility.yul\":1944:1949   */\n              dup2\n                /* \"#utility.yul\":1937:1950   */\n              iszero\n                /* \"#utility.yul\":1930:1951   */\n              iszero\n                /* \"#utility.yul\":1919:1951   */\n              swap1\n              pop\n                /* \"#utility.yul\":1867:1957   */\n              swap2\n              swap1\n              pop\n              jump\t// out\n                /* \"#utility.yul\":1963:2072   */\n            tag_151:\n                /* \"#utility.yul\":2044:2065   */\n              tag_203\n                /* \"#utility.yul\":2059:2064   */\n              dup2\n                /* \"#utility.yul\":2044:2065   */\n              tag_150\n              jump\t// in\n            tag_203:\n                /* \"#utility.yul\":2039:2042   */\n              dup3\n                /* \"#utility.yul\":2032:2066   */\n              mstore\n                /* \"#utility.yul\":1963:2072   */\n              pop\n              pop\n              jump\t// out\n                /* \"#utility.yul\":2078:2288   */\n            tag_28:\n                /* \"#utility.yul\":2165:2169   */\n              0x00\n                /* \"#utility.yul\":2203:2205   */\n              0x20\n                /* \"#utility.yul\":2192:2201   */\n              dup3\n                /* \"#utility.yul\":2188:2206   */\n              add\n                /* \"#utility.yul\":2180:2206   */\n              swap1\n              pop\n                /* \"#utility.yul\":2216:2281   */\n              tag_205\n                /* \"#utility.yul\":2278:2279   */\n              0x00\n                /* \"#utility.yul\":2267:2276   */\n              dup4\n                /* \"#utility.yul\":2263:2280   */\n              add\n                /* \"#utility.yul\":2254:2260   */\n              dup5\n                /* \"#utility.yul\":2216:2281   */\n              tag_151\n              jump\t// in\n            tag_205:\n                /* \"#utility.yul\":2078:2288   */\n              swap3\n              swap2\n              pop\n              pop\n              jump\t// out\n                /* \"#utility.yul\":2294:2412   */\n            tag_152:\n                /* \"#utility.yul\":2381:2405   */\n              tag_207\n                /* \"#utility.yul\":2399:2404   */\n              dup2\n                /* \"#utility.yul\":2381:2405   */\n              tag_143\n              jump\t// in\n            tag_207:\n                /* \"#utility.yul\":2376:2379   */\n              dup3\n                /* \"#utility.yul\":2369:2406   */\n              mstore\n                /* \"#utility.yul\":2294:2412   */\n              pop\n              pop\n              jump\t// out\n                /* \"#utility.yul\":2418:2640   */\n            tag_33:\n                /* \"#utility.yul\":2511:2515   */\n              0x00\n                /* \"#utility.yul\":2549:2551   */\n              0x20\n                /* \"#utility.yul\":2538:2547   */\n              dup3\n                /* \"#utility.yul\":2534:2552   */\n              add\n                /* \"#utility.yul\":2526:2552   */\n              swap1\n              pop\n                /* \"#utility.yul\":2562:2633   */\n              tag_209\n                /* \"#utility.yul\":2630:2631   */\n              0x00\n                /* \"#utility.yul\":2619:2628   */\n              dup4\n                /* \"#utility.yul\":2615:2632   */\n              add\n                /* \"#utility.yul\":2606:2612   */\n              dup5\n                /* \"#utility.yul\":2562:2633   */\n              tag_152\n              jump\t// in\n            tag_209:\n                /* \"#utility.yul\":2418:2640   */\n              swap3\n              swap2\n              pop\n              pop\n              jump\t// out\n                /* \"#utility.yul\":2646:2745   */\n            tag_153:\n                /* \"#utility.yul\":2698:2704   */\n              0x00\n                /* \"#utility.yul\":2732:2737   */\n              dup2\n                /* \"#utility.yul\":2726:2738   */\n              mload\n                /* \"#utility.yul\":2716:2738   */\n              swap1\n              pop\n                /* \"#utility.yul\":2646:2745   */\n              swap2\n              swap1\n              pop\n              jump\t// out\n                /* \"#utility.yul\":2751:2920   */\n            tag_154:\n                /* \"#utility.yul\":2835:2846   */\n              0x00\n                /* \"#utility.yul\":2869:2875   */\n              dup3\n                /* \"#utility.yul\":2864:2867   */\n              dup3\n                /* \"#utility.yul\":2857:2876   */\n              mstore\n                /* \"#utility.yul\":2909:2913   */\n              0x20\n                /* \"#utility.yul\":2904:2907   */\n              dup3\n                /* \"#utility.yul\":2900:2914   */\n              add\n                /* \"#utility.yul\":2885:2914   */\n              swap1\n              pop\n                /* \"#utility.yul\":2751:2920   */\n              swap3\n              swap2\n              pop\n              pop\n              jump\t// out\n                /* \"#utility.yul\":2926:3233   */\n            tag_155:\n                /* \"#utility.yul\":2994:2995   */\n              0x00\n                /* \"#utility.yul\":3004:3117   */\n            tag_213:\n                /* \"#utility.yul\":3018:3024   */\n              dup4\n                /* \"#utility.yul\":3015:3016   */\n              dup2\n                /* \"#utility.yul\":3012:3025   */\n              lt\n                /* \"#utility.yul\":3004:3117   */\n              iszero\n              tag_215\n              jumpi\n                /* \"#utility.yul\":3103:3104   */\n              dup1\n                /* \"#utility.yul\":3098:3101   */\n              dup3\n                /* \"#utility.yul\":3094:3105   */\n              add\n                /* \"#utility.yul\":3088:3106   */\n              mload\n                /* \"#utility.yul\":3084:3085   */\n              dup2\n                /* \"#utility.yul\":3079:3082   */\n              dup5\n                /* \"#utility.yul\":3075:3086   */\n              add\n                /* \"#utility.yul\":3068:3107   */\n              mstore\n                /* \"#utility.yul\":3040:3042   */\n              0x20\n                /* \"#utility.yul\":3037:3038   */\n              dup2\n                /* \"#utility.yul\":3033:3043   */\n              add\n                /* \"#utility.yul\":3028:3043   */\n              swap1\n              pop\n                /* \"#utility.yul\":3004:3117   */\n              jump(tag_213)\n            tag_215:\n                /* \"#utility.yul\":3135:3141   */\n              dup4\n                /* \"#utility.yul\":3132:3133   */\n              dup2\n                /* \"#utility.yul\":3129:3142   */\n              gt\n                /* \"#utility.yul\":3126:3227   */\n              iszero\n              tag_216\n              jumpi\n                /* \"#utility.yul\":3215:3216   */\n              0x00\n                /* \"#utility.yul\":3206:3212   */\n              dup5\n                /* \"#utility.yul\":3201:3204   */\n              dup5\n                /* \"#utility.yul\":3197:3213   */\n              add\n                /* \"#utility.yul\":3190:3217   */\n              mstore\n                /* \"#utility.yul\":3126:3227   */\n            tag_216:\n                /* \"#utility.yul\":2975:3233   */\n              pop\n                /* \"#utility.yul\":2926:3233   */\n              pop\n              pop\n              pop\n              jump\t// out\n                /* \"#utility.yul\":3239:3341   */\n            tag_156:\n                /* \"#utility.yul\":3280:3286   */\n              0x00\n                /* \"#utility.yul\":3331:3333   */\n              0x1f\n                /* \"#utility.yul\":3327:3334   */\n              not\n                /* \"#utility.yul\":3322:3324   */\n              0x1f\n                /* \"#utility.yul\":3315:3320   */\n              dup4\n                /* \"#utility.yul\":3311:3325   */\n              add\n                /* \"#utility.yul\":3307:3335   */\n              and\n                /* \"#utility.yul\":3297:3335   */\n              swap1\n              pop\n                /* \"#utility.yul\":3239:3341   */\n              swap2\n              swap1\n              pop\n              jump\t// out\n                /* \"#utility.yul\":3347:3711   */\n            tag_157:\n                /* \"#utility.yul\":3435:3438   */\n              0x00\n                /* \"#utility.yul\":3463:3502   */\n              tag_219\n                /* \"#utility.yul\":3496:3501   */\n              dup3\n                /* \"#utility.yul\":3463:3502   */\n              tag_153\n              jump\t// in\n            tag_219:\n                /* \"#utility.yul\":3518:3589   */\n              tag_220\n                /* \"#utility.yul\":3582:3588   */\n              dup2\n                /* \"#utility.yul\":3577:3580   */\n              dup6\n                /* \"#utility.yul\":3518:3589   */\n              tag_154\n              jump\t// in\n            tag_220:\n                /* \"#utility.yul\":3511:3589   */\n              swap4\n              pop\n                /* \"#utility.yul\":3598:3650   */\n              tag_221\n                /* \"#utility.yul\":3643:3649   */\n              dup2\n                /* \"#utility.yul\":3638:3641   */\n              dup6\n                /* \"#utility.yul\":3631:3635   */\n              0x20\n                /* \"#utility.yul\":3624:3629   */\n              dup7\n                /* \"#utility.yul\":3620:3636   */\n              add\n                /* \"#utility.yul\":3598:3650   */\n              tag_155\n              jump\t// in\n            tag_221:\n                /* \"#utility.yul\":3675:3704   */\n              tag_222\n                /* \"#utility.yul\":3697:3703   */\n              dup2\n                /* \"#utility.yul\":3675:3704   */\n              tag_156\n              jump\t// in\n            tag_222:\n                /* \"#utility.yul\":3670:3673   */\n              dup5\n                /* \"#utility.yul\":3666:3705   */\n              add\n                /* \"#utility.yul\":3659:3705   */\n              swap2\n              pop\n                /* \"#utility.yul\":3439:3711   */\n              pop\n                /* \"#utility.yul\":3347:3711   */\n              swap3\n              swap2\n              pop\n              pop\n              jump\t// out\n                /* \"#utility.yul\":3717:3835   */\n            tag_158:\n                /* \"#utility.yul\":3804:3828   */\n              tag_224\n                /* \"#utility.yul\":3822:3827   */\n              dup2\n                /* \"#utility.yul\":3804:3828   */\n              tag_147\n              jump\t// in\n            tag_224:\n                /* \"#utility.yul\":3799:3802   */\n              dup3\n                /* \"#utility.yul\":3792:3829   */\n              mstore\n                /* \"#utility.yul\":3717:3835   */\n              pop\n              pop\n              jump\t// out\n                /* \"#utility.yul\":3841:4707   */\n            tag_38:\n                /* \"#utility.yul\":4094:4098   */\n              0x00\n                /* \"#utility.yul\":4132:4135   */\n              0xc0\n                /* \"#utility.yul\":4121:4130   */\n              dup3\n                /* \"#utility.yul\":4117:4136   */\n              add\n                /* \"#utility.yul\":4109:4136   */\n              swap1\n              pop\n                /* \"#utility.yul\":4182:4191   */\n              dup2\n                /* \"#utility.yul\":4176:4180   */\n              dup2\n                /* \"#utility.yul\":4172:4192   */\n              sub\n                /* \"#utility.yul\":4168:4169   */\n              0x00\n                /* \"#utility.yul\":4157:4166   */\n              dup4\n                /* \"#utility.yul\":4153:4170   */\n              add\n                /* \"#utility.yul\":4146:4193   */\n              mstore\n                /* \"#utility.yul\":4210:4288   */\n              tag_226\n                /* \"#utility.yul\":4283:4287   */\n              dup2\n                /* \"#utility.yul\":4274:4280   */\n              dup10\n                /* \"#utility.yul\":4210:4288   */\n              tag_157\n              jump\t// in\n            tag_226:\n                /* \"#utility.yul\":4202:4288   */\n              swap1\n              pop\n                /* \"#utility.yul\":4298:4370   */\n              tag_227\n                /* \"#utility.yul\":4366:4368   */\n              0x20\n                /* \"#utility.yul\":4355:4364   */\n              dup4\n                /* \"#utility.yul\":4351:4369   */\n              add\n                /* \"#utility.yul\":4342:4348   */\n              dup9\n                /* \"#utility.yul\":4298:4370   */\n              tag_152\n              jump\t// in\n            tag_227:\n                /* \"#utility.yul\":4380:4452   */\n              tag_228\n                /* \"#utility.yul\":4448:4450   */\n              0x40\n                /* \"#utility.yul\":4437:4446   */\n              dup4\n                /* \"#utility.yul\":4433:4451   */\n              add\n                /* \"#utility.yul\":4424:4430   */\n              dup8\n                /* \"#utility.yul\":4380:4452   */\n              tag_152\n              jump\t// in\n            tag_228:\n                /* \"#utility.yul\":4462:4534   */\n              tag_229\n                /* \"#utility.yul\":4530:4532   */\n              0x60\n                /* \"#utility.yul\":4519:4528   */\n              dup4\n                /* \"#utility.yul\":4515:4533   */\n              add\n                /* \"#utility.yul\":4506:4512   */\n              dup7\n                /* \"#utility.yul\":4462:4534   */\n              tag_152\n              jump\t// in\n            tag_229:\n                /* \"#utility.yul\":4544:4617   */\n              tag_230\n                /* \"#utility.yul\":4612:4615   */\n              0x80\n                /* \"#utility.yul\":4601:4610   */\n              dup4\n                /* \"#utility.yul\":4597:4616   */\n              add\n                /* \"#utility.yul\":4588:4594   */\n              dup6\n                /* \"#utility.yul\":4544:4617   */\n              tag_152\n              jump\t// in\n            tag_230:\n                /* \"#utility.yul\":4627:4700   */\n              tag_231\n                /* \"#utility.yul\":4695:4698   */\n              0xa0\n                /* \"#utility.yul\":4684:4693   */\n              dup4\n                /* \"#utility.yul\":4680:4699   */\n              add\n                /* \"#utility.yul\":4671:4677   */\n              dup5\n                /* \"#utility.yul\":4627:4700   */\n              tag_158\n              jump\t// in\n            tag_231:\n                /* \"#utility.yul\":3841:4707   */\n              swap8\n              swap7\n              pop\n              pop\n              pop\n              pop\n              pop\n              pop\n              pop\n              jump\t// out\n                /* \"#utility.yul\":4713:4935   */\n            tag_43:\n                /* \"#utility.yul\":4806:4810   */\n              0x00\n                /* \"#utility.yul\":4844:4846   */\n              0x20\n                /* \"#utility.yul\":4833:4842   */\n              dup3\n                /* \"#utility.yul\":4829:4847   */\n              add\n                /* \"#utility.yul\":4821:4847   */\n              swap1\n              pop\n                /* \"#utility.yul\":4857:4928   */\n              tag_233\n                /* \"#utility.yul\":4925:4926   */\n              0x00\n                /* \"#utility.yul\":4914:4923   */\n              dup4\n                /* \"#utility.yul\":4910:4927   */\n              add\n                /* \"#utility.yul\":4901:4907   */\n              dup5\n                /* \"#utility.yul\":4857:4928   */\n              tag_158\n              jump\t// in\n            tag_233:\n                /* \"#utility.yul\":4713:4935   */\n              swap3\n              swap2\n              pop\n              pop\n              jump\t// out\n                /* \"#utility.yul\":4941:5254   */\n            tag_48:\n                /* \"#utility.yul\":5054:5058   */\n              0x00\n                /* \"#utility.yul\":5092:5094   */\n              0x20\n                /* \"#utility.yul\":5081:5090   */\n              dup3\n                /* \"#utility.yul\":5077:5095   */\n              add\n                /* \"#utility.yul\":5069:5095   */\n              swap1\n              pop\n                /* \"#utility.yul\":5141:5150   */\n              dup2\n                /* \"#utility.yul\":5135:5139   */\n              dup2\n                /* \"#utility.yul\":5131:5151   */\n              sub\n                /* \"#utility.yul\":5127:5128   */\n              0x00\n                /* \"#utility.yul\":5116:5125   */\n              dup4\n                /* \"#utility.yul\":5112:5129   */\n              add\n                /* \"#utility.yul\":5105:5152   */\n              mstore\n                /* \"#utility.yul\":5169:5247   */\n              tag_235\n                /* \"#utility.yul\":5242:5246   */\n              dup2\n                /* \"#utility.yul\":5233:5239   */\n              dup5\n                /* \"#utility.yul\":5169:5247   */\n              tag_157\n              jump\t// in\n            tag_235:\n                /* \"#utility.yul\":5161:5247   */\n              swap1\n              pop\n                /* \"#utility.yul\":4941:5254   */\n              swap3\n              swap2\n              pop\n              pop\n              jump\t// out\n                /* \"#utility.yul\":5260:5364   */\n            tag_159:\n                /* \"#utility.yul\":5305:5312   */\n              0x00\n                /* \"#utility.yul\":5334:5358   */\n              tag_237\n                /* \"#utility.yul\":5352:5357   */\n              dup3\n                /* \"#utility.yul\":5334:5358   */\n              tag_146\n              jump\t// in\n            tag_237:\n                /* \"#utility.yul\":5323:5358   */\n              swap1\n              pop\n                /* \"#utility.yul\":5260:5364   */\n              swap2\n              swap1\n              pop\n              jump\t// out\n                /* \"#utility.yul\":5370:5512   */\n            tag_160:\n                /* \"#utility.yul\":5473:5505   */\n              tag_239\n                /* \"#utility.yul\":5499:5504   */\n              dup2\n                /* \"#utility.yul\":5473:5505   */\n              tag_159\n              jump\t// in\n            tag_239:\n                /* \"#utility.yul\":5468:5471   */\n              dup3\n                /* \"#utility.yul\":5461:5506   */\n              mstore\n                /* \"#utility.yul\":5370:5512   */\n              pop\n              pop\n              jump\t// out\n                /* \"#utility.yul\":5518:6293   */\n            tag_54:\n                /* \"#utility.yul\":5753:5757   */\n              0x00\n                /* \"#utility.yul\":5791:5794   */\n              0xa0\n                /* \"#utility.yul\":5780:5789   */\n              dup3\n                /* \"#utility.yul\":5776:5795   */\n              add\n                /* \"#utility.yul\":5768:5795   */\n              swap1\n              pop\n                /* \"#utility.yul\":5841:5850   */\n              dup2\n                /* \"#utility.yul\":5835:5839   */\n              dup2\n                /* \"#utility.yul\":5831:5851   */\n              sub\n                /* \"#utility.yul\":5827:5828   */\n              0x00\n                /* \"#utility.yul\":5816:5825   */\n              dup4\n                /* \"#utility.yul\":5812:5829   */\n              add\n                /* \"#utility.yul\":5805:5852   */\n              mstore\n                /* \"#utility.yul\":5869:5947   */\n              tag_241\n                /* \"#utility.yul\":5942:5946   */\n              dup2\n                /* \"#utility.yul\":5933:5939   */\n              dup9\n                /* \"#utility.yul\":5869:5947   */\n              tag_157\n              jump\t// in\n            tag_241:\n                /* \"#utility.yul\":5861:5947   */\n              swap1\n              pop\n                /* \"#utility.yul\":5957:6029   */\n              tag_242\n                /* \"#utility.yul\":6025:6027   */\n              0x20\n                /* \"#utility.yul\":6014:6023   */\n              dup4\n                /* \"#utility.yul\":6010:6028   */\n              add\n                /* \"#utility.yul\":6001:6007   */\n              dup8\n                /* \"#utility.yul\":5957:6029   */\n              tag_152\n              jump\t// in\n            tag_242:\n                /* \"#utility.yul\":6039:6127   */\n              tag_243\n                /* \"#utility.yul\":6123:6125   */\n              0x40\n                /* \"#utility.yul\":6112:6121   */\n              dup4\n                /* \"#utility.yul\":6108:6126   */\n              add\n                /* \"#utility.yul\":6099:6105   */\n              dup7\n                /* \"#utility.yul\":6039:6127   */\n              tag_160\n              jump\t// in\n            tag_243:\n                /* \"#utility.yul\":6137:6203   */\n              tag_244\n                /* \"#utility.yul\":6199:6201   */\n              0x60\n                /* \"#utility.yul\":6188:6197   */\n              dup4\n                /* \"#utility.yul\":6184:6202   */\n              add\n                /* \"#utility.yul\":6175:6181   */\n              dup6\n                /* \"#utility.yul\":6137:6203   */\n              tag_151\n              jump\t// in\n            tag_244:\n                /* \"#utility.yul\":6213:6286   */\n              tag_245\n                /* \"#utility.yul\":6281:6284   */\n              0x80\n                /* \"#utility.yul\":6270:6279   */\n              dup4\n                /* \"#utility.yul\":6266:6285   */\n              add\n                /* \"#utility.yul\":6257:6263   */\n              dup5\n                /* \"#utility.yul\":6213:6286   */\n              tag_152\n              jump\t// in\n            tag_245:\n                /* \"#utility.yul\":5518:6293   */\n              swap7\n              swap6\n              pop\n              pop\n              pop\n              pop\n              pop\n              pop\n              jump\t// out\n                /* \"#utility.yul\":6299:6416   */\n            tag_161:\n                /* \"#utility.yul\":6408:6409   */\n              0x00\n                /* \"#utility.yul\":6405:6406   */\n              dup1\n                /* \"#utility.yul\":6398:6410   */\n              revert\n                /* \"#utility.yul\":6422:6539   */\n            tag_162:\n                /* \"#utility.yul\":6531:6532   */\n              0x00\n                /* \"#utility.yul\":6528:6529   */\n              dup1\n                /* \"#utility.yul\":6521:6533   */\n              revert\n                /* \"#utility.yul\":6545:6725   */\n            tag_163:\n                /* \"#utility.yul\":6593:6670   */\n              0x4e487b7100000000000000000000000000000000000000000000000000000000\n                /* \"#utility.yul\":6590:6591   */\n              0x00\n                /* \"#utility.yul\":6583:6671   */\n              mstore\n                /* \"#utility.yul\":6690:6694   */\n              0x41\n                /* \"#utility.yul\":6687:6688   */\n              0x04\n                /* \"#utility.yul\":6680:6695   */\n              mstore\n                /* \"#utility.yul\":6714:6718   */\n              0x24\n                /* \"#utility.yul\":6711:6712   */\n              0x00\n                /* \"#utility.yul\":6704:6719   */\n              revert\n                /* \"#utility.yul\":6731:7012   */\n            tag_164:\n                /* \"#utility.yul\":6814:6841   */\n              tag_250\n                /* \"#utility.yul\":6836:6840   */\n              dup3\n                /* \"#utility.yul\":6814:6841   */\n              tag_156\n              jump\t// in\n            tag_250:\n                /* \"#utility.yul\":6806:6812   */\n              dup2\n                /* \"#utility.yul\":6802:6842   */\n              add\n                /* \"#utility.yul\":6944:6950   */\n              dup2\n                /* \"#utility.yul\":6932:6942   */\n              dup2\n                /* \"#utility.yul\":6929:6951   */\n              lt\n                /* \"#utility.yul\":6908:6926   */\n              0xffffffffffffffff\n                /* \"#utility.yul\":6896:6906   */\n              dup3\n                /* \"#utility.yul\":6893:6927   */\n              gt\n                /* \"#utility.yul\":6890:6952   */\n              or\n                /* \"#utility.yul\":6887:6975   */\n              iszero\n              tag_251\n              jumpi\n                /* \"#utility.yul\":6955:6973   */\n              tag_252\n              tag_163\n              jump\t// in\n            tag_252:\n                /* \"#utility.yul\":6887:6975   */\n            tag_251:\n                /* \"#utility.yul\":6995:7005   */\n              dup1\n                /* \"#utility.yul\":6991:6993   */\n              0x40\n                /* \"#utility.yul\":6984:7006   */\n              mstore\n                /* \"#utility.yul\":6774:7012   */\n              pop\n                /* \"#utility.yul\":6731:7012   */\n              pop\n              pop\n              jump\t// out\n                /* \"#utility.yul\":7018:7147   */\n            tag_165:\n                /* \"#utility.yul\":7052:7058   */\n              0x00\n                /* \"#utility.yul\":7079:7099   */\n              tag_254\n              tag_140\n              jump\t// in\n            tag_254:\n                /* \"#utility.yul\":7069:7099   */\n              swap1\n              pop\n                /* \"#utility.yul\":7108:7141   */\n              tag_255\n                /* \"#utility.yul\":7136:7140   */\n              dup3\n                /* \"#utility.yul\":7128:7134   */\n              dup3\n                /* \"#utility.yul\":7108:7141   */\n              tag_164\n              jump\t// in\n            tag_255:\n                /* \"#utility.yul\":7018:7147   */\n              swap2\n              swap1\n              pop\n              jump\t// out\n                /* \"#utility.yul\":7153:7461   */\n            tag_166:\n                /* \"#utility.yul\":7215:7219   */\n              0x00\n                /* \"#utility.yul\":7305:7323   */\n              0xffffffffffffffff\n                /* \"#utility.yul\":7297:7303   */\n              dup3\n                /* \"#utility.yul\":7294:7324   */\n              gt\n                /* \"#utility.yul\":7291:7347   */\n              iszero\n              tag_257\n              jumpi\n                /* \"#utility.yul\":7327:7345   */\n              tag_258\n              tag_163\n              jump\t// in\n            tag_258:\n                /* \"#utility.yul\":7291:7347   */\n            tag_257:\n                /* \"#utility.yul\":7365:7394   */\n              tag_259\n                /* \"#utility.yul\":7387:7393   */\n              dup3\n                /* \"#utility.yul\":7365:7394   */\n              tag_156\n              jump\t// in\n            tag_259:\n                /* \"#utility.yul\":7357:7394   */\n              swap1\n              pop\n                /* \"#utility.yul\":7449:7453   */\n              0x20\n                /* \"#utility.yul\":7443:7447   */\n              dup2\n                /* \"#utility.yul\":7439:7454   */\n              add\n                /* \"#utility.yul\":7431:7454   */\n              swap1\n              pop\n                /* \"#utility.yul\":7153:7461   */\n              swap2\n              swap1\n              pop\n              jump\t// out\n                /* \"#utility.yul\":7467:7621   */\n            tag_167:\n                /* \"#utility.yul\":7551:7557   */\n              dup3\n                /* \"#utility.yul\":7546:7549   */\n              dup2\n                /* \"#utility.yul\":7541:7544   */\n              dup4\n                /* \"#utility.yul\":7528:7558   */\n              calldatacopy\n                /* \"#utility.yul\":7613:7614   */\n              0x00\n                /* \"#utility.yul\":7604:7610   */\n              dup4\n                /* \"#utility.yul\":7599:7602   */\n              dup4\n                /* \"#utility.yul\":7595:7611   */\n              add\n                /* \"#utility.yul\":7588:7615   */\n              mstore\n                /* \"#utility.yul\":7467:7621   */\n              pop\n              pop\n              pop\n              jump\t// out\n                /* \"#utility.yul\":7627:8039   */\n            tag_168:\n                /* \"#utility.yul\":7705:7710   */\n              0x00\n                /* \"#utility.yul\":7730:7796   */\n              tag_262\n                /* \"#utility.yul\":7746:7795   */\n              tag_263\n                /* \"#utility.yul\":7788:7794   */\n              dup5\n                /* \"#utility.yul\":7746:7795   */\n              tag_166\n              jump\t// in\n            tag_263:\n                /* \"#utility.yul\":7730:7796   */\n              tag_165\n              jump\t// in\n            tag_262:\n                /* \"#utility.yul\":7721:7796   */\n              swap1\n              pop\n                /* \"#utility.yul\":7819:7825   */\n              dup3\n                /* \"#utility.yul\":7812:7817   */\n              dup2\n                /* \"#utility.yul\":7805:7826   */\n              mstore\n                /* \"#utility.yul\":7857:7861   */\n              0x20\n                /* \"#utility.yul\":7850:7855   */\n              dup2\n                /* \"#utility.yul\":7846:7862   */\n              add\n                /* \"#utility.yul\":7895:7898   */\n              dup5\n                /* \"#utility.yul\":7886:7892   */\n              dup5\n                /* \"#utility.yul\":7881:7884   */\n              dup5\n                /* \"#utility.yul\":7877:7893   */\n              add\n                /* \"#utility.yul\":7874:7899   */\n              gt\n                /* \"#utility.yul\":7871:7983   */\n              iszero\n              tag_264\n              jumpi\n                /* \"#utility.yul\":7902:7981   */\n              tag_265\n              tag_162\n              jump\t// in\n            tag_265:\n                /* \"#utility.yul\":7871:7983   */\n            tag_264:\n                /* \"#utility.yul\":7992:8033   */\n              tag_266\n                /* \"#utility.yul\":8026:8032   */\n              dup5\n                /* \"#utility.yul\":8021:8024   */\n              dup3\n                /* \"#utility.yul\":8016:8019   */\n              dup6\n                /* \"#utility.yul\":7992:8033   */\n              tag_167\n              jump\t// in\n            tag_266:\n                /* \"#utility.yul\":7711:8039   */\n              pop\n                /* \"#utility.yul\":7627:8039   */\n              swap4\n              swap3\n              pop\n              pop\n              pop\n              jump\t// out\n                /* \"#utility.yul\":8059:8399   */\n            tag_169:\n                /* \"#utility.yul\":8115:8120   */\n              0x00\n                /* \"#utility.yul\":8164:8167   */\n              dup3\n                /* \"#utility.yul\":8157:8161   */\n              0x1f\n                /* \"#utility.yul\":8149:8155   */\n              dup4\n                /* \"#utility.yul\":8145:8162   */\n              add\n                /* \"#utility.yul\":8141:8168   */\n              slt\n                /* \"#utility.yul\":8131:8253   */\n              tag_268\n              jumpi\n                /* \"#utility.yul\":8172:8251   */\n              tag_269\n              tag_161\n              jump\t// in\n            tag_269:\n                /* \"#utility.yul\":8131:8253   */\n            tag_268:\n                /* \"#utility.yul\":8289:8295   */\n              dup2\n                /* \"#utility.yul\":8276:8296   */\n              calldataload\n                /* \"#utility.yul\":8314:8393   */\n              tag_270\n                /* \"#utility.yul\":8389:8392   */\n              dup5\n                /* \"#utility.yul\":8381:8387   */\n              dup3\n                /* \"#utility.yul\":8374:8378   */\n              0x20\n                /* \"#utility.yul\":8366:8372   */\n              dup7\n                /* \"#utility.yul\":8362:8379   */\n              add\n                /* \"#utility.yul\":8314:8393   */\n              tag_168\n              jump\t// in\n            tag_270:\n                /* \"#utility.yul\":8305:8393   */\n              swap2\n              pop\n                /* \"#utility.yul\":8121:8399   */\n              pop\n                /* \"#utility.yul\":8059:8399   */\n              swap3\n              swap2\n              pop\n              pop\n              jump\t// out\n                /* \"#utility.yul\":8405:8543   */\n            tag_170:\n                /* \"#utility.yul\":8486:8518   */\n              tag_272\n                /* \"#utility.yul\":8512:8517   */\n              dup2\n                /* \"#utility.yul\":8486:8518   */\n              tag_159\n              jump\t// in\n            tag_272:\n                /* \"#utility.yul\":8479:8484   */\n              dup2\n                /* \"#utility.yul\":8476:8519   */\n              eq\n                /* \"#utility.yul\":8466:8537   */\n              tag_273\n              jumpi\n                /* \"#utility.yul\":8533:8534   */\n              0x00\n                /* \"#utility.yul\":8530:8531   */\n              dup1\n                /* \"#utility.yul\":8523:8535   */\n              revert\n                /* \"#utility.yul\":8466:8537   */\n            tag_273:\n                /* \"#utility.yul\":8405:8543   */\n              pop\n              jump\t// out\n                /* \"#utility.yul\":8549:8704   */\n            tag_171:\n                /* \"#utility.yul\":8603:8608   */\n              0x00\n                /* \"#utility.yul\":8641:8647   */\n              dup2\n                /* \"#utility.yul\":8628:8648   */\n              calldataload\n                /* \"#utility.yul\":8619:8648   */\n              swap1\n              pop\n                /* \"#utility.yul\":8657:8698   */\n              tag_275\n                /* \"#utility.yul\":8692:8697   */\n              dup2\n                /* \"#utility.yul\":8657:8698   */\n              tag_170\n              jump\t// in\n            tag_275:\n                /* \"#utility.yul\":8549:8704   */\n              swap3\n              swap2\n              pop\n              pop\n              jump\t// out\n                /* \"#utility.yul\":8710:9525   */\n            tag_61:\n                /* \"#utility.yul\":8805:8811   */\n              0x00\n                /* \"#utility.yul\":8813:8819   */\n              dup1\n                /* \"#utility.yul\":8821:8827   */\n              0x00\n                /* \"#utility.yul\":8870:8872   */\n              0x60\n                /* \"#utility.yul\":8858:8867   */\n              dup5\n                /* \"#utility.yul\":8849:8856   */\n              dup7\n                /* \"#utility.yul\":8845:8868   */\n              sub\n                /* \"#utility.yul\":8841:8873   */\n              slt\n                /* \"#utility.yul\":8838:8957   */\n              iszero\n              tag_277\n              jumpi\n                /* \"#utility.yul\":8876:8955   */\n              tag_278\n              tag_141\n              jump\t// in\n            tag_278:\n                /* \"#utility.yul\":8838:8957   */\n            tag_277:\n                /* \"#utility.yul\":9024:9025   */\n              0x00\n                /* \"#utility.yul\":9013:9022   */\n              dup5\n                /* \"#utility.yul\":9009:9026   */\n              add\n                /* \"#utility.yul\":8996:9027   */\n              calldataload\n                /* \"#utility.yul\":9054:9072   */\n              0xffffffffffffffff\n                /* \"#utility.yul\":9046:9052   */\n              dup2\n                /* \"#utility.yul\":9043:9073   */\n              gt\n                /* \"#utility.yul\":9040:9157   */\n              iszero\n              tag_279\n              jumpi\n                /* \"#utility.yul\":9076:9155   */\n              tag_280\n              tag_142\n              jump\t// in\n            tag_280:\n                /* \"#utility.yul\":9040:9157   */\n            tag_279:\n                /* \"#utility.yul\":9181:9244   */\n              tag_281\n                /* \"#utility.yul\":9236:9243   */\n              dup7\n                /* \"#utility.yul\":9227:9233   */\n              dup3\n                /* \"#utility.yul\":9216:9225   */\n              dup8\n                /* \"#utility.yul\":9212:9234   */\n              add\n                /* \"#utility.yul\":9181:9244   */\n              tag_169\n              jump\t// in\n            tag_281:\n                /* \"#utility.yul\":9171:9244   */\n              swap4\n              pop\n                /* \"#utility.yul\":8967:9254   */\n              pop\n                /* \"#utility.yul\":9293:9295   */\n              0x20\n                /* \"#utility.yul\":9319:9372   */\n              tag_282\n                /* \"#utility.yul\":9364:9371   */\n              dup7\n                /* \"#utility.yul\":9355:9361   */\n              dup3\n                /* \"#utility.yul\":9344:9353   */\n              dup8\n                /* \"#utility.yul\":9340:9362   */\n              add\n                /* \"#utility.yul\":9319:9372   */\n              tag_145\n              jump\t// in\n            tag_282:\n                /* \"#utility.yul\":9309:9372   */\n              swap3\n              pop\n                /* \"#utility.yul\":9264:9382   */\n              pop\n                /* \"#utility.yul\":9421:9423   */\n              0x40\n                /* \"#utility.yul\":9447:9508   */\n              tag_283\n                /* \"#utility.yul\":9500:9507   */\n              dup7\n                /* \"#utility.yul\":9491:9497   */\n              dup3\n                /* \"#utility.yul\":9480:9489   */\n              dup8\n                /* \"#utility.yul\":9476:9498   */\n              add\n                /* \"#utility.yul\":9447:9508   */\n              tag_171\n              jump\t// in\n            tag_283:\n                /* \"#utility.yul\":9437:9508   */\n              swap2\n              pop\n                /* \"#utility.yul\":9392:9518   */\n              pop\n                /* \"#utility.yul\":8710:9525   */\n              swap3\n              pop\n              swap3\n              pop\n              swap3\n              jump\t// out\n                /* \"#utility.yul\":9531:9711   */\n            tag_83:\n                /* \"#utility.yul\":9579:9656   */\n              0x4e487b7100000000000000000000000000000000000000000000000000000000\n                /* \"#utility.yul\":9576:9577   */\n              0x00\n                /* \"#utility.yul\":9569:9657   */\n              mstore\n                /* \"#utility.yul\":9676:9680   */\n              0x32\n                /* \"#utility.yul\":9673:9674   */\n              0x04\n                /* \"#utility.yul\":9666:9681   */\n              mstore\n                /* \"#utility.yul\":9700:9704   */\n              0x24\n                /* \"#utility.yul\":9697:9698   */\n              0x00\n                /* \"#utility.yul\":9690:9705   */\n              revert\n                /* \"#utility.yul\":9717:9897   */\n            tag_172:\n                /* \"#utility.yul\":9765:9842   */\n              0x4e487b7100000000000000000000000000000000000000000000000000000000\n                /* \"#utility.yul\":9762:9763   */\n              0x00\n                /* \"#utility.yul\":9755:9843   */\n              mstore\n                /* \"#utility.yul\":9862:9866   */\n              0x12\n                /* \"#utility.yul\":9859:9860   */\n              0x04\n                /* \"#utility.yul\":9852:9867   */\n              mstore\n                /* \"#utility.yul\":9886:9890   */\n              0x24\n                /* \"#utility.yul\":9883:9884   */\n              0x00\n                /* \"#utility.yul\":9876:9891   */\n              revert\n                /* \"#utility.yul\":9903:10083   */\n            tag_173:\n                /* \"#utility.yul\":9951:10028   */\n              0x4e487b7100000000000000000000000000000000000000000000000000000000\n                /* \"#utility.yul\":9948:9949   */\n              0x00\n                /* \"#utility.yul\":9941:10029   */\n              mstore\n                /* \"#utility.yul\":10048:10052   */\n              0x11\n                /* \"#utility.yul\":10045:10046   */\n              0x04\n                /* \"#utility.yul\":10038:10053   */\n              mstore\n                /* \"#utility.yul\":10072:10076   */\n              0x24\n                /* \"#utility.yul\":10069:10070   */\n              0x00\n                /* \"#utility.yul\":10062:10077   */\n              revert\n                /* \"#utility.yul\":10089:10274   */\n            tag_86:\n                /* \"#utility.yul\":10129:10130   */\n              0x00\n                /* \"#utility.yul\":10146:10166   */\n              tag_288\n                /* \"#utility.yul\":10164:10165   */\n              dup3\n                /* \"#utility.yul\":10146:10166   */\n              tag_143\n              jump\t// in\n            tag_288:\n                /* \"#utility.yul\":10141:10166   */\n              swap2\n              pop\n                /* \"#utility.yul\":10180:10200   */\n              tag_289\n                /* \"#utility.yul\":10198:10199   */\n              dup4\n                /* \"#utility.yul\":10180:10200   */\n              tag_143\n              jump\t// in\n            tag_289:\n                /* \"#utility.yul\":10175:10200   */\n              swap3\n              pop\n                /* \"#utility.yul\":10219:10220   */\n              dup3\n                /* \"#utility.yul\":10209:10244   */\n              tag_290\n              jumpi\n                /* \"#utility.yul\":10224:10242   */\n              tag_291\n              tag_172\n              jump\t// in\n            tag_291:\n                /* \"#utility.yul\":10209:10244   */\n            tag_290:\n                /* \"#utility.yul\":10266:10267   */\n              dup3\n                /* \"#utility.yul\":10263:10264   */\n              dup3\n                /* \"#utility.yul\":10259:10268   */\n              div\n                /* \"#utility.yul\":10254:10268   */\n              swap1\n              pop\n                /* \"#utility.yul\":10089:10274   */\n              swap3\n              swap2\n              pop\n              pop\n              jump\t// out\n                /* \"#utility.yul\":10280:10460   */\n            tag_174:\n                /* \"#utility.yul\":10328:10405   */\n              0x4e487b7100000000000000000000000000000000000000000000000000000000\n                /* \"#utility.yul\":10325:10326   */\n              0x00\n                /* \"#utility.yul\":10318:10406   */\n              mstore\n                /* \"#utility.yul\":10425:10429   */\n              0x22\n                /* \"#utility.yul\":10422:10423   */\n              0x04\n                /* \"#utility.yul\":10415:10430   */\n              mstore\n                /* \"#utility.yul\":10449:10453   */\n              0x24\n                /* \"#utility.yul\":10446:10447   */\n              0x00\n                /* \"#utility.yul\":10439:10454   */\n              revert\n                /* \"#utility.yul\":10466:10786   */\n            tag_93:\n                /* \"#utility.yul\":10510:10516   */\n              0x00\n                /* \"#utility.yul\":10547:10548   */\n              0x02\n                /* \"#utility.yul\":10541:10545   */\n              dup3\n                /* \"#utility.yul\":10537:10549   */\n              div\n                /* \"#utility.yul\":10527:10549   */\n              swap1\n              pop\n                /* \"#utility.yul\":10594:10595   */\n              0x01\n                /* \"#utility.yul\":10588:10592   */\n              dup3\n                /* \"#utility.yul\":10584:10596   */\n              and\n                /* \"#utility.yul\":10615:10633   */\n              dup1\n                /* \"#utility.yul\":10605:10686   */\n              tag_294\n              jumpi\n                /* \"#utility.yul\":10671:10675   */\n              0x7f\n                /* \"#utility.yul\":10663:10669   */\n              dup3\n                /* \"#utility.yul\":10659:10676   */\n              and\n                /* \"#utility.yul\":10649:10676   */\n              swap2\n              pop\n                /* \"#utility.yul\":10605:10686   */\n            tag_294:\n                /* \"#utility.yul\":10733:10735   */\n              0x20\n                /* \"#utility.yul\":10725:10731   */\n              dup3\n                /* \"#utility.yul\":10722:10736   */\n              lt\n                /* \"#utility.yul\":10702:10720   */\n              dup2\n                /* \"#utility.yul\":10699:10737   */\n              sub\n                /* \"#utility.yul\":10696:10780   */\n              tag_295\n              jumpi\n                /* \"#utility.yul\":10752:10770   */\n              tag_296\n              tag_174\n              jump\t// in\n            tag_296:\n                /* \"#utility.yul\":10696:10780   */\n            tag_295:\n                /* \"#utility.yul\":10517:10786   */\n              pop\n                /* \"#utility.yul\":10466:10786   */\n              swap2\n              swap1\n              pop\n              jump\t// out\n                /* \"#utility.yul\":10792:11025   */\n            tag_120:\n                /* \"#utility.yul\":10831:10834   */\n              0x00\n                /* \"#utility.yul\":10854:10878   */\n              tag_298\n                /* \"#utility.yul\":10872:10877   */\n              dup3\n                /* \"#utility.yul\":10854:10878   */\n              tag_143\n              jump\t// in\n            tag_298:\n                /* \"#utility.yul\":10845:10878   */\n              swap2\n              pop\n                /* \"#utility.yul\":10900:10966   */\n              0xffffffffffffffffffffffffffffffffffffffffffffffffffffffffffffffff\n                /* \"#utility.yul\":10893:10898   */\n              dup3\n                /* \"#utility.yul\":10890:10967   */\n              sub\n                /* \"#utility.yul\":10887:10990   */\n              tag_299\n              jumpi\n                /* \"#utility.yul\":10970:10988   */\n              tag_300\n              tag_173\n              jump\t// in\n            tag_300:\n                /* \"#utility.yul\":10887:10990   */\n            tag_299:\n                /* \"#utility.yul\":11017:11018   */\n              0x01\n                /* \"#utility.yul\":11010:11015   */\n              dup3\n                /* \"#utility.yul\":11006:11019   */\n              add\n                /* \"#utility.yul\":10999:11019   */\n              swap1\n              pop\n                /* \"#utility.yul\":10792:11025   */\n              swap2\n              swap1\n              pop\n              jump\t// out\n\n            auxdata: 0xa2646970667358221220126681ffe0468c83bbd7d531cd5b0608bd2063823f0e85bec0ede8fff9682e1064736f6c634300080e0033\n        }\n    }\n\n    auxdata: 0xa26469706673582212201cbe4f1c95517657df5acba494fb2f090b10d1e12d8ad89cf4437e97f4a71a5564736f6c634300080e0033\n}\n","bytecode":{"linkReferences":{},"object":"608060405234801561001057600080fd5b50611d68806100206000396000f3fe60806040523480156200001157600080fd5b5060043610620000465760003560e01c8063339d50a5146200004b5780634220d65614620000815780634acb9d4f14620000a1575b600080fd5b62000069600480360381019062000063919062000299565b620000c3565b60405162000078919062000310565b60405180910390f35b6200009f60048036038101906200009991906200048f565b62000103565b005b620000ab620001ac565b604051620000ba9190620005c3565b60405180910390f35b60008181548110620000d457600080fd5b906000526020600020016000915054906101000a900473ffffffffffffffffffffffffffffffffffffffff1681565b600082823360405162000116906200023c565b62000124939291906200068b565b604051809103906000f08015801562000141573d6000803e3d6000fd5b5090506000819080600181540180825580915050600190039060005260206000200160009091909190916101000a81548173ffffffffffffffffffffffffffffffffffffffff021916908373ffffffffffffffffffffffffffffffffffffffff160217905550505050565b606060008054806020026020016040519081016040528092919081815260200182805480156200023257602002820191906000526020600020905b8160009054906101000a900473ffffffffffffffffffffffffffffffffffffffff1673ffffffffffffffffffffffffffffffffffffffff1681526020019060010190808311620001e7575b5050505050905090565b61166380620006d083390190565b6000604051905090565b600080fd5b600080fd5b6000819050919050565b62000273816200025e565b81146200027f57600080fd5b50565b600081359050620002938162000268565b92915050565b600060208284031215620002b257620002b162000254565b5b6000620002c28482850162000282565b91505092915050565b600073ffffffffffffffffffffffffffffffffffffffff82169050919050565b6000620002f882620002cb565b9050919050565b6200030a81620002eb565b82525050565b6000602082019050620003276000830184620002ff565b92915050565b600080fd5b600080fd5b6000601f19601f8301169050919050565b7f4e487b7100000000000000000000000000000000000000000000000000000000600052604160045260246000fd5b620003828262000337565b810181811067ffffffffffffffff82111715620003a457620003a362000348565b5b80604052505050565b6000620003b96200024a565b9050620003c7828262000377565b919050565b600067ffffffffffffffff821115620003ea57620003e962000348565b5b620003f58262000337565b9050602081019050919050565b82818337600083830152505050565b6000620004286200042284620003cc565b620003ad565b90508281526020810184848401111562000447576200044662000332565b5b6200045484828562000402565b509392505050565b600082601f8301126200047457620004736200032d565b5b81356200048684826020860162000411565b91505092915050565b60008060408385031215620004a957620004a862000254565b5b6000620004b98582860162000282565b925050602083013567ffffffffffffffff811115620004dd57620004dc62000259565b5b620004eb858286016200045c565b9150509250929050565b600081519050919050565b600082825260208201905092915050565b6000819050602082019050919050565b6200052c81620002eb565b82525050565b600062000540838362000521565b60208301905092915050565b6000602082019050919050565b60006200056682620004f5565b62000572818562000500565b93506200057f8362000511565b8060005b83811015620005b65781516200059a888262000532565b9750620005a7836200054c565b92505060018101905062000583565b5085935050505092915050565b60006020820190508181036000830152620005df818462000559565b905092915050565b620005f2816200025e565b82525050565b600081519050919050565b600082825260208201905092915050565b60005b838110156200063457808201518184015260208101905062000617565b8381111562000644576000848401525b50505050565b60006200065782620005f8565b62000663818562000603565b93506200067581856020860162000614565b620006808162000337565b840191505092915050565b6000606082019050620006a26000830186620005e7565b8181036020830152620006b681856200064a565b9050620006c76040830184620002ff565b94935050505056fe60806040523480156200001157600080fd5b50604051620016633803806200166383398181016040528101906200003791906200038d565b806000806101000a81548173ffffffffffffffffffffffffffffffffffffffff021916908373ffffffffffffffffffffffffffffffffffffffff16021790555082600281905550816003908051906020019062000096929190620000a0565b505050506200046c565b828054620000ae9062000437565b90600052602060002090601f016020900481019282620000d257600085556200011e565b82601f10620000ed57805160ff19168380011785556200011e565b828001600101855582156200011e579182015b828111156200011d57825182559160200191906001019062000100565b5b5090506200012d919062000131565b5090565b5b808211156200014c57600081600090555060010162000132565b5090565b6000604051905090565b600080fd5b600080fd5b6000819050919050565b620001798162000164565b81146200018557600080fd5b50565b60008151905062000199816200016e565b92915050565b600080fd5b600080fd5b6000601f19601f8301169050919050565b7f4e487b7100000000000000000000000000000000000000000000000000000000600052604160045260246000fd5b620001f482620001a9565b810181811067ffffffffffffffff82111715620002165762000215620001ba565b5b80604052505050565b60006200022b62000150565b9050620002398282620001e9565b919050565b600067ffffffffffffffff8211156200025c576200025b620001ba565b5b6200026782620001a9565b9050602081019050919050565b60005b838110156200029457808201518184015260208101905062000277565b83811115620002a4576000848401525b50505050565b6000620002c1620002bb846200023e565b6200021f565b905082815260208101848484011115620002e057620002df620001a4565b5b620002ed84828562000274565b509392505050565b600082601f8301126200030d576200030c6200019f565b5b81516200031f848260208601620002aa565b91505092915050565b600073ffffffffffffffffffffffffffffffffffffffff82169050919050565b6000620003558262000328565b9050919050565b620003678162000348565b81146200037357600080fd5b50565b60008151905062000387816200035c565b92915050565b600080600060608486031215620003a957620003a86200015a565b5b6000620003b98682870162000188565b935050602084015167ffffffffffffffff811115620003dd57620003dc6200015f565b5b620003eb86828701620002f5565b9250506040620003fe8682870162000376565b9150509250925092565b7f4e487b7100000000000000000000000000000000000000000000000000000000600052602260045260246000fd5b600060028204905060018216806200045057607f821691505b60208210810362000466576200046562000408565b5b50919050565b6111e7806200047c6000396000f3fe6080604052600436106100c25760003560e01c806381d12c581161007f578063937e09b111610059578063937e09b114610266578063995c5e9d14610291578063d7bb99ba146102ce578063d7d1bbdb146102d8576100c2565b806381d12c58146101de57806382fde0931461021f5780638a9cfd551461024a576100c2565b806303441006146100c75780630a144391146100f05780633fad18341461012d5780634051ddac14610158578063481c6a75146101885780637284e416146101b3575b600080fd5b3480156100d357600080fd5b506100ee60048036038101906100e99190610b9b565b610301565b005b3480156100fc57600080fd5b5061011760048036038101906101129190610c26565b61042d565b6040516101249190610c6e565b60405180910390f35b34801561013957600080fd5b5061014261044d565b60405161014f9190610c98565b60405180910390f35b34801561016457600080fd5b5061016d61045a565b60405161017f96959493929190610d5b565b60405180910390f35b34801561019457600080fd5b5061019d610534565b6040516101aa9190610dc3565b60405180910390f35b3480156101bf57600080fd5b506101c8610558565b6040516101d59190610dde565b60405180910390f35b3480156101ea57600080fd5b5061020560048036038101906102009190610b9b565b6105e6565b604051610216959493929190610e21565b60405180910390f35b34801561022b57600080fd5b506102346106e1565b6040516102419190610c98565b60405180910390f35b610264600480360381019061025f9190610fdc565b6106e7565b005b34801561027257600080fd5b5061027b6107f4565b6040516102889190610c98565b60405180910390f35b34801561029d57600080fd5b506102b860048036038101906102b39190610c26565b6107fa565b6040516102c59190610c6e565b60405180910390f35b6102d661081a565b005b3480156102e457600080fd5b506102ff60048036038101906102fa9190610b9b565b610945565b005b60008054906101000a900473ffffffffffffffffffffffffffffffffffffffff1673ffffffffffffffffffffffffffffffffffffffff163373ffffffffffffffffffffffffffffffffffffffff161461035957600080fd5b60006001828154811061036f5761036e61104b565b5b90600052602060002090600502019050600260045461038e91906110d8565b81600301541161039d57600080fd5b8060020160009054906101000a900473ffffffffffffffffffffffffffffffffffffffff1673ffffffffffffffffffffffffffffffffffffffff166108fc82600101549081150290604051600060405180830381858888f1935050505015801561040b573d6000803e3d6000fd5b5060018160020160146101000a81548160ff0219169083151502179055505050565b60056020528060005260406000206000915054906101000a900460ff1681565b6000600180549050905090565b6060600080600080600060036002544760018054905060045460008054906101000a900473ffffffffffffffffffffffffffffffffffffffff168580546104a090611138565b80601f01602080910402602001604051908101604052809291908181526020018280546104cc90611138565b80156105195780601f106104ee57610100808354040283529160200191610519565b820191906000526020600020905b8154815290600101906020018083116104fc57829003601f168201915b50505050509550955095509550955095509550909192939495565b60008054906101000a900473ffffffffffffffffffffffffffffffffffffffff1681565b6003805461056590611138565b80601f016020809104026020016040519081016040528092919081815260200182805461059190611138565b80156105de5780601f106105b3576101008083540402835291602001916105de565b820191906000526020600020905b8154815290600101906020018083116105c157829003601f168201915b505050505081565b600181815481106105f657600080fd5b906000526020600020906005020160009150905080600001805461061990611138565b80601f016020809104026020016040519081016040528092919081815260200182805461064590611138565b80156106925780601f1061066757610100808354040283529160200191610692565b820191906000526020600020905b81548152906001019060200180831161067557829003601f168201915b5050505050908060010154908060020160009054906101000a900473ffffffffffffffffffffffffffffffffffffffff16908060020160149054906101000a900460ff16908060030154905085565b60045481565b60008054906101000a900473ffffffffffffffffffffffffffffffffffffffff1673ffffffffffffffffffffffffffffffffffffffff163373ffffffffffffffffffffffffffffffffffffffff161461073f57600080fd5b60006001808160018154018082558091505003906000526020600020906005020190508381600001908051906020019061077a929190610aae565b50828160010181905550818160020160006101000a81548173ffffffffffffffffffffffffffffffffffffffff021916908373ffffffffffffffffffffffffffffffffffffffff16021790555060008160020160146101000a81548160ff0219169083151502179055506000816003018190555050505050565b60025481565b60066020528060005260406000206000915054906101000a900460ff1681565b60025434101561082957600080fd5b6001600560003373ffffffffffffffffffffffffffffffffffffffff1673ffffffffffffffffffffffffffffffffffffffff16815260200190815260200160002060006101000a81548160ff021916908315150217905550600660003373ffffffffffffffffffffffffffffffffffffffff1673ffffffffffffffffffffffffffffffffffffffff16815260200190815260200160002060009054906101000a900460ff16610943576001600660003373ffffffffffffffffffffffffffffffffffffffff1673ffffffffffffffffffffffffffffffffffffffff16815260200190815260200160002060006101000a81548160ff0219169083151502179055506004600081548092919061093d90611169565b91905055505b565b600560003373ffffffffffffffffffffffffffffffffffffffff1673ffffffffffffffffffffffffffffffffffffffff16815260200190815260200160002060009054906101000a900460ff1661099b57600080fd5b6000600182815481106109b1576109b061104b565b5b906000526020600020906005020190508060040160003373ffffffffffffffffffffffffffffffffffffffff1673ffffffffffffffffffffffffffffffffffffffff16815260200190815260200160002060009054906101000a900460ff1615610a1a57600080fd5b8060020160149054906101000a900460ff1615610a3657600080fd5b60018160040160003373ffffffffffffffffffffffffffffffffffffffff1673ffffffffffffffffffffffffffffffffffffffff16815260200190815260200160002060006101000a81548160ff021916908315150217905550806003016000815480929190610aa590611169565b91905055505050565b828054610aba90611138565b90600052602060002090601f016020900481019282610adc5760008555610b23565b82601f10610af557805160ff1916838001178555610b23565b82800160010185558215610b23579182015b82811115610b22578251825591602001919060010190610b07565b5b509050610b309190610b34565b5090565b5b80821115610b4d576000816000905550600101610b35565b5090565b6000604051905090565b600080fd5b600080fd5b6000819050919050565b610b7881610b65565b8114610b8357600080fd5b50565b600081359050610b9581610b6f565b92915050565b600060208284031215610bb157610bb0610b5b565b5b6000610bbf84828501610b86565b91505092915050565b600073ffffffffffffffffffffffffffffffffffffffff82169050919050565b6000610bf382610bc8565b9050919050565b610c0381610be8565b8114610c0e57600080fd5b50565b600081359050610c2081610bfa565b92915050565b600060208284031215610c3c57610c3b610b5b565b5b6000610c4a84828501610c11565b91505092915050565b60008115159050919050565b610c6881610c53565b82525050565b6000602082019050610c836000830184610c5f565b92915050565b610c9281610b65565b82525050565b6000602082019050610cad6000830184610c89565b92915050565b600081519050919050565b600082825260208201905092915050565b60005b83811015610ced578082015181840152602081019050610cd2565b83811115610cfc576000848401525b50505050565b6000601f19601f8301169050919050565b6000610d1e82610cb3565b610d288185610cbe565b9350610d38818560208601610ccf565b610d4181610d02565b840191505092915050565b610d5581610be8565b82525050565b600060c0820190508181036000830152610d758189610d13565b9050610d846020830188610c89565b610d916040830187610c89565b610d9e6060830186610c89565b610dab6080830185610c89565b610db860a0830184610d4c565b979650505050505050565b6000602082019050610dd86000830184610d4c565b92915050565b60006020820190508181036000830152610df88184610d13565b905092915050565b6000610e0b82610bc8565b9050919050565b610e1b81610e00565b82525050565b600060a0820190508181036000830152610e3b8188610d13565b9050610e4a6020830187610c89565b610e576040830186610e12565b610e646060830185610c5f565b610e716080830184610c89565b9695505050505050565b600080fd5b600080fd5b7f4e487b7100000000000000000000000000000000000000000000000000000000600052604160045260246000fd5b610ebd82610d02565b810181811067ffffffffffffffff82111715610edc57610edb610e85565b5b80604052505050565b6000610eef610b51565b9050610efb8282610eb4565b919050565b600067ffffffffffffffff821115610f1b57610f1a610e85565b5b610f2482610d02565b9050602081019050919050565b82818337600083830152505050565b6000610f53610f4e84610f00565b610ee5565b905082815260208101848484011115610f6f57610f6e610e80565b5b610f7a848285610f31565b509392505050565b600082601f830112610f9757610f96610e7b565b5b8135610fa7848260208601610f40565b91505092915050565b610fb981610e00565b8114610fc457600080fd5b50565b600081359050610fd681610fb0565b92915050565b600080600060608486031215610ff557610ff4610b5b565b5b600084013567ffffffffffffffff81111561101357611012610b60565b5b61101f86828701610f82565b935050602061103086828701610b86565b925050604061104186828701610fc7565b9150509250925092565b7f4e487b7100000000000000000000000000000000000000000000000000000000600052603260045260246000fd5b7f4e487b7100000000000000000000000000000000000000000000000000000000600052601260045260246000fd5b7f4e487b7100000000000000000000000000000000000000000000000000000000600052601160045260246000fd5b60006110e382610b65565b91506110ee83610b65565b9250826110fe576110fd61107a565b5b828204905092915050565b7f4e487b7100000000000000000000000000000000000000000000000000000000600052602260045260246000fd5b6000600282049050600182168061115057607f821691505b60208210810361116357611162611109565b5b50919050565b600061117482610b65565b91507fffffffffffffffffffffffffffffffffffffffffffffffffffffffffffffffff82036111a6576111a56110a9565b5b60018201905091905056fea2646970667358221220126681ffe0468c83bbd7d531cd5b0608bd2063823f0e85bec0ede8fff9682e1064736f6c634300080e0033a26469706673582212201cbe4f1c95517657df5acba494fb2f090b10d1e12d8ad89cf4437e97f4a71a5564736f6c634300080e0033","opcodes":"PUSH1 0x80 PUSH1 0x40 MSTORE CALLVALUE DUP1 ISZERO PUSH2 0x10 JUMPI PUSH1 0x0 DUP1 REVERT JUMPDEST POP PUSH2 0x1D68 DUP1 PUSH2 0x20 PUSH1 0x0 CODECOPY PUSH1 0x0 RETURN INVALID PUSH1 0x80 PUSH1 0x40 MSTORE CALLVALUE DUP1 ISZERO PUSH3 0x11 JUMPI PUSH1 0x0 DUP1 REVERT JUMPDEST POP PUSH1 0x4 CALLDATASIZE LT PUSH3 0x46 JUMPI PUSH1 0x0 CALLDATALOAD PUSH1 0xE0 SHR DUP1 PUSH4 0x339D50A5 EQ PUSH3 0x4B JUMPI DUP1 PUSH4 0x4220D656 EQ PUSH3 0x81 JUMPI DUP1 PUSH4 0x4ACB9D4F EQ PUSH3 0xA1 JUMPI JUMPDEST PUSH1 0x0 DUP1 REVERT JUMPDEST PUSH3 0x69 PUSH1 0x4 DUP1 CALLDATASIZE SUB DUP2 ADD SWAP1 PUSH3 0x63 SWAP2 SWAP1 PUSH3 0x299 JUMP JUMPDEST PUSH3 0xC3 JUMP JUMPDEST PUSH1 0x40 MLOAD PUSH3 0x78 SWAP2 SWAP1 PUSH3 0x310 JUMP JUMPDEST PUSH1 0x40 MLOAD DUP1 SWAP2 SUB SWAP1 RETURN JUMPDEST PUSH3 0x9F PUSH1 0x4 DUP1 CALLDATASIZE SUB DUP2 ADD SWAP1 PUSH3 0x99 SWAP2 SWAP1 PUSH3 0x48F JUMP JUMPDEST PUSH3 0x103 JUMP JUMPDEST STOP JUMPDEST PUSH3 0xAB PUSH3 0x1AC JUMP JUMPDEST PUSH1 0x40 MLOAD PUSH3 0xBA SWAP2 SWAP1 PUSH3 0x5C3 JUMP JUMPDEST PUSH1 0x40 MLOAD DUP1 SWAP2 SUB SWAP1 RETURN JUMPDEST PUSH1 0x0 DUP2 DUP2 SLOAD DUP2 LT PUSH3 0xD4 JUMPI PUSH1 0x0 DUP1 REVERT JUMPDEST SWAP1 PUSH1 0x0 MSTORE PUSH1 0x20 PUSH1 0x0 KECCAK256 ADD PUSH1 0x0 SWAP2 POP SLOAD SWAP1 PUSH2 0x100 EXP SWAP1 DIV PUSH20 0xFFFFFFFFFFFFFFFFFFFFFFFFFFFFFFFFFFFFFFFF AND DUP2 JUMP JUMPDEST PUSH1 0x0 DUP3 DUP3 CALLER PUSH1 0x40 MLOAD PUSH3 0x116 SWAP1 PUSH3 0x23C JUMP JUMPDEST PUSH3 0x124 SWAP4 SWAP3 SWAP2 SWAP1 PUSH3 0x68B JUMP JUMPDEST PUSH1 0x40 MLOAD DUP1 SWAP2 SUB SWAP1 PUSH1 0x0 CREATE DUP1 ISZERO DUP1 ISZERO PUSH3 0x141 JUMPI RETURNDATASIZE PUSH1 0x0 DUP1 RETURNDATACOPY RETURNDATASIZE PUSH1 0x0 REVERT JUMPDEST POP SWAP1 POP PUSH1 0x0 DUP2 SWAP1 DUP1 PUSH1 0x1 DUP2 SLOAD ADD DUP1 DUP3 SSTORE DUP1 SWAP2 POP POP PUSH1 0x1 SWAP1 SUB SWAP1 PUSH1 0x0 MSTORE PUSH1 0x20 PUSH1 0x0 KECCAK256 ADD PUSH1 0x0 SWAP1 SWAP2 SWAP1 SWAP2 SWAP1 SWAP2 PUSH2 0x100 EXP DUP2 SLOAD DUP2 PUSH20 0xFFFFFFFFFFFFFFFFFFFFFFFFFFFFFFFFFFFFFFFF MUL NOT AND SWAP1 DUP4 PUSH20 0xFFFFFFFFFFFFFFFFFFFFFFFFFFFFFFFFFFFFFFFF AND MUL OR SWAP1 SSTORE POP POP POP POP JUMP JUMPDEST PUSH1 0x60 PUSH1 0x0 DUP1 SLOAD DUP1 PUSH1 0x20 MUL PUSH1 0x20 ADD PUSH1 0x40 MLOAD SWAP1 DUP2 ADD PUSH1 0x40 MSTORE DUP1 SWAP3 SWAP2 SWAP1 DUP2 DUP2 MSTORE PUSH1 0x20 ADD DUP3 DUP1 SLOAD DUP1 ISZERO PUSH3 0x232 JUMPI PUSH1 0x20 MUL DUP3 ADD SWAP2 SWAP1 PUSH1 0x0 MSTORE PUSH1 0x20 PUSH1 0x0 KECCAK256 SWAP1 JUMPDEST DUP2 PUSH1 0x0 SWAP1 SLOAD SWAP1 PUSH2 0x100 EXP SWAP1 DIV PUSH20 0xFFFFFFFFFFFFFFFFFFFFFFFFFFFFFFFFFFFFFFFF AND PUSH20 0xFFFFFFFFFFFFFFFFFFFFFFFFFFFFFFFFFFFFFFFF AND DUP2 MSTORE PUSH1 0x20 ADD SWAP1 PUSH1 0x1 ADD SWAP1 DUP1 DUP4 GT PUSH3 0x1E7 JUMPI JUMPDEST POP POP POP POP POP SWAP1 POP SWAP1 JUMP JUMPDEST PUSH2 0x1663 DUP1 PUSH3 0x6D0 DUP4 CODECOPY ADD SWAP1 JUMP JUMPDEST PUSH1 0x0 PUSH1 0x40 MLOAD SWAP1 POP SWAP1 JUMP JUMPDEST PUSH1 0x0 DUP1 REVERT JUMPDEST PUSH1 0x0 DUP1 REVERT JUMPDEST PUSH1 0x0 DUP2 SWAP1 POP SWAP2 SWAP1 POP JUMP JUMPDEST PUSH3 0x273 DUP2 PUSH3 0x25E JUMP JUMPDEST DUP2 EQ PUSH3 0x27F JUMPI PUSH1 0x0 DUP1 REVERT JUMPDEST POP JUMP JUMPDEST PUSH1 0x0 DUP2 CALLDATALOAD SWAP1 POP PUSH3 0x293 DUP2 PUSH3 0x268 JUMP JUMPDEST SWAP3 SWAP2 POP POP JUMP JUMPDEST PUSH1 0x0 PUSH1 0x20 DUP3 DUP5 SUB SLT ISZERO PUSH3 0x2B2 JUMPI PUSH3 0x2B1 PUSH3 0x254 JUMP JUMPDEST JUMPDEST PUSH1 0x0 PUSH3 0x2C2 DUP5 DUP3 DUP6 ADD PUSH3 0x282 JUMP JUMPDEST SWAP2 POP POP SWAP3 SWAP2 POP POP JUMP JUMPDEST PUSH1 0x0 PUSH20 0xFFFFFFFFFFFFFFFFFFFFFFFFFFFFFFFFFFFFFFFF DUP3 AND SWAP1 POP SWAP2 SWAP1 POP JUMP JUMPDEST PUSH1 0x0 PUSH3 0x2F8 DUP3 PUSH3 0x2CB JUMP JUMPDEST SWAP1 POP SWAP2 SWAP1 POP JUMP JUMPDEST PUSH3 0x30A DUP2 PUSH3 0x2EB JUMP JUMPDEST DUP3 MSTORE POP POP JUMP JUMPDEST PUSH1 0x0 PUSH1 0x20 DUP3 ADD SWAP1 POP PUSH3 0x327 PUSH1 0x0 DUP4 ADD DUP5 PUSH3 0x2FF JUMP JUMPDEST SWAP3 SWAP2 POP POP JUMP JUMPDEST PUSH1 0x0 DUP1 REVERT JUMPDEST PUSH1 0x0 DUP1 REVERT JUMPDEST PUSH1 0x0 PUSH1 0x1F NOT PUSH1 0x1F DUP4 ADD AND SWAP1 POP SWAP2 SWAP1 POP JUMP JUMPDEST PUSH32 0x4E487B7100000000000000000000000000000000000000000000000000000000 PUSH1 0x0 MSTORE PUSH1 0x41 PUSH1 0x4 MSTORE PUSH1 0x24 PUSH1 0x0 REVERT JUMPDEST PUSH3 0x382 DUP3 PUSH3 0x337 JUMP JUMPDEST DUP2 ADD DUP2 DUP2 LT PUSH8 0xFFFFFFFFFFFFFFFF DUP3 GT OR ISZERO PUSH3 0x3A4 JUMPI PUSH3 0x3A3 PUSH3 0x348 JUMP JUMPDEST JUMPDEST DUP1 PUSH1 0x40 MSTORE POP POP POP JUMP JUMPDEST PUSH1 0x0 PUSH3 0x3B9 PUSH3 0x24A JUMP JUMPDEST SWAP1 POP PUSH3 0x3C7 DUP3 DUP3 PUSH3 0x377 JUMP JUMPDEST SWAP2 SWAP1 POP JUMP JUMPDEST PUSH1 0x0 PUSH8 0xFFFFFFFFFFFFFFFF DUP3 GT ISZERO PUSH3 0x3EA JUMPI PUSH3 0x3E9 PUSH3 0x348 JUMP JUMPDEST JUMPDEST PUSH3 0x3F5 DUP3 PUSH3 0x337 JUMP JUMPDEST SWAP1 POP PUSH1 0x20 DUP2 ADD SWAP1 POP SWAP2 SWAP1 POP JUMP JUMPDEST DUP3 DUP2 DUP4 CALLDATACOPY PUSH1 0x0 DUP4 DUP4 ADD MSTORE POP POP POP JUMP JUMPDEST PUSH1 0x0 PUSH3 0x428 PUSH3 0x422 DUP5 PUSH3 0x3CC JUMP JUMPDEST PUSH3 0x3AD JUMP JUMPDEST SWAP1 POP DUP3 DUP2 MSTORE PUSH1 0x20 DUP2 ADD DUP5 DUP5 DUP5 ADD GT ISZERO PUSH3 0x447 JUMPI PUSH3 0x446 PUSH3 0x332 JUMP JUMPDEST JUMPDEST PUSH3 0x454 DUP5 DUP3 DUP6 PUSH3 0x402 JUMP JUMPDEST POP SWAP4 SWAP3 POP POP POP JUMP JUMPDEST PUSH1 0x0 DUP3 PUSH1 0x1F DUP4 ADD SLT PUSH3 0x474 JUMPI PUSH3 0x473 PUSH3 0x32D JUMP JUMPDEST JUMPDEST DUP2 CALLDATALOAD PUSH3 0x486 DUP5 DUP3 PUSH1 0x20 DUP7 ADD PUSH3 0x411 JUMP JUMPDEST SWAP2 POP POP SWAP3 SWAP2 POP POP JUMP JUMPDEST PUSH1 0x0 DUP1 PUSH1 0x40 DUP4 DUP6 SUB SLT ISZERO PUSH3 0x4A9 JUMPI PUSH3 0x4A8 PUSH3 0x254 JUMP JUMPDEST JUMPDEST PUSH1 0x0 PUSH3 0x4B9 DUP6 DUP3 DUP7 ADD PUSH3 0x282 JUMP JUMPDEST SWAP3 POP POP PUSH1 0x20 DUP4 ADD CALLDATALOAD PUSH8 0xFFFFFFFFFFFFFFFF DUP2 GT ISZERO PUSH3 0x4DD JUMPI PUSH3 0x4DC PUSH3 0x259 JUMP JUMPDEST JUMPDEST PUSH3 0x4EB DUP6 DUP3 DUP7 ADD PUSH3 0x45C JUMP JUMPDEST SWAP2 POP POP SWAP3 POP SWAP3 SWAP1 POP JUMP JUMPDEST PUSH1 0x0 DUP2 MLOAD SWAP1 POP SWAP2 SWAP1 POP JUMP JUMPDEST PUSH1 0x0 DUP3 DUP3 MSTORE PUSH1 0x20 DUP3 ADD SWAP1 POP SWAP3 SWAP2 POP POP JUMP JUMPDEST PUSH1 0x0 DUP2 SWAP1 POP PUSH1 0x20 DUP3 ADD SWAP1 POP SWAP2 SWAP1 POP JUMP JUMPDEST PUSH3 0x52C DUP2 PUSH3 0x2EB JUMP JUMPDEST DUP3 MSTORE POP POP JUMP JUMPDEST PUSH1 0x0 PUSH3 0x540 DUP4 DUP4 PUSH3 0x521 JUMP JUMPDEST PUSH1 0x20 DUP4 ADD SWAP1 POP SWAP3 SWAP2 POP POP JUMP JUMPDEST PUSH1 0x0 PUSH1 0x20 DUP3 ADD SWAP1 POP SWAP2 SWAP1 POP JUMP JUMPDEST PUSH1 0x0 PUSH3 0x566 DUP3 PUSH3 0x4F5 JUMP JUMPDEST PUSH3 0x572 DUP2 DUP6 PUSH3 0x500 JUMP JUMPDEST SWAP4 POP PUSH3 0x57F DUP4 PUSH3 0x511 JUMP JUMPDEST DUP1 PUSH1 0x0 JUMPDEST DUP4 DUP2 LT ISZERO PUSH3 0x5B6 JUMPI DUP2 MLOAD PUSH3 0x59A DUP9 DUP3 PUSH3 0x532 JUMP JUMPDEST SWAP8 POP PUSH3 0x5A7 DUP4 PUSH3 0x54C JUMP JUMPDEST SWAP3 POP POP PUSH1 0x1 DUP2 ADD SWAP1 POP PUSH3 0x583 JUMP JUMPDEST POP DUP6 SWAP4 POP POP POP POP SWAP3 SWAP2 POP POP JUMP JUMPDEST PUSH1 0x0 PUSH1 0x20 DUP3 ADD SWAP1 POP DUP2 DUP2 SUB PUSH1 0x0 DUP4 ADD MSTORE PUSH3 0x5DF DUP2 DUP5 PUSH3 0x559 JUMP JUMPDEST SWAP1 POP SWAP3 SWAP2 POP POP JUMP JUMPDEST PUSH3 0x5F2 DUP2 PUSH3 0x25E JUMP JUMPDEST DUP3 MSTORE POP POP JUMP JUMPDEST PUSH1 0x0 DUP2 MLOAD SWAP1 POP SWAP2 SWAP1 POP JUMP JUMPDEST PUSH1 0x0 DUP3 DUP3 MSTORE PUSH1 0x20 DUP3 ADD SWAP1 POP SWAP3 SWAP2 POP POP JUMP JUMPDEST PUSH1 0x0 JUMPDEST DUP4 DUP2 LT ISZERO PUSH3 0x634 JUMPI DUP1 DUP3 ADD MLOAD DUP2 DUP5 ADD MSTORE PUSH1 0x20 DUP2 ADD SWAP1 POP PUSH3 0x617 JUMP JUMPDEST DUP4 DUP2 GT ISZERO PUSH3 0x644 JUMPI PUSH1 0x0 DUP5 DUP5 ADD MSTORE JUMPDEST POP POP POP POP JUMP JUMPDEST PUSH1 0x0 PUSH3 0x657 DUP3 PUSH3 0x5F8 JUMP JUMPDEST PUSH3 0x663 DUP2 DUP6 PUSH3 0x603 JUMP JUMPDEST SWAP4 POP PUSH3 0x675 DUP2 DUP6 PUSH1 0x20 DUP7 ADD PUSH3 0x614 JUMP JUMPDEST PUSH3 0x680 DUP2 PUSH3 0x337 JUMP JUMPDEST DUP5 ADD SWAP2 POP POP SWAP3 SWAP2 POP POP JUMP JUMPDEST PUSH1 0x0 PUSH1 0x60 DUP3 ADD SWAP1 POP PUSH3 0x6A2 PUSH1 0x0 DUP4 ADD DUP7 PUSH3 0x5E7 JUMP JUMPDEST DUP2 DUP2 SUB PUSH1 0x20 DUP4 ADD MSTORE PUSH3 0x6B6 DUP2 DUP6 PUSH3 0x64A JUMP JUMPDEST SWAP1 POP PUSH3 0x6C7 PUSH1 0x40 DUP4 ADD DUP5 PUSH3 0x2FF JUMP JUMPDEST SWAP5 SWAP4 POP POP POP POP JUMP INVALID PUSH1 0x80 PUSH1 0x40 MSTORE CALLVALUE DUP1 ISZERO PUSH3 0x11 JUMPI PUSH1 0x0 DUP1 REVERT JUMPDEST POP PUSH1 0x40 MLOAD PUSH3 0x1663 CODESIZE SUB DUP1 PUSH3 0x1663 DUP4 CODECOPY DUP2 DUP2 ADD PUSH1 0x40 MSTORE DUP2 ADD SWAP1 PUSH3 0x37 SWAP2 SWAP1 PUSH3 0x38D JUMP JUMPDEST DUP1 PUSH1 0x0 DUP1 PUSH2 0x100 EXP DUP2 SLOAD DUP2 PUSH20 0xFFFFFFFFFFFFFFFFFFFFFFFFFFFFFFFFFFFFFFFF MUL NOT AND SWAP1 DUP4 PUSH20 0xFFFFFFFFFFFFFFFFFFFFFFFFFFFFFFFFFFFFFFFF AND MUL OR SWAP1 SSTORE POP DUP3 PUSH1 0x2 DUP2 SWAP1 SSTORE POP DUP2 PUSH1 0x3 SWAP1 DUP1 MLOAD SWAP1 PUSH1 0x20 ADD SWAP1 PUSH3 0x96 SWAP3 SWAP2 SWAP1 PUSH3 0xA0 JUMP JUMPDEST POP POP POP POP PUSH3 0x46C JUMP JUMPDEST DUP3 DUP1 SLOAD PUSH3 0xAE SWAP1 PUSH3 0x437 JUMP JUMPDEST SWAP1 PUSH1 0x0 MSTORE PUSH1 0x20 PUSH1 0x0 KECCAK256 SWAP1 PUSH1 0x1F ADD PUSH1 0x20 SWAP1 DIV DUP2 ADD SWAP3 DUP3 PUSH3 0xD2 JUMPI PUSH1 0x0 DUP6 SSTORE PUSH3 0x11E JUMP JUMPDEST DUP3 PUSH1 0x1F LT PUSH3 0xED JUMPI DUP1 MLOAD PUSH1 0xFF NOT AND DUP4 DUP1 ADD OR DUP6 SSTORE PUSH3 0x11E JUMP JUMPDEST DUP3 DUP1 ADD PUSH1 0x1 ADD DUP6 SSTORE DUP3 ISZERO PUSH3 0x11E JUMPI SWAP2 DUP3 ADD JUMPDEST DUP3 DUP2 GT ISZERO PUSH3 0x11D JUMPI DUP3 MLOAD DUP3 SSTORE SWAP2 PUSH1 0x20 ADD SWAP2 SWAP1 PUSH1 0x1 ADD SWAP1 PUSH3 0x100 JUMP JUMPDEST JUMPDEST POP SWAP1 POP PUSH3 0x12D SWAP2 SWAP1 PUSH3 0x131 JUMP JUMPDEST POP SWAP1 JUMP JUMPDEST JUMPDEST DUP1 DUP3 GT ISZERO PUSH3 0x14C JUMPI PUSH1 0x0 DUP2 PUSH1 0x0 SWAP1 SSTORE POP PUSH1 0x1 ADD PUSH3 0x132 JUMP JUMPDEST POP SWAP1 JUMP JUMPDEST PUSH1 0x0 PUSH1 0x40 MLOAD SWAP1 POP SWAP1 JUMP JUMPDEST PUSH1 0x0 DUP1 REVERT JUMPDEST PUSH1 0x0 DUP1 REVERT JUMPDEST PUSH1 0x0 DUP2 SWAP1 POP SWAP2 SWAP1 POP JUMP JUMPDEST PUSH3 0x179 DUP2 PUSH3 0x164 JUMP JUMPDEST DUP2 EQ PUSH3 0x185 JUMPI PUSH1 0x0 DUP1 REVERT JUMPDEST POP JUMP JUMPDEST PUSH1 0x0 DUP2 MLOAD SWAP1 POP PUSH3 0x199 DUP2 PUSH3 0x16E JUMP JUMPDEST SWAP3 SWAP2 POP POP JUMP JUMPDEST PUSH1 0x0 DUP1 REVERT JUMPDEST PUSH1 0x0 DUP1 REVERT JUMPDEST PUSH1 0x0 PUSH1 0x1F NOT PUSH1 0x1F DUP4 ADD AND SWAP1 POP SWAP2 SWAP1 POP JUMP JUMPDEST PUSH32 0x4E487B7100000000000000000000000000000000000000000000000000000000 PUSH1 0x0 MSTORE PUSH1 0x41 PUSH1 0x4 MSTORE PUSH1 0x24 PUSH1 0x0 REVERT JUMPDEST PUSH3 0x1F4 DUP3 PUSH3 0x1A9 JUMP JUMPDEST DUP2 ADD DUP2 DUP2 LT PUSH8 0xFFFFFFFFFFFFFFFF DUP3 GT OR ISZERO PUSH3 0x216 JUMPI PUSH3 0x215 PUSH3 0x1BA JUMP JUMPDEST JUMPDEST DUP1 PUSH1 0x40 MSTORE POP POP POP JUMP JUMPDEST PUSH1 0x0 PUSH3 0x22B PUSH3 0x150 JUMP JUMPDEST SWAP1 POP PUSH3 0x239 DUP3 DUP3 PUSH3 0x1E9 JUMP JUMPDEST SWAP2 SWAP1 POP JUMP JUMPDEST PUSH1 0x0 PUSH8 0xFFFFFFFFFFFFFFFF DUP3 GT ISZERO PUSH3 0x25C JUMPI PUSH3 0x25B PUSH3 0x1BA JUMP JUMPDEST JUMPDEST PUSH3 0x267 DUP3 PUSH3 0x1A9 JUMP JUMPDEST SWAP1 POP PUSH1 0x20 DUP2 ADD SWAP1 POP SWAP2 SWAP1 POP JUMP JUMPDEST PUSH1 0x0 JUMPDEST DUP4 DUP2 LT ISZERO PUSH3 0x294 JUMPI DUP1 DUP3 ADD MLOAD DUP2 DUP5 ADD MSTORE PUSH1 0x20 DUP2 ADD SWAP1 POP PUSH3 0x277 JUMP JUMPDEST DUP4 DUP2 GT ISZERO PUSH3 0x2A4 JUMPI PUSH1 0x0 DUP5 DUP5 ADD MSTORE JUMPDEST POP POP POP POP JUMP JUMPDEST PUSH1 0x0 PUSH3 0x2C1 PUSH3 0x2BB DUP5 PUSH3 0x23E JUMP JUMPDEST PUSH3 0x21F JUMP JUMPDEST SWAP1 POP DUP3 DUP2 MSTORE PUSH1 0x20 DUP2 ADD DUP5 DUP5 DUP5 ADD GT ISZERO PUSH3 0x2E0 JUMPI PUSH3 0x2DF PUSH3 0x1A4 JUMP JUMPDEST JUMPDEST PUSH3 0x2ED DUP5 DUP3 DUP6 PUSH3 0x274 JUMP JUMPDEST POP SWAP4 SWAP3 POP POP POP JUMP JUMPDEST PUSH1 0x0 DUP3 PUSH1 0x1F DUP4 ADD SLT PUSH3 0x30D JUMPI PUSH3 0x30C PUSH3 0x19F JUMP JUMPDEST JUMPDEST DUP2 MLOAD PUSH3 0x31F DUP5 DUP3 PUSH1 0x20 DUP7 ADD PUSH3 0x2AA JUMP JUMPDEST SWAP2 POP POP SWAP3 SWAP2 POP POP JUMP JUMPDEST PUSH1 0x0 PUSH20 0xFFFFFFFFFFFFFFFFFFFFFFFFFFFFFFFFFFFFFFFF DUP3 AND SWAP1 POP SWAP2 SWAP1 POP JUMP JUMPDEST PUSH1 0x0 PUSH3 0x355 DUP3 PUSH3 0x328 JUMP JUMPDEST SWAP1 POP SWAP2 SWAP1 POP JUMP JUMPDEST PUSH3 0x367 DUP2 PUSH3 0x348 JUMP JUMPDEST DUP2 EQ PUSH3 0x373 JUMPI PUSH1 0x0 DUP1 REVERT JUMPDEST POP JUMP JUMPDEST PUSH1 0x0 DUP2 MLOAD SWAP1 POP PUSH3 0x387 DUP2 PUSH3 0x35C JUMP JUMPDEST SWAP3 SWAP2 POP POP JUMP JUMPDEST PUSH1 0x0 DUP1 PUSH1 0x0 PUSH1 0x60 DUP5 DUP7 SUB SLT ISZERO PUSH3 0x3A9 JUMPI PUSH3 0x3A8 PUSH3 0x15A JUMP JUMPDEST JUMPDEST PUSH1 0x0 PUSH3 0x3B9 DUP7 DUP3 DUP8 ADD PUSH3 0x188 JUMP JUMPDEST SWAP4 POP POP PUSH1 0x20 DUP5 ADD MLOAD PUSH8 0xFFFFFFFFFFFFFFFF DUP2 GT ISZERO PUSH3 0x3DD JUMPI PUSH3 0x3DC PUSH3 0x15F JUMP JUMPDEST JUMPDEST PUSH3 0x3EB DUP7 DUP3 DUP8 ADD PUSH3 0x2F5 JUMP JUMPDEST SWAP3 POP POP PUSH1 0x40 PUSH3 0x3FE DUP7 DUP3 DUP8 ADD PUSH3 0x376 JUMP JUMPDEST SWAP2 POP POP SWAP3 POP SWAP3 POP SWAP3 JUMP JUMPDEST PUSH32 0x4E487B7100000000000000000000000000000000000000000000000000000000 PUSH1 0x0 MSTORE PUSH1 0x22 PUSH1 0x4 MSTORE PUSH1 0x24 PUSH1 0x0 REVERT JUMPDEST PUSH1 0x0 PUSH1 0x2 DUP3 DIV SWAP1 POP PUSH1 0x1 DUP3 AND DUP1 PUSH3 0x450 JUMPI PUSH1 0x7F DUP3 AND SWAP2 POP JUMPDEST PUSH1 0x20 DUP3 LT DUP2 SUB PUSH3 0x466 JUMPI PUSH3 0x465 PUSH3 0x408 JUMP JUMPDEST JUMPDEST POP SWAP2 SWAP1 POP JUMP JUMPDEST PUSH2 0x11E7 DUP1 PUSH3 0x47C PUSH1 0x0 CODECOPY PUSH1 0x0 RETURN INVALID PUSH1 0x80 PUSH1 0x40 MSTORE PUSH1 0x4 CALLDATASIZE LT PUSH2 0xC2 JUMPI PUSH1 0x0 CALLDATALOAD PUSH1 0xE0 SHR DUP1 PUSH4 0x81D12C58 GT PUSH2 0x7F JUMPI DUP1 PUSH4 0x937E09B1 GT PUSH2 0x59 JUMPI DUP1 PUSH4 0x937E09B1 EQ PUSH2 0x266 JUMPI DUP1 PUSH4 0x995C5E9D EQ PUSH2 0x291 JUMPI DUP1 PUSH4 0xD7BB99BA EQ PUSH2 0x2CE JUMPI DUP1 PUSH4 0xD7D1BBDB EQ PUSH2 0x2D8 JUMPI PUSH2 0xC2 JUMP JUMPDEST DUP1 PUSH4 0x81D12C58 EQ PUSH2 0x1DE JUMPI DUP1 PUSH4 0x82FDE093 EQ PUSH2 0x21F JUMPI DUP1 PUSH4 0x8A9CFD55 EQ PUSH2 0x24A JUMPI PUSH2 0xC2 JUMP JUMPDEST DUP1 PUSH4 0x3441006 EQ PUSH2 0xC7 JUMPI DUP1 PUSH4 0xA144391 EQ PUSH2 0xF0 JUMPI DUP1 PUSH4 0x3FAD1834 EQ PUSH2 0x12D JUMPI DUP1 PUSH4 0x4051DDAC EQ PUSH2 0x158 JUMPI DUP1 PUSH4 0x481C6A75 EQ PUSH2 0x188 JUMPI DUP1 PUSH4 0x7284E416 EQ PUSH2 0x1B3 JUMPI JUMPDEST PUSH1 0x0 DUP1 REVERT JUMPDEST CALLVALUE DUP1 ISZERO PUSH2 0xD3 JUMPI PUSH1 0x0 DUP1 REVERT JUMPDEST POP PUSH2 0xEE PUSH1 0x4 DUP1 CALLDATASIZE SUB DUP2 ADD SWAP1 PUSH2 0xE9 SWAP2 SWAP1 PUSH2 0xB9B JUMP JUMPDEST PUSH2 0x301 JUMP JUMPDEST STOP JUMPDEST CALLVALUE DUP1 ISZERO PUSH2 0xFC JUMPI PUSH1 0x0 DUP1 REVERT JUMPDEST POP PUSH2 0x117 PUSH1 0x4 DUP1 CALLDATASIZE SUB DUP2 ADD SWAP1 PUSH2 0x112 SWAP2 SWAP1 PUSH2 0xC26 JUMP JUMPDEST PUSH2 0x42D JUMP JUMPDEST PUSH1 0x40 MLOAD PUSH2 0x124 SWAP2 SWAP1 PUSH2 0xC6E JUMP JUMPDEST PUSH1 0x40 MLOAD DUP1 SWAP2 SUB SWAP1 RETURN JUMPDEST CALLVALUE DUP1 ISZERO PUSH2 0x139 JUMPI PUSH1 0x0 DUP1 REVERT JUMPDEST POP PUSH2 0x142 PUSH2 0x44D JUMP JUMPDEST PUSH1 0x40 MLOAD PUSH2 0x14F SWAP2 SWAP1 PUSH2 0xC98 JUMP JUMPDEST PUSH1 0x40 MLOAD DUP1 SWAP2 SUB SWAP1 RETURN JUMPDEST CALLVALUE DUP1 ISZERO PUSH2 0x164 JUMPI PUSH1 0x0 DUP1 REVERT JUMPDEST POP PUSH2 0x16D PUSH2 0x45A JUMP JUMPDEST PUSH1 0x40 MLOAD PUSH2 0x17F SWAP7 SWAP6 SWAP5 SWAP4 SWAP3 SWAP2 SWAP1 PUSH2 0xD5B JUMP JUMPDEST PUSH1 0x40 MLOAD DUP1 SWAP2 SUB SWAP1 RETURN JUMPDEST CALLVALUE DUP1 ISZERO PUSH2 0x194 JUMPI PUSH1 0x0 DUP1 REVERT JUMPDEST POP PUSH2 0x19D PUSH2 0x534 JUMP JUMPDEST PUSH1 0x40 MLOAD PUSH2 0x1AA SWAP2 SWAP1 PUSH2 0xDC3 JUMP JUMPDEST PUSH1 0x40 MLOAD DUP1 SWAP2 SUB SWAP1 RETURN JUMPDEST CALLVALUE DUP1 ISZERO PUSH2 0x1BF JUMPI PUSH1 0x0 DUP1 REVERT JUMPDEST POP PUSH2 0x1C8 PUSH2 0x558 JUMP JUMPDEST PUSH1 0x40 MLOAD PUSH2 0x1D5 SWAP2 SWAP1 PUSH2 0xDDE JUMP JUMPDEST PUSH1 0x40 MLOAD DUP1 SWAP2 SUB SWAP1 RETURN JUMPDEST CALLVALUE DUP1 ISZERO PUSH2 0x1EA JUMPI PUSH1 0x0 DUP1 REVERT JUMPDEST POP PUSH2 0x205 PUSH1 0x4 DUP1 CALLDATASIZE SUB DUP2 ADD SWAP1 PUSH2 0x200 SWAP2 SWAP1 PUSH2 0xB9B JUMP JUMPDEST PUSH2 0x5E6 JUMP JUMPDEST PUSH1 0x40 MLOAD PUSH2 0x216 SWAP6 SWAP5 SWAP4 SWAP3 SWAP2 SWAP1 PUSH2 0xE21 JUMP JUMPDEST PUSH1 0x40 MLOAD DUP1 SWAP2 SUB SWAP1 RETURN JUMPDEST CALLVALUE DUP1 ISZERO PUSH2 0x22B JUMPI PUSH1 0x0 DUP1 REVERT JUMPDEST POP PUSH2 0x234 PUSH2 0x6E1 JUMP JUMPDEST PUSH1 0x40 MLOAD PUSH2 0x241 SWAP2 SWAP1 PUSH2 0xC98 JUMP JUMPDEST PUSH1 0x40 MLOAD DUP1 SWAP2 SUB SWAP1 RETURN JUMPDEST PUSH2 0x264 PUSH1 0x4 DUP1 CALLDATASIZE SUB DUP2 ADD SWAP1 PUSH2 0x25F SWAP2 SWAP1 PUSH2 0xFDC JUMP JUMPDEST PUSH2 0x6E7 JUMP JUMPDEST STOP JUMPDEST CALLVALUE DUP1 ISZERO PUSH2 0x272 JUMPI PUSH1 0x0 DUP1 REVERT JUMPDEST POP PUSH2 0x27B PUSH2 0x7F4 JUMP JUMPDEST PUSH1 0x40 MLOAD PUSH2 0x288 SWAP2 SWAP1 PUSH2 0xC98 JUMP JUMPDEST PUSH1 0x40 MLOAD DUP1 SWAP2 SUB SWAP1 RETURN JUMPDEST CALLVALUE DUP1 ISZERO PUSH2 0x29D JUMPI PUSH1 0x0 DUP1 REVERT JUMPDEST POP PUSH2 0x2B8 PUSH1 0x4 DUP1 CALLDATASIZE SUB DUP2 ADD SWAP1 PUSH2 0x2B3 SWAP2 SWAP1 PUSH2 0xC26 JUMP JUMPDEST PUSH2 0x7FA JUMP JUMPDEST PUSH1 0x40 MLOAD PUSH2 0x2C5 SWAP2 SWAP1 PUSH2 0xC6E JUMP JUMPDEST PUSH1 0x40 MLOAD DUP1 SWAP2 SUB SWAP1 RETURN JUMPDEST PUSH2 0x2D6 PUSH2 0x81A JUMP JUMPDEST STOP JUMPDEST CALLVALUE DUP1 ISZERO PUSH2 0x2E4 JUMPI PUSH1 0x0 DUP1 REVERT JUMPDEST POP PUSH2 0x2FF PUSH1 0x4 DUP1 CALLDATASIZE SUB DUP2 ADD SWAP1 PUSH2 0x2FA SWAP2 SWAP1 PUSH2 0xB9B JUMP JUMPDEST PUSH2 0x945 JUMP JUMPDEST STOP JUMPDEST PUSH1 0x0 DUP1 SLOAD SWAP1 PUSH2 0x100 EXP SWAP1 DIV PUSH20 0xFFFFFFFFFFFFFFFFFFFFFFFFFFFFFFFFFFFFFFFF AND PUSH20 0xFFFFFFFFFFFFFFFFFFFFFFFFFFFFFFFFFFFFFFFF AND CALLER PUSH20 0xFFFFFFFFFFFFFFFFFFFFFFFFFFFFFFFFFFFFFFFF AND EQ PUSH2 0x359 JUMPI PUSH1 0x0 DUP1 REVERT JUMPDEST PUSH1 0x0 PUSH1 0x1 DUP3 DUP2 SLOAD DUP2 LT PUSH2 0x36F JUMPI PUSH2 0x36E PUSH2 0x104B JUMP JUMPDEST JUMPDEST SWAP1 PUSH1 0x0 MSTORE PUSH1 0x20 PUSH1 0x0 KECCAK256 SWAP1 PUSH1 0x5 MUL ADD SWAP1 POP PUSH1 0x2 PUSH1 0x4 SLOAD PUSH2 0x38E SWAP2 SWAP1 PUSH2 0x10D8 JUMP JUMPDEST DUP2 PUSH1 0x3 ADD SLOAD GT PUSH2 0x39D JUMPI PUSH1 0x0 DUP1 REVERT JUMPDEST DUP1 PUSH1 0x2 ADD PUSH1 0x0 SWAP1 SLOAD SWAP1 PUSH2 0x100 EXP SWAP1 DIV PUSH20 0xFFFFFFFFFFFFFFFFFFFFFFFFFFFFFFFFFFFFFFFF AND PUSH20 0xFFFFFFFFFFFFFFFFFFFFFFFFFFFFFFFFFFFFFFFF AND PUSH2 0x8FC DUP3 PUSH1 0x1 ADD SLOAD SWAP1 DUP2 ISZERO MUL SWAP1 PUSH1 0x40 MLOAD PUSH1 0x0 PUSH1 0x40 MLOAD DUP1 DUP4 SUB DUP2 DUP6 DUP9 DUP9 CALL SWAP4 POP POP POP POP ISZERO DUP1 ISZERO PUSH2 0x40B JUMPI RETURNDATASIZE PUSH1 0x0 DUP1 RETURNDATACOPY RETURNDATASIZE PUSH1 0x0 REVERT JUMPDEST POP PUSH1 0x1 DUP2 PUSH1 0x2 ADD PUSH1 0x14 PUSH2 0x100 EXP DUP2 SLOAD DUP2 PUSH1 0xFF MUL NOT AND SWAP1 DUP4 ISZERO ISZERO MUL OR SWAP1 SSTORE POP POP POP JUMP JUMPDEST PUSH1 0x5 PUSH1 0x20 MSTORE DUP1 PUSH1 0x0 MSTORE PUSH1 0x40 PUSH1 0x0 KECCAK256 PUSH1 0x0 SWAP2 POP SLOAD SWAP1 PUSH2 0x100 EXP SWAP1 DIV PUSH1 0xFF AND DUP2 JUMP JUMPDEST PUSH1 0x0 PUSH1 0x1 DUP1 SLOAD SWAP1 POP SWAP1 POP SWAP1 JUMP JUMPDEST PUSH1 0x60 PUSH1 0x0 DUP1 PUSH1 0x0 DUP1 PUSH1 0x0 PUSH1 0x3 PUSH1 0x2 SLOAD SELFBALANCE PUSH1 0x1 DUP1 SLOAD SWAP1 POP PUSH1 0x4 SLOAD PUSH1 0x0 DUP1 SLOAD SWAP1 PUSH2 0x100 EXP SWAP1 DIV PUSH20 0xFFFFFFFFFFFFFFFFFFFFFFFFFFFFFFFFFFFFFFFF AND DUP6 DUP1 SLOAD PUSH2 0x4A0 SWAP1 PUSH2 0x1138 JUMP JUMPDEST DUP1 PUSH1 0x1F ADD PUSH1 0x20 DUP1 SWAP2 DIV MUL PUSH1 0x20 ADD PUSH1 0x40 MLOAD SWAP1 DUP2 ADD PUSH1 0x40 MSTORE DUP1 SWAP3 SWAP2 SWAP1 DUP2 DUP2 MSTORE PUSH1 0x20 ADD DUP3 DUP1 SLOAD PUSH2 0x4CC SWAP1 PUSH2 0x1138 JUMP JUMPDEST DUP1 ISZERO PUSH2 0x519 JUMPI DUP1 PUSH1 0x1F LT PUSH2 0x4EE JUMPI PUSH2 0x100 DUP1 DUP4 SLOAD DIV MUL DUP4 MSTORE SWAP2 PUSH1 0x20 ADD SWAP2 PUSH2 0x519 JUMP JUMPDEST DUP3 ADD SWAP2 SWAP1 PUSH1 0x0 MSTORE PUSH1 0x20 PUSH1 0x0 KECCAK256 SWAP1 JUMPDEST DUP2 SLOAD DUP2 MSTORE SWAP1 PUSH1 0x1 ADD SWAP1 PUSH1 0x20 ADD DUP1 DUP4 GT PUSH2 0x4FC JUMPI DUP3 SWAP1 SUB PUSH1 0x1F AND DUP3 ADD SWAP2 JUMPDEST POP POP POP POP POP SWAP6 POP SWAP6 POP SWAP6 POP SWAP6 POP SWAP6 POP SWAP6 POP SWAP6 POP SWAP1 SWAP2 SWAP3 SWAP4 SWAP5 SWAP6 JUMP JUMPDEST PUSH1 0x0 DUP1 SLOAD SWAP1 PUSH2 0x100 EXP SWAP1 DIV PUSH20 0xFFFFFFFFFFFFFFFFFFFFFFFFFFFFFFFFFFFFFFFF AND DUP2 JUMP JUMPDEST PUSH1 0x3 DUP1 SLOAD PUSH2 0x565 SWAP1 PUSH2 0x1138 JUMP JUMPDEST DUP1 PUSH1 0x1F ADD PUSH1 0x20 DUP1 SWAP2 DIV MUL PUSH1 0x20 ADD PUSH1 0x40 MLOAD SWAP1 DUP2 ADD PUSH1 0x40 MSTORE DUP1 SWAP3 SWAP2 SWAP1 DUP2 DUP2 MSTORE PUSH1 0x20 ADD DUP3 DUP1 SLOAD PUSH2 0x591 SWAP1 PUSH2 0x1138 JUMP JUMPDEST DUP1 ISZERO PUSH2 0x5DE JUMPI DUP1 PUSH1 0x1F LT PUSH2 0x5B3 JUMPI PUSH2 0x100 DUP1 DUP4 SLOAD DIV MUL DUP4 MSTORE SWAP2 PUSH1 0x20 ADD SWAP2 PUSH2 0x5DE JUMP JUMPDEST DUP3 ADD SWAP2 SWAP1 PUSH1 0x0 MSTORE PUSH1 0x20 PUSH1 0x0 KECCAK256 SWAP1 JUMPDEST DUP2 SLOAD DUP2 MSTORE SWAP1 PUSH1 0x1 ADD SWAP1 PUSH1 0x20 ADD DUP1 DUP4 GT PUSH2 0x5C1 JUMPI DUP3 SWAP1 SUB PUSH1 0x1F AND DUP3 ADD SWAP2 JUMPDEST POP POP POP POP POP DUP2 JUMP JUMPDEST PUSH1 0x1 DUP2 DUP2 SLOAD DUP2 LT PUSH2 0x5F6 JUMPI PUSH1 0x0 DUP1 REVERT JUMPDEST SWAP1 PUSH1 0x0 MSTORE PUSH1 0x20 PUSH1 0x0 KECCAK256 SWAP1 PUSH1 0x5 MUL ADD PUSH1 0x0 SWAP2 POP SWAP1 POP DUP1 PUSH1 0x0 ADD DUP1 SLOAD PUSH2 0x619 SWAP1 PUSH2 0x1138 JUMP JUMPDEST DUP1 PUSH1 0x1F ADD PUSH1 0x20 DUP1 SWAP2 DIV MUL PUSH1 0x20 ADD PUSH1 0x40 MLOAD SWAP1 DUP2 ADD PUSH1 0x40 MSTORE DUP1 SWAP3 SWAP2 SWAP1 DUP2 DUP2 MSTORE PUSH1 0x20 ADD DUP3 DUP1 SLOAD PUSH2 0x645 SWAP1 PUSH2 0x1138 JUMP JUMPDEST DUP1 ISZERO PUSH2 0x692 JUMPI DUP1 PUSH1 0x1F LT PUSH2 0x667 JUMPI PUSH2 0x100 DUP1 DUP4 SLOAD DIV MUL DUP4 MSTORE SWAP2 PUSH1 0x20 ADD SWAP2 PUSH2 0x692 JUMP JUMPDEST DUP3 ADD SWAP2 SWAP1 PUSH1 0x0 MSTORE PUSH1 0x20 PUSH1 0x0 KECCAK256 SWAP1 JUMPDEST DUP2 SLOAD DUP2 MSTORE SWAP1 PUSH1 0x1 ADD SWAP1 PUSH1 0x20 ADD DUP1 DUP4 GT PUSH2 0x675 JUMPI DUP3 SWAP1 SUB PUSH1 0x1F AND DUP3 ADD SWAP2 JUMPDEST POP POP POP POP POP SWAP1 DUP1 PUSH1 0x1 ADD SLOAD SWAP1 DUP1 PUSH1 0x2 ADD PUSH1 0x0 SWAP1 SLOAD SWAP1 PUSH2 0x100 EXP SWAP1 DIV PUSH20 0xFFFFFFFFFFFFFFFFFFFFFFFFFFFFFFFFFFFFFFFF AND SWAP1 DUP1 PUSH1 0x2 ADD PUSH1 0x14 SWAP1 SLOAD SWAP1 PUSH2 0x100 EXP SWAP1 DIV PUSH1 0xFF AND SWAP1 DUP1 PUSH1 0x3 ADD SLOAD SWAP1 POP DUP6 JUMP JUMPDEST PUSH1 0x4 SLOAD DUP2 JUMP JUMPDEST PUSH1 0x0 DUP1 SLOAD SWAP1 PUSH2 0x100 EXP SWAP1 DIV PUSH20 0xFFFFFFFFFFFFFFFFFFFFFFFFFFFFFFFFFFFFFFFF AND PUSH20 0xFFFFFFFFFFFFFFFFFFFFFFFFFFFFFFFFFFFFFFFF AND CALLER PUSH20 0xFFFFFFFFFFFFFFFFFFFFFFFFFFFFFFFFFFFFFFFF AND EQ PUSH2 0x73F JUMPI PUSH1 0x0 DUP1 REVERT JUMPDEST PUSH1 0x0 PUSH1 0x1 DUP1 DUP2 PUSH1 0x1 DUP2 SLOAD ADD DUP1 DUP3 SSTORE DUP1 SWAP2 POP POP SUB SWAP1 PUSH1 0x0 MSTORE PUSH1 0x20 PUSH1 0x0 KECCAK256 SWAP1 PUSH1 0x5 MUL ADD SWAP1 POP DUP4 DUP2 PUSH1 0x0 ADD SWAP1 DUP1 MLOAD SWAP1 PUSH1 0x20 ADD SWAP1 PUSH2 0x77A SWAP3 SWAP2 SWAP1 PUSH2 0xAAE JUMP JUMPDEST POP DUP3 DUP2 PUSH1 0x1 ADD DUP2 SWAP1 SSTORE POP DUP2 DUP2 PUSH1 0x2 ADD PUSH1 0x0 PUSH2 0x100 EXP DUP2 SLOAD DUP2 PUSH20 0xFFFFFFFFFFFFFFFFFFFFFFFFFFFFFFFFFFFFFFFF MUL NOT AND SWAP1 DUP4 PUSH20 0xFFFFFFFFFFFFFFFFFFFFFFFFFFFFFFFFFFFFFFFF AND MUL OR SWAP1 SSTORE POP PUSH1 0x0 DUP2 PUSH1 0x2 ADD PUSH1 0x14 PUSH2 0x100 EXP DUP2 SLOAD DUP2 PUSH1 0xFF MUL NOT AND SWAP1 DUP4 ISZERO ISZERO MUL OR SWAP1 SSTORE POP PUSH1 0x0 DUP2 PUSH1 0x3 ADD DUP2 SWAP1 SSTORE POP POP POP POP POP JUMP JUMPDEST PUSH1 0x2 SLOAD DUP2 JUMP JUMPDEST PUSH1 0x6 PUSH1 0x20 MSTORE DUP1 PUSH1 0x0 MSTORE PUSH1 0x40 PUSH1 0x0 KECCAK256 PUSH1 0x0 SWAP2 POP SLOAD SWAP1 PUSH2 0x100 EXP SWAP1 DIV PUSH1 0xFF AND DUP2 JUMP JUMPDEST PUSH1 0x2 SLOAD CALLVALUE LT ISZERO PUSH2 0x829 JUMPI PUSH1 0x0 DUP1 REVERT JUMPDEST PUSH1 0x1 PUSH1 0x5 PUSH1 0x0 CALLER PUSH20 0xFFFFFFFFFFFFFFFFFFFFFFFFFFFFFFFFFFFFFFFF AND PUSH20 0xFFFFFFFFFFFFFFFFFFFFFFFFFFFFFFFFFFFFFFFF AND DUP2 MSTORE PUSH1 0x20 ADD SWAP1 DUP2 MSTORE PUSH1 0x20 ADD PUSH1 0x0 KECCAK256 PUSH1 0x0 PUSH2 0x100 EXP DUP2 SLOAD DUP2 PUSH1 0xFF MUL NOT AND SWAP1 DUP4 ISZERO ISZERO MUL OR SWAP1 SSTORE POP PUSH1 0x6 PUSH1 0x0 CALLER PUSH20 0xFFFFFFFFFFFFFFFFFFFFFFFFFFFFFFFFFFFFFFFF AND PUSH20 0xFFFFFFFFFFFFFFFFFFFFFFFFFFFFFFFFFFFFFFFF AND DUP2 MSTORE PUSH1 0x20 ADD SWAP1 DUP2 MSTORE PUSH1 0x20 ADD PUSH1 0x0 KECCAK256 PUSH1 0x0 SWAP1 SLOAD SWAP1 PUSH2 0x100 EXP SWAP1 DIV PUSH1 0xFF AND PUSH2 0x943 JUMPI PUSH1 0x1 PUSH1 0x6 PUSH1 0x0 CALLER PUSH20 0xFFFFFFFFFFFFFFFFFFFFFFFFFFFFFFFFFFFFFFFF AND PUSH20 0xFFFFFFFFFFFFFFFFFFFFFFFFFFFFFFFFFFFFFFFF AND DUP2 MSTORE PUSH1 0x20 ADD SWAP1 DUP2 MSTORE PUSH1 0x20 ADD PUSH1 0x0 KECCAK256 PUSH1 0x0 PUSH2 0x100 EXP DUP2 SLOAD DUP2 PUSH1 0xFF MUL NOT AND SWAP1 DUP4 ISZERO ISZERO MUL OR SWAP1 SSTORE POP PUSH1 0x4 PUSH1 0x0 DUP2 SLOAD DUP1 SWAP3 SWAP2 SWAP1 PUSH2 0x93D SWAP1 PUSH2 0x1169 JUMP JUMPDEST SWAP2 SWAP1 POP SSTORE POP JUMPDEST JUMP JUMPDEST PUSH1 0x5 PUSH1 0x0 CALLER PUSH20 0xFFFFFFFFFFFFFFFFFFFFFFFFFFFFFFFFFFFFFFFF AND PUSH20 0xFFFFFFFFFFFFFFFFFFFFFFFFFFFFFFFFFFFFFFFF AND DUP2 MSTORE PUSH1 0x20 ADD SWAP1 DUP2 MSTORE PUSH1 0x20 ADD PUSH1 0x0 KECCAK256 PUSH1 0x0 SWAP1 SLOAD SWAP1 PUSH2 0x100 EXP SWAP1 DIV PUSH1 0xFF AND PUSH2 0x99B JUMPI PUSH1 0x0 DUP1 REVERT JUMPDEST PUSH1 0x0 PUSH1 0x1 DUP3 DUP2 SLOAD DUP2 LT PUSH2 0x9B1 JUMPI PUSH2 0x9B0 PUSH2 0x104B JUMP JUMPDEST JUMPDEST SWAP1 PUSH1 0x0 MSTORE PUSH1 0x20 PUSH1 0x0 KECCAK256 SWAP1 PUSH1 0x5 MUL ADD SWAP1 POP DUP1 PUSH1 0x4 ADD PUSH1 0x0 CALLER PUSH20 0xFFFFFFFFFFFFFFFFFFFFFFFFFFFFFFFFFFFFFFFF AND PUSH20 0xFFFFFFFFFFFFFFFFFFFFFFFFFFFFFFFFFFFFFFFF AND DUP2 MSTORE PUSH1 0x20 ADD SWAP1 DUP2 MSTORE PUSH1 0x20 ADD PUSH1 0x0 KECCAK256 PUSH1 0x0 SWAP1 SLOAD SWAP1 PUSH2 0x100 EXP SWAP1 DIV PUSH1 0xFF AND ISZERO PUSH2 0xA1A JUMPI PUSH1 0x0 DUP1 REVERT JUMPDEST DUP1 PUSH1 0x2 ADD PUSH1 0x14 SWAP1 SLOAD SWAP1 PUSH2 0x100 EXP SWAP1 DIV PUSH1 0xFF AND ISZERO PUSH2 0xA36 JUMPI PUSH1 0x0 DUP1 REVERT JUMPDEST PUSH1 0x1 DUP2 PUSH1 0x4 ADD PUSH1 0x0 CALLER PUSH20 0xFFFFFFFFFFFFFFFFFFFFFFFFFFFFFFFFFFFFFFFF AND PUSH20 0xFFFFFFFFFFFFFFFFFFFFFFFFFFFFFFFFFFFFFFFF AND DUP2 MSTORE PUSH1 0x20 ADD SWAP1 DUP2 MSTORE PUSH1 0x20 ADD PUSH1 0x0 KECCAK256 PUSH1 0x0 PUSH2 0x100 EXP DUP2 SLOAD DUP2 PUSH1 0xFF MUL NOT AND SWAP1 DUP4 ISZERO ISZERO MUL OR SWAP1 SSTORE POP DUP1 PUSH1 0x3 ADD PUSH1 0x0 DUP2 SLOAD DUP1 SWAP3 SWAP2 SWAP1 PUSH2 0xAA5 SWAP1 PUSH2 0x1169 JUMP JUMPDEST SWAP2 SWAP1 POP SSTORE POP POP POP JUMP JUMPDEST DUP3 DUP1 SLOAD PUSH2 0xABA SWAP1 PUSH2 0x1138 JUMP JUMPDEST SWAP1 PUSH1 0x0 MSTORE PUSH1 0x20 PUSH1 0x0 KECCAK256 SWAP1 PUSH1 0x1F ADD PUSH1 0x20 SWAP1 DIV DUP2 ADD SWAP3 DUP3 PUSH2 0xADC JUMPI PUSH1 0x0 DUP6 SSTORE PUSH2 0xB23 JUMP JUMPDEST DUP3 PUSH1 0x1F LT PUSH2 0xAF5 JUMPI DUP1 MLOAD PUSH1 0xFF NOT AND DUP4 DUP1 ADD OR DUP6 SSTORE PUSH2 0xB23 JUMP JUMPDEST DUP3 DUP1 ADD PUSH1 0x1 ADD DUP6 SSTORE DUP3 ISZERO PUSH2 0xB23 JUMPI SWAP2 DUP3 ADD JUMPDEST DUP3 DUP2 GT ISZERO PUSH2 0xB22 JUMPI DUP3 MLOAD DUP3 SSTORE SWAP2 PUSH1 0x20 ADD SWAP2 SWAP1 PUSH1 0x1 ADD SWAP1 PUSH2 0xB07 JUMP JUMPDEST JUMPDEST POP SWAP1 POP PUSH2 0xB30 SWAP2 SWAP1 PUSH2 0xB34 JUMP JUMPDEST POP SWAP1 JUMP JUMPDEST JUMPDEST DUP1 DUP3 GT ISZERO PUSH2 0xB4D JUMPI PUSH1 0x0 DUP2 PUSH1 0x0 SWAP1 SSTORE POP PUSH1 0x1 ADD PUSH2 0xB35 JUMP JUMPDEST POP SWAP1 JUMP JUMPDEST PUSH1 0x0 PUSH1 0x40 MLOAD SWAP1 POP SWAP1 JUMP JUMPDEST PUSH1 0x0 DUP1 REVERT JUMPDEST PUSH1 0x0 DUP1 REVERT JUMPDEST PUSH1 0x0 DUP2 SWAP1 POP SWAP2 SWAP1 POP JUMP JUMPDEST PUSH2 0xB78 DUP2 PUSH2 0xB65 JUMP JUMPDEST DUP2 EQ PUSH2 0xB83 JUMPI PUSH1 0x0 DUP1 REVERT JUMPDEST POP JUMP JUMPDEST PUSH1 0x0 DUP2 CALLDATALOAD SWAP1 POP PUSH2 0xB95 DUP2 PUSH2 0xB6F JUMP JUMPDEST SWAP3 SWAP2 POP POP JUMP JUMPDEST PUSH1 0x0 PUSH1 0x20 DUP3 DUP5 SUB SLT ISZERO PUSH2 0xBB1 JUMPI PUSH2 0xBB0 PUSH2 0xB5B JUMP JUMPDEST JUMPDEST PUSH1 0x0 PUSH2 0xBBF DUP5 DUP3 DUP6 ADD PUSH2 0xB86 JUMP JUMPDEST SWAP2 POP POP SWAP3 SWAP2 POP POP JUMP JUMPDEST PUSH1 0x0 PUSH20 0xFFFFFFFFFFFFFFFFFFFFFFFFFFFFFFFFFFFFFFFF DUP3 AND SWAP1 POP SWAP2 SWAP1 POP JUMP JUMPDEST PUSH1 0x0 PUSH2 0xBF3 DUP3 PUSH2 0xBC8 JUMP JUMPDEST SWAP1 POP SWAP2 SWAP1 POP JUMP JUMPDEST PUSH2 0xC03 DUP2 PUSH2 0xBE8 JUMP JUMPDEST DUP2 EQ PUSH2 0xC0E JUMPI PUSH1 0x0 DUP1 REVERT JUMPDEST POP JUMP JUMPDEST PUSH1 0x0 DUP2 CALLDATALOAD SWAP1 POP PUSH2 0xC20 DUP2 PUSH2 0xBFA JUMP JUMPDEST SWAP3 SWAP2 POP POP JUMP JUMPDEST PUSH1 0x0 PUSH1 0x20 DUP3 DUP5 SUB SLT ISZERO PUSH2 0xC3C JUMPI PUSH2 0xC3B PUSH2 0xB5B JUMP JUMPDEST JUMPDEST PUSH1 0x0 PUSH2 0xC4A DUP5 DUP3 DUP6 ADD PUSH2 0xC11 JUMP JUMPDEST SWAP2 POP POP SWAP3 SWAP2 POP POP JUMP JUMPDEST PUSH1 0x0 DUP2 ISZERO ISZERO SWAP1 POP SWAP2 SWAP1 POP JUMP JUMPDEST PUSH2 0xC68 DUP2 PUSH2 0xC53 JUMP JUMPDEST DUP3 MSTORE POP POP JUMP JUMPDEST PUSH1 0x0 PUSH1 0x20 DUP3 ADD SWAP1 POP PUSH2 0xC83 PUSH1 0x0 DUP4 ADD DUP5 PUSH2 0xC5F JUMP JUMPDEST SWAP3 SWAP2 POP POP JUMP JUMPDEST PUSH2 0xC92 DUP2 PUSH2 0xB65 JUMP JUMPDEST DUP3 MSTORE POP POP JUMP JUMPDEST PUSH1 0x0 PUSH1 0x20 DUP3 ADD SWAP1 POP PUSH2 0xCAD PUSH1 0x0 DUP4 ADD DUP5 PUSH2 0xC89 JUMP JUMPDEST SWAP3 SWAP2 POP POP JUMP JUMPDEST PUSH1 0x0 DUP2 MLOAD SWAP1 POP SWAP2 SWAP1 POP JUMP JUMPDEST PUSH1 0x0 DUP3 DUP3 MSTORE PUSH1 0x20 DUP3 ADD SWAP1 POP SWAP3 SWAP2 POP POP JUMP JUMPDEST PUSH1 0x0 JUMPDEST DUP4 DUP2 LT ISZERO PUSH2 0xCED JUMPI DUP1 DUP3 ADD MLOAD DUP2 DUP5 ADD MSTORE PUSH1 0x20 DUP2 ADD SWAP1 POP PUSH2 0xCD2 JUMP JUMPDEST DUP4 DUP2 GT ISZERO PUSH2 0xCFC JUMPI PUSH1 0x0 DUP5 DUP5 ADD MSTORE JUMPDEST POP POP POP POP JUMP JUMPDEST PUSH1 0x0 PUSH1 0x1F NOT PUSH1 0x1F DUP4 ADD AND SWAP1 POP SWAP2 SWAP1 POP JUMP JUMPDEST PUSH1 0x0 PUSH2 0xD1E DUP3 PUSH2 0xCB3 JUMP JUMPDEST PUSH2 0xD28 DUP2 DUP6 PUSH2 0xCBE JUMP JUMPDEST SWAP4 POP PUSH2 0xD38 DUP2 DUP6 PUSH1 0x20 DUP7 ADD PUSH2 0xCCF JUMP JUMPDEST PUSH2 0xD41 DUP2 PUSH2 0xD02 JUMP JUMPDEST DUP5 ADD SWAP2 POP POP SWAP3 SWAP2 POP POP JUMP JUMPDEST PUSH2 0xD55 DUP2 PUSH2 0xBE8 JUMP JUMPDEST DUP3 MSTORE POP POP JUMP JUMPDEST PUSH1 0x0 PUSH1 0xC0 DUP3 ADD SWAP1 POP DUP2 DUP2 SUB PUSH1 0x0 DUP4 ADD MSTORE PUSH2 0xD75 DUP2 DUP10 PUSH2 0xD13 JUMP JUMPDEST SWAP1 POP PUSH2 0xD84 PUSH1 0x20 DUP4 ADD DUP9 PUSH2 0xC89 JUMP JUMPDEST PUSH2 0xD91 PUSH1 0x40 DUP4 ADD DUP8 PUSH2 0xC89 JUMP JUMPDEST PUSH2 0xD9E PUSH1 0x60 DUP4 ADD DUP7 PUSH2 0xC89 JUMP JUMPDEST PUSH2 0xDAB PUSH1 0x80 DUP4 ADD DUP6 PUSH2 0xC89 JUMP JUMPDEST PUSH2 0xDB8 PUSH1 0xA0 DUP4 ADD DUP5 PUSH2 0xD4C JUMP JUMPDEST SWAP8 SWAP7 POP POP POP POP POP POP POP JUMP JUMPDEST PUSH1 0x0 PUSH1 0x20 DUP3 ADD SWAP1 POP PUSH2 0xDD8 PUSH1 0x0 DUP4 ADD DUP5 PUSH2 0xD4C JUMP JUMPDEST SWAP3 SWAP2 POP POP JUMP JUMPDEST PUSH1 0x0 PUSH1 0x20 DUP3 ADD SWAP1 POP DUP2 DUP2 SUB PUSH1 0x0 DUP4 ADD MSTORE PUSH2 0xDF8 DUP2 DUP5 PUSH2 0xD13 JUMP JUMPDEST SWAP1 POP SWAP3 SWAP2 POP POP JUMP JUMPDEST PUSH1 0x0 PUSH2 0xE0B DUP3 PUSH2 0xBC8 JUMP JUMPDEST SWAP1 POP SWAP2 SWAP1 POP JUMP JUMPDEST PUSH2 0xE1B DUP2 PUSH2 0xE00 JUMP JUMPDEST DUP3 MSTORE POP POP JUMP JUMPDEST PUSH1 0x0 PUSH1 0xA0 DUP3 ADD SWAP1 POP DUP2 DUP2 SUB PUSH1 0x0 DUP4 ADD MSTORE PUSH2 0xE3B DUP2 DUP9 PUSH2 0xD13 JUMP JUMPDEST SWAP1 POP PUSH2 0xE4A PUSH1 0x20 DUP4 ADD DUP8 PUSH2 0xC89 JUMP JUMPDEST PUSH2 0xE57 PUSH1 0x40 DUP4 ADD DUP7 PUSH2 0xE12 JUMP JUMPDEST PUSH2 0xE64 PUSH1 0x60 DUP4 ADD DUP6 PUSH2 0xC5F JUMP JUMPDEST PUSH2 0xE71 PUSH1 0x80 DUP4 ADD DUP5 PUSH2 0xC89 JUMP JUMPDEST SWAP7 SWAP6 POP POP POP POP POP POP JUMP JUMPDEST PUSH1 0x0 DUP1 REVERT JUMPDEST PUSH1 0x0 DUP1 REVERT JUMPDEST PUSH32 0x4E487B7100000000000000000000000000000000000000000000000000000000 PUSH1 0x0 MSTORE PUSH1 0x41 PUSH1 0x4 MSTORE PUSH1 0x24 PUSH1 0x0 REVERT JUMPDEST PUSH2 0xEBD DUP3 PUSH2 0xD02 JUMP JUMPDEST DUP2 ADD DUP2 DUP2 LT PUSH8 0xFFFFFFFFFFFFFFFF DUP3 GT OR ISZERO PUSH2 0xEDC JUMPI PUSH2 0xEDB PUSH2 0xE85 JUMP JUMPDEST JUMPDEST DUP1 PUSH1 0x40 MSTORE POP POP POP JUMP JUMPDEST PUSH1 0x0 PUSH2 0xEEF PUSH2 0xB51 JUMP JUMPDEST SWAP1 POP PUSH2 0xEFB DUP3 DUP3 PUSH2 0xEB4 JUMP JUMPDEST SWAP2 SWAP1 POP JUMP JUMPDEST PUSH1 0x0 PUSH8 0xFFFFFFFFFFFFFFFF DUP3 GT ISZERO PUSH2 0xF1B JUMPI PUSH2 0xF1A PUSH2 0xE85 JUMP JUMPDEST JUMPDEST PUSH2 0xF24 DUP3 PUSH2 0xD02 JUMP JUMPDEST SWAP1 POP PUSH1 0x20 DUP2 ADD SWAP1 POP SWAP2 SWAP1 POP JUMP JUMPDEST DUP3 DUP2 DUP4 CALLDATACOPY PUSH1 0x0 DUP4 DUP4 ADD MSTORE POP POP POP JUMP JUMPDEST PUSH1 0x0 PUSH2 0xF53 PUSH2 0xF4E DUP5 PUSH2 0xF00 JUMP JUMPDEST PUSH2 0xEE5 JUMP JUMPDEST SWAP1 POP DUP3 DUP2 MSTORE PUSH1 0x20 DUP2 ADD DUP5 DUP5 DUP5 ADD GT ISZERO PUSH2 0xF6F JUMPI PUSH2 0xF6E PUSH2 0xE80 JUMP JUMPDEST JUMPDEST PUSH2 0xF7A DUP5 DUP3 DUP6 PUSH2 0xF31 JUMP JUMPDEST POP SWAP4 SWAP3 POP POP POP JUMP JUMPDEST PUSH1 0x0 DUP3 PUSH1 0x1F DUP4 ADD SLT PUSH2 0xF97 JUMPI PUSH2 0xF96 PUSH2 0xE7B JUMP JUMPDEST JUMPDEST DUP2 CALLDATALOAD PUSH2 0xFA7 DUP5 DUP3 PUSH1 0x20 DUP7 ADD PUSH2 0xF40 JUMP JUMPDEST SWAP2 POP POP SWAP3 SWAP2 POP POP JUMP JUMPDEST PUSH2 0xFB9 DUP2 PUSH2 0xE00 JUMP JUMPDEST DUP2 EQ PUSH2 0xFC4 JUMPI PUSH1 0x0 DUP1 REVERT JUMPDEST POP JUMP JUMPDEST PUSH1 0x0 DUP2 CALLDATALOAD SWAP1 POP PUSH2 0xFD6 DUP2 PUSH2 0xFB0 JUMP JUMPDEST SWAP3 SWAP2 POP POP JUMP JUMPDEST PUSH1 0x0 DUP1 PUSH1 0x0 PUSH1 0x60 DUP5 DUP7 SUB SLT ISZERO PUSH2 0xFF5 JUMPI PUSH2 0xFF4 PUSH2 0xB5B JUMP JUMPDEST JUMPDEST PUSH1 0x0 DUP5 ADD CALLDATALOAD PUSH8 0xFFFFFFFFFFFFFFFF DUP2 GT ISZERO PUSH2 0x1013 JUMPI PUSH2 0x1012 PUSH2 0xB60 JUMP JUMPDEST JUMPDEST PUSH2 0x101F DUP7 DUP3 DUP8 ADD PUSH2 0xF82 JUMP JUMPDEST SWAP4 POP POP PUSH1 0x20 PUSH2 0x1030 DUP7 DUP3 DUP8 ADD PUSH2 0xB86 JUMP JUMPDEST SWAP3 POP POP PUSH1 0x40 PUSH2 0x1041 DUP7 DUP3 DUP8 ADD PUSH2 0xFC7 JUMP JUMPDEST SWAP2 POP POP SWAP3 POP SWAP3 POP SWAP3 JUMP JUMPDEST PUSH32 0x4E487B7100000000000000000000000000000000000000000000000000000000 PUSH1 0x0 MSTORE PUSH1 0x32 PUSH1 0x4 MSTORE PUSH1 0x24 PUSH1 0x0 REVERT JUMPDEST PUSH32 0x4E487B7100000000000000000000000000000000000000000000000000000000 PUSH1 0x0 MSTORE PUSH1 0x12 PUSH1 0x4 MSTORE PUSH1 0x24 PUSH1 0x0 REVERT JUMPDEST PUSH32 0x4E487B7100000000000000000000000000000000000000000000000000000000 PUSH1 0x0 MSTORE PUSH1 0x11 PUSH1 0x4 MSTORE PUSH1 0x24 PUSH1 0x0 REVERT JUMPDEST PUSH1 0x0 PUSH2 0x10E3 DUP3 PUSH2 0xB65 JUMP JUMPDEST SWAP2 POP PUSH2 0x10EE DUP4 PUSH2 0xB65 JUMP JUMPDEST SWAP3 POP DUP3 PUSH2 0x10FE JUMPI PUSH2 0x10FD PUSH2 0x107A JUMP JUMPDEST JUMPDEST DUP3 DUP3 DIV SWAP1 POP SWAP3 SWAP2 POP POP JUMP JUMPDEST PUSH32 0x4E487B7100000000000000000000000000000000000000000000000000000000 PUSH1 0x0 MSTORE PUSH1 0x22 PUSH1 0x4 MSTORE PUSH1 0x24 PUSH1 0x0 REVERT JUMPDEST PUSH1 0x0 PUSH1 0x2 DUP3 DIV SWAP1 POP PUSH1 0x1 DUP3 AND DUP1 PUSH2 0x1150 JUMPI PUSH1 0x7F DUP3 AND SWAP2 POP JUMPDEST PUSH1 0x20 DUP3 LT DUP2 SUB PUSH2 0x1163 JUMPI PUSH2 0x1162 PUSH2 0x1109 JUMP JUMPDEST JUMPDEST POP SWAP2 SWAP1 POP JUMP JUMPDEST PUSH1 0x0 PUSH2 0x1174 DUP3 PUSH2 0xB65 JUMP JUMPDEST SWAP2 POP PUSH32 0xFFFFFFFFFFFFFFFFFFFFFFFFFFFFFFFFFFFFFFFFFFFFFFFFFFFFFFFFFFFFFFFF DUP3 SUB PUSH2 0x11A6 JUMPI PUSH2 0x11A5 PUSH2 0x10A9 JUMP JUMPDEST JUMPDEST PUSH1 0x1 DUP3 ADD SWAP1 POP SWAP2 SWAP1 POP JUMP INVALID LOG2 PUSH5 0x6970667358 0x22 SLT KECCAK256 SLT PUSH7 0x81FFE0468C83BB 0xD7 0xD5 BALANCE 0xCD JUMPDEST MOD ADDMOD 0xBD KECCAK256 PUSH4 0x823F0E85 0xBE 0xC0 0xED 0xE8 SELFDESTRUCT 0xF9 PUSH9 0x2E1064736F6C634300 ADDMOD 0xE STOP CALLER LOG2 PUSH5 0x6970667358 0x22 SLT KECCAK256 SHR 0xBE 0x4F SHR SWAP6 MLOAD PUSH23 0x57DF5ACBA494FB2F090B10D1E12D8AD89CF4437E97F4A7 BYTE SSTORE PUSH5 0x736F6C6343 STOP ADDMOD 0xE STOP CALLER "},"gasEstimates":{"creation":{"codeDepositCost":"1505600","executionCost":"1575","totalCost":"1507175"},"external":{"createCampaign(uint256,string)":"infinite","deployedCampaigns(uint256)":"4934","getDeployedCampaigns()":"infinite"}},"methodIdentifiers":{"createCampaign(uint256,string)":"4220d656","deployedCampaigns(uint256)":"339d50a5","getDeployedCampaigns()":"4acb9d4f"}},"storageLayout":{"storage":[{"astId":4,"contract":"campaign:CampaignFactory","label":"deployedCampaigns","offset":0,"slot":"0","type":"t_array(t_address)dyn_storage"}],"types":{"t_address":{"encoding":"inplace","label":"address","numberOfBytes":"20"},"t_array(t_address)dyn_storage":{"base":"t_address","encoding":"dynamic_array","label":"address[]","numberOfBytes":"32"}}},"userdoc":{"kind":"user","methods":{},"version":1}}